:020000040800F2
:10000000000002205D660008D55F0008D75F000889
:10001000D95F0008DB5F0008DD5F0008000000001A
:10002000000000000000000000000000DF5F00088A
:10003000E15F000800000000E35F0008E55F0008E2
:10004000AD660008AD660008AD660008AD66000844
:10005000AD660008AD660008AD660008AD66000834
:10006000AD660008AD660008AD660008F55F0008E3
:10007000AD66000801600008AD660008AD660008C6
:10008000AD6600080D60000819600008AD66000844
:10009000AD660008AD660008AD660008AD660008F4
:1000A000AD66000835600008AD660008AD66000862
:1000B000AD660008AD660008AD6600085160000836
:1000C0005D6000086960000875600008AD660008A2
:1000D000AD660008AD660008AD66000881600008E6
:1000E000AD660008AD660008AD660008AD660008A4
:1000F000AD660008AD660008AD6600088D600008BA
:10010000AD660008AD660008AD660008AD66000883
:10011000AD660008AD660008AD660008AD66000873
:10012000AD660008AD660008AD660008AD66000863
:10013000AD660008AD660008AD660008AD66000853
:10014000AD660008AD660008AD660008AD66000843
:10015000AD660008AD660008AD660008AD66000833
:10016000AD660008AD660008AD660008AD66000823
:10017000AD660008AD660008AD660008000000002E
:08018000AD660008AD66000841
:1001880010B5054C237833B9044B13B10448AFF3C9
:1001980000800123237010BD8800002000000000AB
:1001A8001473000808B5034B1BB103490348AFF3A8
:1001B800008008BD000000008C00002014730008B7
:1001C80081F0004102E000BF83F0004330B54FEA00
:1001D80041044FEA430594EA050F08BF90EA020F6D
:1001E8001FBF54EA000C55EA020C7FEA645C7FEA00
:1001F800655C00F0E2804FEA5454D4EB5555B8BF23
:100208006D420CDD2C4480EA020281EA030382EA93
:10021800000083EA010180EA020281EA0303362D25
:1002280088BF30BD11F0004F4FEA01314FF4801CF8
:100238004CEA113102D0404261EB410113F0004F0A
:100248004FEA03334CEA133302D0524263EB4303C1
:1002580094EA050F00F0A780A4F10104D5F1200E5F
:100268000DDB02FA0EFC22FA05F2801841F10001BA
:1002780003FA0EF2801843FA05F359410EE0A5F18E
:1002880020050EF1200E012A03FA0EFC28BF4CF0BF
:10029800020C43FA05F3C01851EBE37101F0004575
:1002A80007D54FF0000EDCF1000C7EEB00006EEB82
:1002B8000101B1F5801F1BD3B1F5001F0CD349080C
:1002C8005FEA30004FEA3C0C04F101044FEA445263
:1002D80012F5800F80F09A80BCF1004F08BF5FEAEA
:1002E800500C50F1000041EB045141EA050130BDCA
:1002F8005FEA4C0C404141EB010111F4801FA4F16D
:100308000104E9D191F0000F04BF01460020B1FAC1
:1003180081F308BF2033A3F10B03B3F120020CDAF9
:100328000C3208DD02F1140CC2F10C0201FA0CF0D7
:1003380021FA02F10CE002F11402D8BFC2F1200C3C
:1003480001FA02F120FA0CFCDCBF41EA0C019040F2
:10035800E41AA2BF01EB0451294330BD6FEA04043B
:100368001F3C1CDA0C340EDC04F11404C4F1200226
:1003780020FA04F001FA02F340EA030021FA04F338
:1003880045EA030130BDC4F10C04C4F1200220FA8F
:1003980002F001FA04F340EA0300294630BD21FACD
:1003A80004F0294630BD94F0000F83F4801306BF93
:1003B80081F480110134013D4EE77FEA645C18BF87
:1003C8007FEA655C29D094EA050F08BF90EA020F1E
:1003D80005D054EA000C04BF1946104630BD91EA16
:1003E800030F1EBF0021002030BD5FEA545C05D119
:1003F8004000494128BF41F0004130BD14F5800458
:100408003CBF01F5801130BD01F0004545F0FE41CB
:1004180041F470014FF0000030BD7FEA645C1ABF00
:10042800194610467FEA655C1CBF0B46024650EA37
:10043800013406BF52EA033591EA030F41F4002163
:1004480030BD00BF90F0000F04BF0021704730B5E9
:100458004FF4806404F132044FF000054FF00001BE
:1004680050E700BF90F0000F04BF0021704730B57F
:100478004FF4806404F1320410F0004548BF404254
:100488004FF000013EE700BF42004FEAE2014FEAA9
:1004980031014FEA02701FBF12F07F4393F07F4F84
:1004A80081F06051704792F0000F14BF93F07F4FB6
:1004B800704730B54FF4607401F0004521F00041F9
:1004C80020E700BF50EA010208BF704730B54FF07F
:1004D80000050AE050EA010208BF704730B511F084
:1004E800004502D5404261EB41014FF4806404F1BC
:1004F80032045FEA915C3FF4DCAE4FF003025FEA3E
:10050800DC0C18BF03325FEADC0C18BF033202EBC5
:10051800DC02C2F1200300FA03FC20FA02F001FA1F
:1005280003FE40EA0E0021FA02F11444C1E600BFBE
:1005380070B54FF0FF0C4CF4E06C1CEA11541DBF71
:100548001CEA135594EA0C0F95EA0C0F00F0DEF83C
:100558002C4481EA030621EA4C5123EA4C5350EA21
:10056800013518BF52EA033541F4801143F4801372
:1005780038D0A0FB02CE4FF00005E1FB02E506F003
:100588000042E0FB03E54FF00006E1FB03569CF058
:10059800000F18BF4EF0010EA4F1FF04B6F5007F5E
:1005A80064F5407404D25FEA4E0E6D4146EB0606D0
:1005B80042EAC62141EA55514FEAC52040EA5E5059
:1005C8004FEACE2EB4F1FD0C88BFBCF5E06F1ED803
:1005D800BEF1004F08BF5FEA500E50F1000041EB3A
:1005E800045170BD06F0004646EA010140EA0200E7
:1005F80081EA0301B4EB5C04C2BFD4EB0C0541EA09
:10060800045170BD41F480114FF0000E013C00F31D
:10061800AB8014F1360FDEBF002001F0004170BD41
:10062800C4F10004203C35DA0C341BDC04F114045A
:10063800C4F1200500FA05F320FA04F001FA05F2E6
:1006480040EA020001F0004221F0004110EBD370B3
:1006580021FA04F642EB06015EEA430E08BF20EADF
:10066800D37070BDC4F10C04C4F1200500FA04F382
:1006780020FA05F001FA04F240EA020001F0004114
:1006880010EBD37041F100015EEA430E08BF20EA87
:10069800D37070BDC4F1200500FA05F24EEA020ECF
:1006A80020FA04F301FA05F243EA020321FA04F0FE
:1006B80001F0004121FA04F220EA020000EBD370B5
:1006C8005EEA430E08BF20EAD37070BD94F0000FB5
:1006D8000FD101F00046400041EB010111F4801FE9
:1006E80008BF013CF7D041EA060195F0000F18BF9A
:1006F800704703F00046520043EB030313F4801FD6
:1007080008BF013DF7D043EA0603704794EA0C0F8F
:100718000CEA135518BF95EA0C0F0CD050EA4106A5
:1007280018BF52EA4306D1D181EA030101F0004122
:100738004FF0000070BD50EA410606BF104619464A
:1007480052EA430619D094EA0C0F02D150EA013656
:1007580013D195EA0C0F05D152EA03361CBF104697
:1007680019460AD181EA030101F0004141F0FE4136
:1007780041F470014FF0000070BD41F0FE4141F4BA
:10078800780170BD70B54FF0FF0C4CF4E06C1CEABA
:1007980011541DBF1CEA135594EA0C0F95EA0C0F6F
:1007A80000F0A7F8A4EB050481EA030E52EA03352A
:1007B8004FEA013100F088804FEA03334FF080554B
:1007C80045EA131343EA12634FEA022245EA111578
:1007D80045EA10654FEA00260EF000419D4208BF29
:1007E800964244F1FD0404F5407402D25B084FEAD6
:1007F8003202B61A65EB03055B084FEA32024FF482
:1008080080104FF4002CB6EB020E75EB030E22BFDE
:10081800B61A754640EA0C005B084FEA3202B6EB9E
:10082800020E75EB030E22BFB61A754640EA5C004D
:100838005B084FEA3202B6EB020E75EB030E22BFDD
:10084800B61A754640EA9C005B084FEA3202B6EBDE
:10085800020E75EB030E22BFB61A754640EADC009D
:1008680055EA060E18D04FEA051545EA16754FEAFF
:1008780006164FEAC30343EA52734FEAC2025FEA1D
:100888001C1CC0D111F4801F0BD141EA00014FF0AC
:1008980000004FF0004CB6E711F4801F04BF01437D
:1008A8000020B4F1FD0C88BFBCF5E06F3FF6AFAE99
:1008B800B5EB030C04BFB6EB020C5FEA500C50F129
:1008C800000041EB045170BD0EF0004E4EEA1131AC
:1008D80014EB5C04C2BFD4EB0C0541EA045170BDB3
:1008E80041F480114FF0000E013C90E645EA060EF7
:1008F8008DE60CEA135594EA0C0F08BF95EA0C0F25
:100908003FF43BAF94EA0C0F0AD150EA01347FF46C
:1009180034AF95EA0C0F7FF425AF104619462CE743
:1009280095EA0C0F06D152EA03353FF4FDAE1046A6
:10093800194622E750EA410618BF52EA43067FF4F7
:10094800C5AE50EA41047FF40DAF52EA43057FF487
:10095800EBAE12E74FF0FF3C06E000BF4FF0010C92
:1009680002E000BF4FF0010C4DF804CD4FEA410CF6
:100978007FEA6C5C4FEA430C18BF7FEA6C5C1BD0C3
:1009880001B050EA410C0CBF52EA430C91EA030F44
:1009980002BF90EA020F0020704710F1000F91EAA1
:1009A800030F58BF994208BF90422CBFD8176FEA6F
:1009B800E37040F0010070474FEA410C7FEA6C5C3D
:1009C80002D150EA013C07D14FEA430C7FEA6C5C44
:1009D800D6D152EA033CD3D05DF8040B704700BF70
:1009E8008446104662468C461946634600E000BFBE
:1009F80001B5FFF7B7FF002848BF10F1000F01BD90
:100A08004DF808EDFFF7F4FF0CBF012000205DF85A
:100A180008FB00BF4DF808EDFFF7EAFF34BF0120DF
:100A280000205DF808FB00BF4DF808EDFFF7E0FF78
:100A380094BF012000205DF808FB00BF4DF808EDC9
:100A4800FFF7CEFF94BF012000205DF808FB00BF30
:100A58004DF808EDFFF7C4FF34BF012000205DF812
:100A680008FB00BF4FEA410C7FEA6C5C02D150EAF8
:100A7800013C0AD14FEA430C7FEA6C5C02D152EA8E
:100A8800033C02D14FF0000070474FF0010070475F
:100A98004FEA4102B2F1E04324BFB3F5001CDCF198
:100AA800FE5C0DD901F0004C4FEAC0024CEA5070D0
:100AB800B2F1004F40EB830008BF20F001007047FF
:100AC80011F0804F21D113F13872BCBF01F0004002
:100AD800704741F480114FEA5252C2F11802C2F134
:100AE800200C10FA0CF320FA02F018BF40F00100B5
:100AF8004FEAC1234FEAD32303FA0CFC40EA0C0067
:100B080023FA02F34FEA4303CCE77FEA625307D1A3
:100B180050EA01331EBF4FF0FE4040F440007047DA
:100B280001F0004040F0FE4040F40000704700BF74
:100B380053B94AB9002908BF00281CBF4FF0FF313C
:100B48004FF0FF3000F07AB9ADF1080C6DE904CE32
:100B580000F006F8DDF804E0DDE9022304B0704790
:100B68002DE9F0478C460D460446089E002B51D1CE
:100B78008A4217466DD9B2FA82FEBEF1000F0BD039
:100B8800CEF1200C01FA0EF520FA0CFC02FA0EF751
:100B98004CEA050C00FA0EF44FEA174A250CBCFB88
:100BA800FAF81FFA87F90AFB18CC45EA0C4508FB46
:100BB80009F3AB420AD9ED1908F1FF3280F023811D
:100BC800AB4240F22081A8F102083D44ED1AA4B2DC
:100BD800B5FBFAF00AFB105544EA054400FB09F995
:100BE800A14509D9E41900F1FF3380F00A81A14534
:100BF80040F2078102383C44A4EB090440EA08406B
:100C08000021002E61D024FA0EF4002334607360B2
:100C1800BDE8F0878B4207D9002E54D0002186E822
:100C280021000846BDE8F087B3FA83F1002940F0B7
:100C38008E80AB4202D3824200F2FA80841A65EBBE
:100C480003050120AC46002E3FD086E81010BDE811
:100C5800F08712B90127B7FBF2F7B7FA87FEBEF1A2
:100C6800000F34D1EB1B3A0C1FFA87FC0121B3FBB0
:100C7800F2F8250C02FB183345EA03450CFB08F390
:100C8800AB4207D9ED1908F1FF3002D2AB4200F2AE
:100C9800D1808046ED1AA3B2B5FBF2F002FB1055E5
:100CA80043EA05440CFB00FCA44507D9E41900F10C
:100CB800FF3302D2A44500F2B8801846A4EB0C0416
:100CC80040EA08409DE731463046BDE8F087CEF15E
:100CD800200405FA0EF307FA0EF720FA04F83A0C86
:100CE80025FA04F448EA0308B4FBF2F14FEA184580
:100CF80002FB11441FFA87FC45EA044501FB0CF38B
:100D0800AB4200FA0EF409D9ED1901F1FF3080F079
:100D18008A80AB4240F2878002393D44EB1A1FFAC1
:100D280088F5B3FBF2F002FB103345EA034500FBFC
:100D38000CF3AB4207D9ED1900F1FF386FD2AB4283
:100D48006DD902383D44EB1A40EA01418FE7C1F101
:100D5800200722FA07F88B4005FA01F448EA030352
:100D680020FA07FE4FEA134CFD404EEA040EB5FB8D
:100D7800FCF94FEA1E440CFB19551FFA83F844EAA4
:100D8800054509FB08F4AC4202FA01F200FA01FA3F
:100D980008D9ED1809F1FF3043D2AC4241D9A9F185
:100DA80002091D442D1B1FFA8EFEB5FBFCF00CFB3F
:100DB80010554EEA054400FB08F8A04507D9E41889
:100DC80000F1FF3529D2A04527D902381C4440EA52
:100DD8000940A4EB0804A0FB02894C45C6464D46D1
:100DE80015D312D056B1BAEB0E0364EB050404FA1E
:100DF80007F7CB401F43CC40376074600021BDE843
:100E0800F0871846F8E69046E0E6C245EAD2B8EB25
:100E1800020E69EB03050138E4E72846D7E74046A8
:100E280091E78146BEE7014678E702383C4445E74A
:100E3800084608E7A8F102083D442BE7704700BFC1
:100E480038B50E4A0E4B054618784FF47A73B3FB43
:100E5800F0F31068B0FBF3F000F07CFA044658B9E0
:100E68000F2D09D8024629464FF0FF3000F032FA1C
:100E7800044B20461D6038BD012038BD18000020F5
:100E8800000000200400002008B50B4B1A6842F44B
:100E980000721A601A6842F480621A601A6842F492
:100EA80080721A60032000F003FA0020FFF7C8FFE1
:100EB80005F044F8002008BD003C0240034A044BFA
:100EC80011681B780B441360704700BFC0000020F6
:100ED80000000020014B1868704700BFC0000020C8
:100EE80038B50446FFF7F6FF631C1CBF054B1B789B
:100EF800054618BFE418FFF7EDFF401B8442FAD8F7
:100F080038BD00BF0000002010B50446002800F0DE
:100F18009980036C23B9436480F83C3004F0B8FB33
:100F2800236CDB0600F18C80236C23F4885323F0B8
:100F3800020343F002032364434B5A6822F440320D
:100F48005A605A6861680A435A60236821695A6876
:100F580022F480725A605A6842EA01225A605A683A
:100F6800A16822F040725A605A680A435A609A6827
:100F7800E16822F400629A609A680A439A603349E9
:100F8800A26A8A4250D0996821F070619960996884
:100F98000A439A609A68E16A22F040529A609A6815
:100FA8000A439A609A68A16922F002029A609A68D4
:100FB80042EA41029A60226A002A3DD05A68616A70
:100FC80042F400625A605A6822F460425A605A68D1
:100FD800013942EA41325A60DA6AE16922F4700260
:100FE800DA62DA6A013942EA0152DA629A68216BF6
:100FF80022F400729A609A6842EA41229A609A68DA
:10100800616922F480629A609A68002042EA81222B
:101018009A606064236C23F0030343F001032364A4
:10102800002384F83C3010BD9A6822F070629A6000
:101038009A6822F04052B4E75A6822F40062CAE77C
:101048000120EDE7012010BD002301400100000F41
:1010580070477047704738B5036819685A688D0734
:1010680004462BD5900629D5226CD1065EBF226C8A
:1010780042F4007222649A6812F0405F17D1A269A4
:10108800AAB9DA6A12F4700F02D09A6852050ED41F
:101098005A6822F020025A60236C23F48073236478
:1010A800236CDB045EBF236C43F0010323642046FA
:1010B800FFF7CEFF23686FF012021A6023681968E1
:1010C8005A684D0732D5100630D5226CD1065EBF5E
:1010D800226C42F4005222649A6812F4401F1ED116
:1010E8009A6B12F4401F02D09A68520517D45A68B6
:1010F800550514D49A6812F0405F10D1A26972B9EC
:101108005A6822F080025A60236C23F480532364C7
:10111800236CD8055EBF236C43F00103236420468B
:1011280000F0C4F823686FF00C021A60236819688D
:101138005A68C9070FD555060DD51B68D8070AD5B3
:10114800236C43F4803323642046FFF782FF23682F
:101158006FF001021A60236819685A6889060DD56C
:1011680052010BD5626C6FF0200542F002026264F6
:1011780020461D60FFF76EFF23681D6038BD000024
:10118800F7B50023019390F83C30012B00F08380E1
:101198000D6804688A680123092D80F83C30AEB2D6
:1011A8002AD906EB4603E7681E3B4FF0070E0EFAF6
:1011B80003FE27EA0E07E760E76802FA03F33B43FA
:1011C800E3604A68062A4FEA820325D81344676B0E
:1011D800591F1F238B4027EA03036363626B06FAD8
:1011E80001F1114361632D4B9C4234D0002380F8F8
:1011F8003C30184603B0F0BD276905EB45034FF0B6
:10120800070E0EFA03FE27EA0E072761276902FA7E
:1012180003F33B432361D4E70C2A0ED81344216B14
:10122800A3F123021F23934021EA03032363236BC3
:1012380006FA02F21A432263D5E71344E16A413BF6
:101248001F229A4021EA0202E262E26A06FA03F1E8
:101258001143E162C7E7122D04D1114A536843F4E0
:1012680080035360A5F11003012BBFD80C4A5368C3
:10127800102D43F400035360B8D10A4B0A4A1B6887
:10128800B3FBF2F20A2353430193019B002BADD029
:10129800019B013BF8E70220ACE700BF00200140BA
:1012A800002301401800002040420F007047000052
:1012B800074AD36823F4E0631B041B0C43F0BF63A5
:1012C800000243F4003300F4E0600343D360704746
:1012D80000ED00E0174B30B5DC68C4F30224C4F11C
:1012E8000703251D042B28BF0423062D4FF00105F5
:1012F80005FA03F303F1FF338CBF033C00241940C4
:10130800A14005FA04F4013C2240002842EA010207
:101318004FEA0212AFBF00F1604000F00F00064B29
:10132800D2B2A5BF00F56140D2B21A5480F80023AA
:1013380030BD00BF00ED00E014ED00E042090123DC
:1013480000F01F0003FA00F0014B43F82200704739
:1013580000E100E00138B0F1807F0AD2064B074A6D
:101368005860F02182F823100020072298601A6044
:1013780070470120704700BF10E000E000ED00E07A
:10138800044B1A6804280CBF42F0040222F004023D
:101398001A60704710E000E0704708B5FFF7FCFFDF
:1013A80008BD00000368DAB223F47F7323F0030357
:1013B8001821103AB2FBF1F20449032A88BF04331A
:1013C800895C8365C165806D704700BF3073000814
:1013D80070B50446FFF77EFD0546002C71D000234A
:1013E80084F834302268022384F83530136823F0F7
:1013F8000103136021680B68D8073CD40B68324D91
:101408006268A0691D40A3681343E2681343226918
:10141800134362691343E26903431343226A134384
:10142800626A042A43EA050301BF266BE56A35436D
:101438002B430B604B69042A23F0070343EA02039A
:101448000BD1A26AE56A13433DB1F8B9012A2DD040
:1014580001D3022A01D1EA012BD44B612046FFF7C0
:10146800A1FFE26D3F239340836000200123606564
:1014780084F8353070BDFFF72DFD401B0528B9D91C
:1014880020236365032084F8350070BDB0F5005F44
:1014980013D1032AE1D801A050F822F0BB140008A8
:1014A8005F140008BB140008B5140008B5F1C07F2C
:1014B800D3D1402363650120E5E7022AF9D9032A3D
:1014C800C8E7012070BD00BF3F8010F090F83530AC
:1014D800022B03D08023436501207047026805234F
:1014E80080F83530136823F001031360002070473B
:1014F800F7B5002301935A4B856D1F68C36D2E689D
:1015080008229A40164204460CD001680868400731
:1015180008D5086820F004000860AA60626D42F0EF
:101528000102626501229A40164208D02168496981
:10153800090641BFAA60626D42F002026265042298
:101548009A40164208D021680968880741BFAA60F6
:10155800626D42F00402626510229A40164210D071
:101568002368196809070CD5AA601A68500335D58D
:101578001B68190301D4236C00E0A36C0BB120464F
:101588009847E16D20228A40164238D023681868AF
:10159800C60634D5AA6094F83520052A1A6825D1DC
:1015A80022F016021A605A6922F080025A61226CEF
:1015B8000AB9A26C1AB11A6822F008021A603F230D
:1015C8008B40AB60002384F83430012384F8353035
:1015D800236D0BB12046984703B0F0BD1A68D205B9
:1015E8005EBF1A6822F008021A60C4E7500328D5C3
:1015F8001B68190332D4636C0BB120469847636D9E
:10160800002BE9D0636DDA0719D50523226884F821
:101618003530136823F0010313604FF41653B7FBFA
:10162800F3F7019B01339F42019302D31368DB0751
:10163800F7D4002384F83430012384F83530E36C80
:10164800C7E71A6812F4807208D1196821F01001EE
:101658001960012384F8342084F83530E36BCBE734
:10166800180000202DE9F04F85B00B68DFF8AC8139
:10167800684ADFF8AC91019300234FF0010E019CFA
:101688000EFA03FE0EEA0406B64540F0AE804C683A
:1016980024F01007022F16D14FEAD30A00EB8A0A6A
:1016A80003F0070BDAF820504FEA8B0B4FF00F0CC2
:1016B8000CFA0BFC25EA0C0C0D6905FA0BF545EA4A
:1016C8000C05CAF820504FEA430A0325D0F800B0A9
:1016D80005FA0AF5ED4304F0030C0BEA050B0CFAC6
:1016E8000AFC013F4CEA0B0C012FC0F800C011D8CE
:1016F800876807EA050BCF6807FA0AFC4CEA0B076C
:101708008760476827EA0E0EC4F300179F4047EA30
:101718000E074760C7683D408F6807FA0AF73D43E0
:10172800C560E50061D54FF0000BCDF80CB0D8F8D6
:101738004470394D47F48047C8F84470D8F844706D
:1017480007F480470397039F23F0030707F18047B7
:1017580007F59C3703F0030CD7F808A04FEA8C0C68
:101768004FF00F0E0EFA0CFEA8422AEA0E0E43D0D6
:1017780005F58065A84241D005F58065A8423FD0AF
:1017880005F58065A8423DD005F58065A8423BD0A7
:1017980048453BD005F50065A84239D005F5806578
:1017A800A84214BF0825072505FA0CF545EA0E05D9
:1017B800BD601568F74314F4803F0CBF3D403543C6
:1017C8001560556814F4003F0CBF3D403543556023
:1017D800956814F4801F0CBF3D4035439560D5686B
:1017E800A40254BF3D403543D5600133102B7FF42C
:1017F80044AF05B0BDE8F08F5D46D5E70125D3E7D6
:101808000225D1E70325CFE70425CDE70525CBE75A
:101818000625C9E7003C01400000024000380240AC
:10182800001402400369194214BF012000207047C8
:101838000AB1816170470904FBE70268536913F430
:1018480080630DD06FF48063536104230364202206
:101858000023036380F83C3080F83D200120704766
:10186800184670472DE9F843044617469946C1F3D0
:1018780007488EB22568B8F1010F0CBF6B69AB69D8
:1018880036EA030314BF0120002008B9BDE8F88335
:101898006B695A0512D52B6843F400732B606FF4FB
:1018A80080636B610423236420220023236384F86C
:1018B8003C3084F83D200120BDE8F8837B1CD9D05A
:1018C8004FB900232022236384F83C3084F83D205C
:1018D8000320BDE8F883FFF7FDFAA0EB0900874273
:1018E800C8D2EEE72DE9F843089E044690461F4605
:1018F800C1F307498DB22368B9F1010F0CBF5B69C9
:101908009B6935EA03030CBF01230023434502D03A
:101918000020BDE8F8837B1CEDD05FB900232022AE
:10192800236384F83C3084F83D20032084F83E305B
:10193800BDE8F883FFF7CEFA801B8742DBD2EDE7DC
:1019480070B504460D46164623685B691B0601D52B
:10195800002070BD2046FFF770FFA8B96A1CF3D0BD
:1019680065B9236C43F020032364202200232363FA
:1019780084F83C3084F83D20032070BDFFF7AAFAB4
:10198800801B8542E0D2ECE7012070BD2DE9FF41C4
:10199800154602680B9E9846136843F480731360DB
:1019A8000F4600960A9B00224FF001110446FFF7EC
:1019B80099FF68B923680A9A1C4907F0FE071F6156
:1019C80020463346FFF74EFF30B1236C042B18D066
:1019D800032004B0BDE8F081236803905A6903929C
:1019E8009B69039332460A99039B2046FFF7A8FF99
:1019F80048B1236C042BEBD12268136843F40073BD
:101A080013600120E5E7B8F1010F236802D1EDB2B8
:101A18001D61DEE72A0A1A610A9932462046FFF755
:101A28008FFF0028E5D12368F1E700BF020001001D
:101A38002DE9FF41984603680B9D16461A6842F443
:101A480080621A601A6842F480721A600F46009524
:101A58000A9B00224FF001110446FFF743FF80B9AB
:101A680023682F49FFB207F0FE021A6120462B4671
:101A78000A9AFFF7F7FE40B1236C042B01D101202D
:101A880000E0032004B0BDE8F081236803905A69A0
:101A980003929B6903932A460A99039B2046FFF702
:101AA8004FFF40B1236C042BEBD12268136843F439
:101AB80000731360E3E7B8F1010F236824D1F6B28D
:101AC8001E612A460A992046FFF73AFF0246002877
:101AD800E8D121680B6843F480730B6020460095B9
:101AE8000A9B4FF00111FFF7FDFE0028C9D12368BA
:101AF8000A9A0B4947F001071F6120462B46FFF75A
:101B0800B1FE0028B8D1BDE7320A1A610A992A46FF
:101B18002046FFF715FF0028C4D12368CFE700BF90
:101B28000200010070B504460D4616462068436958
:101B380013F0400301D0002070BD4269D2060BD5D6
:101B48006FF0100242612022236484F83C30236342
:101B5800012084F83D2070BD5DB9236C43F020035B
:101B68002364202384F83D30002384F83C3003208C
:101B780070BDFFF7AFF9801B8542D7D2EDE770B58E
:101B880004460D46164623685B695B0701D50020AD
:101B980070BD2046FFF751FEA8B96A1CF3D065B99D
:101BA800236C43F02003236420220023236384F85A
:101BB8003C3084F83D20032070BDFFF78BF9801B73
:101BC8008542E0D2ECE7012070BD000070B5044604
:101BD800002862D090F83D3003F0FF021BB980F86E
:101BE8003C2003F0B5FF22682D4E2E4D242384F8A7
:101BF8003D30136823F00103136001F013F96368A3
:101C08002268B0FBF5F5B34284BF4FF4967169437F
:101C1800556091BF691C4FF47A75B1FBF5F101313C
:101C2800B342116221D85B00B0FBF3F0C0F30B03A1
:101C3800032B98BF0420216AE369D0610B4313602A
:101C4800E16823690B439360A16963690B43D3601F
:101C5800136843F00103136000202023206484F8F4
:101C68003D30206384F83E0070BDA16849B903EB9C
:101C78004303B0FBF3F0C0F30B0363B140F400403F
:101C8800D9E719214B43B0FBF3F0C0F30B0313B1B1
:101C980040F44040CFE70120CDE7012070BD00BFF0
:101CA800A086010040420F002DE9F34704469A46FA
:101CB800884691460C9EFFF70DF994F83D30202B8D
:101CC800054603D0022002B0BDE8F0870090192332
:101CD80001223E492046FFF705FE0028F2D194F87C
:101CE8003C30012BEED0012384F83C3023681A687D
:101CF800D2075EBF1A6842F001021A601A6822F41D
:101D080000621A60212384F83D30402384F83E3075
:101D18000A9B63620027BDF82C30276463852C4B2F
:101D2800E362638D23850195009653464A464146F2
:101D38002046FFF72BFE00282AD0236C84F83C703D
:101D4800042B07D10120BEE7FFF7FAFD20B1236C71
:101D5800042B34D00320B6E7616A2768228D4B1C18
:101D680063620B783B61638D013B9BB263857B6942
:101D7800501E80B25B0720850AD548B18B1C636270
:101D88004B783B61638D013B023A9BB222856385A8
:101D9800238D2A4631462046002BD5D1FFF7EFFE8A
:101DA8000028D4D12268136843F4007313602023F9
:101DB80084F83D3084F83C0084F83E0083E72268CC
:101DC800136843F400731360BCE700BF02001000FF
:101DD8000000FFFF2DE9F047044686B09A460D46FD
:101DE8009146109FFFF776F894F83D30202B064671
:101DF80004D00225284606B0BDE8F08700901923D4
:101E0800012279492046FFF76DFD0028F1D194F8A9
:101E18003C30012BEDD0012384F83C3023681A684C
:101E2800D2075EBF1A6842F001021A601A6822F4EB
:101E380000621A60222384F83D30402384F83E3043
:101E48000E9B63624FF00008BDF83C30C4F8408038
:101E58006385664BE362638D238529460196009767
:101E680053464A462046FFF7E3FD054630B1236C4A
:101E780084F83C80042B3AD10125BBE7228D2368E6
:101E880092B902905A6902929A690292029A1A6861
:101E980042F400721A60202384F83D30002384F84D
:101EA8003E3084F83C30A5E7012A22D11A6822F492
:101EB80080621A6003905A6903929A690392039A9E
:101EC8001A6842F400721A60DFF82481238D002B0F
:101ED800E1D0032B6BD8012B23D13246394620465B
:101EE800FFF720FE002839D0236C202BC4D103250E
:101EF80080E7022A0ED11A6822F480621A601A68F2
:101F080042F400621A6004905A6904929B6904932F
:101F1800049BD9E705905A6905929B690593059B2F
:101F2800D2E7022B00963B464FF00002414620467E
:101F380022D1FFF7D7FC0028D9D123681A6842F4C8
:101F480000721A60626A1B69511C61621370238DEA
:101F5800013B2385638D013B9BB26385636A5A1CF1
:101F68006262226812691A70238D013B2385638D92
:101F7800013B9BB26385A9E7FFF7B4FC0246002842
:101F8800B5D12368196821F480611960616A1B69F9
:101F9800481C60620B70238D0096013B2385638D7E
:101FA800013B9BB2638541463B462046C1E732462A
:101FB80039462046FFF7B6FD002895D1636A5A1CBA
:101FC8006262226812691A70238D2268013B238598
:101FD800638D013B9BB2638553695B077FF576AFE1
:101FE800636A591C6162BDE7020010000000FFFF30
:101FF800040001007047704770477047704770478A
:10200800704770477047704790F83D30293B012B67
:1020180010B50368044639D800220263282280F8E4
:102028003D201A6822F400621A605A6812F40062AD
:1020380054D05A68606B22F400625A6090F83530C8
:10204800012B394B31D00365FFF740FA50B12268B4
:10205800606B136823F001031360202384F83D307C
:10206800036D984794F83D30282B0ED1236C5B07FD
:102078000BD52E4BE362202200232363204684F8ED
:102088003D2084F83E30FFF7BAFF10BD90F83D20A0
:10209800602A05D05A6812055CBF202280F83D20CE
:1020A8000022226384F83E20BBE7A06B0365FFF79C
:1020B8000DFA0028D6D022685369580604D5636AF9
:1020C8001269591C61621A702268A06B136823F0A8
:1020D80001031360202384F83D30C1E794F83D10D4
:1020E800602914D1202184F83D1022645A695106D0
:1020F80004D5626A1B69511C6162137022681368F7
:1021080023F0010313602046FFF77DFFAAE75A6911
:10211800520604D5626A1B69511C6162137020461D
:10212800FFF770FF9EE700BF412900080000FFFF8E
:102138000368F0B59D6959695A6890F83E40E4B261
:10214800102C8DB002D0402C40F0558211F0011FA8
:1021580066D0970564D590F83E40402C43D1046D75
:10216800002C3BD1446C04F0FE041C61984E994C41
:102178002E400C40002E00F09F81974D0D40002D01
:1021880000F06681550540F16381002C40F06081C4
:1021980090F83D20058D90F83E10C46AD2B2C9B2BD
:1021A800002D40F00581212A40F00481042C00F024
:1021B8006C81082C00F0698114F5803F00F065817E
:1021C8005A6822F4E0625A601123036380F83E5093
:1021D800202380F83D30FFF70DFFF6E0446C44F013
:1021E8000104E4B2C1E70469B4F5804F05D190F861
:1021F8003D40212C446CF2D1B5E7046D34B9446CF0
:10220800E41104F0060444F0F004AEE7046D012C78
:10221800ACD1446CE41104F0060444F0F104A4E7E2
:102228006E4C0C401CB1960501D5446CD9E76C4C3A
:102238000C40002C9AD0940598D590F83E40C66A78
:10224800D0F830E090F83D70222FE4B240F0A8803A
:10225800076D47B9402C06D101975C6901949C69C8
:102268000194019C82E7046D8CB90769B7F5404F6A
:102278000DD102945C6902949C690294029C1C68CA
:1022880044F480741C60046D013404656EE7448D69
:10229800A4B254B903945C6903949C690394039CA5
:1022A8001C6844F400741C6019E0448DA4B2012C2D
:1022B80042D116F5803F1BD11C6824F480641C6051
:1022C8005C6814F400640CD01C6824F480641C60FE
:1022D800002404945C6904949C690494049C00247C
:1022E800D3E705945C6905949C690594059CD7E738
:1022F800042E15D0082E13D0BEF1120F10D0C46AC8
:10230800022C1C6814BF24F4806444F480641C60AC
:10231800002406945C6906949C690694069CDEE792
:102328001C6824F480641C60002407945C6907948A
:102338009C690794079CB3E7448DA4B2022C1CD176
:10234800C46A022C1C681DBF24F480641C601C68CD
:1023580044F4806418BF44F400641C605C6827057A
:1023680042BF5C6844F480545C60002408945C6953
:1023780008949C690894089CB1E71C6844F480643C
:102388001C605C68260542BF5C6844F480545C604D
:10239800002409945C6909949C690994099C9EE746
:1023A80000240A945C690A949C690A940A9CDDE6F4
:1023B800212A03D0402908D1222A06D1428D92B27F
:1023C80082B95A6822F480625A600DB0F0BD00BF2D
:1023D8000400100004000100800001000800010052
:1023E8000200010090F83E20402A27D1026D7AB9F8
:1023F800C26C012A826C05D1D2B21A61036D023314
:102408000365E2E7C2F307221A61036D0133F7E7B8
:10241800026D012A02D1826CD2B2F5E7026D022A5E
:10242800D3D190F83D20222A04D11A6842F4807250
:102438001A60CAE790F83D20212AC6D1426A511C89
:10244800416212781A61438D013B9BB24385BCE718
:10245800002CBAD09405B8D5C16A90F83D20212A3D
:10246800B3D1428D92B2002AE8D104290DD00829AF
:102478000BD011F5803F08D0596821F4E06159600C
:102488001123036380F83E20A2E65A6822F4E06232
:102498005A601A6842F400721A600023202203630B
:1024A80080F83D2090F83E2080F83E30402A7FF4A6
:1024B80092AEFFF7A5FD88E7904D0D40002D41D065
:1024C80051053FD5002C3DD190F83D20222A7FF4BC
:1024D8007CAF428D92B2032A13D9426A1B69511C00
:1024E80041621370438D013B9BB24385438D9BB280
:1024F800032B7FF46AAF0268536823F48063536048
:1025080063E7012A3FF661AF1A6822F480621A6015
:102518005A6822F4E0625A60426A1B69511C41629F
:102528001370438D013B9BB24385202380F83D30D7
:10253800046390F83E3080F83E40402B58D1FFF7B6
:1025480060FD42E7002C3FF440AF97057FF53DAFB3
:10255800C16A428D92B2042A426A08D1596821F4AC
:1025680080615960511C1B69416213706BE7448D8F
:10257800A4B2032C08D1596821F480615960196804
:1025880021F480611960EDE7448DA4B2022CE9D1F1
:102598000139012919689DBF21F480611960196802
:1025A80041F4007198BF41F4807119601B69511C96
:1025B80041621370438D013B9BB24385436A5A1CA9
:1025C8004262026812691A70438D0268013B9BB22D
:1025D8004385536823F440735360202380F83D30CB
:1025E8000023036390F83E2080F83E30402AA5E798
:1025F800FFF701FDE9E6424C0C4074B196050CD595
:1026080099699B6981F004011D06C1F3800154BFDB
:102618008289028BFFF7F2FCD7E63A4C0C40002C7B
:1026280074D0940572D590F83D20596821F4E06182
:10263800596000210B9159690B91196841F001010A
:1026480019600B99196821F48061196059680905A6
:10265800D2B20CD590F83D10222903D090F83D1045
:102668002A2929D1816B0968496889B24185418D38
:1026780089B2E1B159694F0708D5416A1B694C1CF9
:1026880044620B70438D013B9BB2438501684B69E3
:102698005E0608D5436A09695C1C44621970438D5B
:1026A800013B9BB24385036C43F004030364036C52
:1026B80023B1FFF7A9FC88E6416BD4E7A2F1280112
:1026C80002290AD8104AC2622022036380F83D20FA
:1026D80080F83E30FFF793FC77E6036B222B02D09D
:1026E800222A7FF472AE00232022036380F83D2063
:1026F80080F83E30FFF781FC67E600BF400001002C
:1027080002000100100001000000FFFF394E3A4CA2
:102718002E400C40002E36D0384D0D403DB35505A7
:1027280025D524BB90F83D10428D92B2C9B2002A3B
:102738003FF44BAE426A541C446212781A61428DCF
:10274800013A92B24285428D92B2002A7FF43DAEA0
:1027580029297FF43AAE5A6822F480625A6021230C
:102768000363282380F83D30FFF746FC2DE6002C54
:102778003FF42BAE94057FF528AE428D92B2002A25
:102788007FF45CAE21E61E4D0D4035B3510524D5CE
:102798001CBB90F83D20418D89B2D2B200293FF48C
:1027A80014AE416A1B694C1C44620B70438D013B9B
:1027B8009BB24385438D9BB2002B7FF406AE2A2A39
:1027C8007FF403AE0268536823F4806353602223C6
:1027D8000363282380F83D308CE7002C3FF4F5ADE7
:1027E80092057FF5F2AD428D92B2002A3FF4EDAD2D
:1027F800426AB7E6040010000400010080000100EE
:1028080040000100F8B50368494A5E695D681642F0
:10281800044608D0E80506D5226C42F0010222647D
:102828006FF480725A6116F4813F08D0E90506D525
:10283800226C42F0020222646FF400725A6116F4AC
:10284800823F36D0EA0534D594F83E70618D94F80D
:102858003D20206B202F89B2D2B258D1002956D101
:1028680002F0F701212903D0282A50D121284ED17E
:1028780094F83D20E16A0429D2B201D008292CD16C
:10288800282A2AD12B4AE2625A6822F4E0625A6066
:102898006FF480625A611A6822F480621A60002319
:1028A80020222363204684F83D2084F83E30FFF739
:1028B800A6FB16F4843F09D0EB0507D5236C43F03B
:1028C8000803236423686FF400625A61236C73B3AE
:1028D8002046BDE8F840FFF797BB212A23D11549C8
:1028E800E1622263202284F83D20002284F83E2001
:1028F8005A6822F4E0625A606FF480625A611A687A
:1029080022F480621A602046FFF776FBD1E7226C3A
:1029180042F00402226494F83E20102A02BF1A688A
:1029280042F400721A606FF480625A61C1E7F8BD20
:10293800000101000000FFFF806B08B50368416BD0
:102948001A6822F480621A60002242850A65816B47
:102958000A6590F83D1060294FF0200180F83D107D
:1029680080F83E2007D102641A6822F001021A603A
:10297800FFF749FB08BD1A6822F001021A60FFF749
:1029880041FB08BD2DE9F341044618B9012002B006
:10299800BDE8F0810368DD0710D42368980758D490
:1029A80023681A0700F19A8023685B0700F1B88052
:1029B800A269002A40F019810020E8E7A64B9A682E
:1029C80002F00C02042A07D09A6802F00C02082AC6
:1029D8000AD15B68590207D59F4B1B689A03DCD55F
:1029E8006368002BD9D1D1E763689B4DB3F5803F6D
:1029F80011D12B6843F480332B60FEF76BFA964DA8
:102A080006462B689B03C8D4FEF764FA801B64282B
:102A1800F7D90320BBE7B3F5A02F04D12B6843F403
:102A280080232B60E5E72A6822F480322A602A682E
:102A380022F480222A60002BDFD1FEF74BFA0646EB
:102A48002B689F03A9D5FEF745FA801B6428F7D9A0
:102A5800DFE7814B9A6812F00C0F07D09A6802F0F2
:102A68000C02082A11D15B685E020ED47A4B1A68F0
:102A7800950702D5E268012A88D11A68216922F0EF
:102A8800F80242EAC1021A608AE7E268734BB2B1FF
:102A980001221A60FEF71EFA6F4D06462B6898074A
:102AA80007D52B68226923F0F80343EAC2032B6099
:102AB80076E7FEF70FFA801B0228EFD9A9E71A601C
:102AC800FEF708FA644D06462B6899077FF568AF4C
:102AD800FEF700FA801B0228F6D99AE76269604B74
:102AE8007AB101221A60FEF7F5F95B4D06466B6F65
:102AF8009F073FF559AFFEF7EDF9801B0228F6D97D
:102B080087E71A60FEF7E6F9534D06466B6F98079C
:102B18007FF54AAFFEF7DEF9801B0228F6D978E781
:102B28004D4B1A6C12F0805228D101921A6C42F067
:102B380080521A641B6C03F080530193019B012699
:102B4800484D2B68D9051BD5A368434D012B27D1C8
:102B58002B6F43F001032B67FEF7BCF93E4D074688
:102B680041F288382B6F9B0739D5002E3FF420AFF0
:102B7800394A136C23F08053136419E70026DFE702
:102B88002B6843F480732B60FEF7A4F907462B6883
:102B9800DA05D9D4FEF79EF9C01B0228F7D938E721
:102BA800052B04D12B6F43F004032B67D0E72A6F62
:102BB80022F001022A672A6F22F004022A67002BFA
:102BC800CAD1FEF787F941F2883807462B6F980774
:102BD800CBD5FEF77FF9C01B4045F7D919E7FEF7BB
:102BE80079F9C01B4045BDD913E71B4DAB6803F00D
:102BF8000C03082B3FF4CAAE1B4E0023022A336095
:102C080034D1FEF767F907462B6899011ED4226A6A
:102C1800E3691343626A43EA8213E26A43EA02639E
:102C2800A26A0D4C5208013A43EA02436B60012341
:102C38003360FEF74FF9054623689A013FF5BCAEAD
:102C4800FEF748F9401B0228F6D9E2E6FEF742F9FA
:102C5800C01B0228D8D9DCE60038024000004742F1
:102C6800800E47420070004060004742FEF732F98C
:102C780004462B689B017FF59FAEFEF72BF9001BDE
:102C88000228F6D9C5E600BF134908B58B6803F0DA
:102C98000C03042B03D0082B03D0104808BD1048A0
:102CA80008BD4A684B68496813F4800314BF0C4890
:102CB8000A48C1F3881118BF002302F03F02A1FBA4
:102CC8000001FDF735FF044B5B68C3F30143013393
:102CD8005B00B0FBF3F008BD003802400024F400AC
:102CE80000127A002DE9F0410D46044610B9012082
:102CF800BDE8F081444B1A6802F00F028A4228D3DB
:102D080021688F072DD4C80740D43F4B1A6802F0BA
:102D18000F02954266D3226851076CD4130707D572
:102D28003A4A2169936823F4604343EAC1039360F4
:102D3800FFF7AAFF354B364A9B68C3F30313D35CEE
:102D4800D840344B18600020FEF77AF80020BDE820
:102D5800F081CAB21A701B6803F00F039942C6D1FA
:102D6800CEE72A4B11F0040F1EBF9A6842F4E052D6
:102D78009A600E0742BF9A6842F460429A609A6865
:102D8800A06822F0F00202439A60BCE762681F4B19
:102D9800012A1DD11B6813F4003FA8D01B4EB3684D
:102DA80023F003031343B360FEF794F841F2883825
:102DB8000746B368626803F00C03B3EB820FA4D034
:102DC800FEF788F8C01B4045F3D90320BDE8F08121
:102DD800911E01291B6802D813F0007FDDE713F06C
:102DE800020FDAE7EAB21A701B6803F00F039D427C
:102DF8007FF47DAF8FE70549E0688B6823F4E053E3
:102E080003438B608AE700BF003C02400038024061
:102E18005273000818000020014B1868704700BF63
:102E280018000020044B054A9B68C3F38223D35C37
:102E3800034A1068D840704700380240627300089F
:102E480018000020044B054A9B68C3F34233D35C47
:102E5800034A1068D840704700380240627300087F
:102E680018000020036A23F001030362036A426822
:102E780070B584690D6824F0730425438C6823F0C9
:102E8800020323430C4CA04209D004F58064A042FD
:102E980005D042604A6885614263036270BDCC68B0
:102EA8008E6923F0080323434C6922F440723443AB
:102EB80023F004032243ECE700000140036A23F4F3
:102EC80080730362036A426870B5C4690D6824F0B0
:102ED800730425438C6823F4007343EA04230E4CDF
:102EE800A04209D004F58064A04205D042604A6837
:102EF800C561C263036270BDCC688E6923F4006348
:102F080043EA04234C6922F44052344323F4806397
:102F180042EA0412EAE700BF00000140036A23F412
:102F28008053036230B5046A4368C2690D6822F4AD
:102F3800E64242EA05228D6824F4005444EA053446
:102F4800094DA84209D005F58065A84205D043601F
:102F58004B68C2610364046230BD4D6923F4804349
:102F680043EA8513F3E700BF000001400368DA680D
:102F780042F00102DA601A6842F001021A60002089
:102F880070477047036889B1042907D01A6A22F08C
:102F980001021A621A6A42F001021A621A6A22F0DF
:102FA80010021A621A6A42F0100206E01A6A22F047
:102FB80001021A621A6A42F001021A621A6842F0A1
:102FC80001021A600020704790F83830012B70B564
:102FD8004FF002031CD080F839300368012280F8D2
:102FE80038209A6822F47F4222F077029A600A68B1
:102FF800402A79D019D8102A00F093800AD8002ADC
:1030080000F08980012380F83930002380F83830B7
:10301800184670BD202A00F08A80302AF2D19A68BA
:1030280022F0700242F0370236E0702A36D01BD800
:10303800502A42D0602AE5D11C6A4D68CE6824F037
:1030480010041C6299691A6A21F4704122F0A002E6
:1030580042EA051241EA063199611A629A6822F039
:10306800700242F0670217E0B2F5805F11D0B2F546
:10307800005FC7D18A684D689C68C9682A4324F4F0
:103088007F4442EA012222439A609A6842F48042CD
:1030980002E09A6822F007029A60B3E78A684D68EE
:1030A8009C68C9682A4324F47F4442EA01222243E7
:1030B8009A609A6842F07702EEE74C68CE68196A1F
:1030C8001D6A25F001051D629A6921F00A0122F0A6
:1030D800F00242EA061221439A6119629A6822F0C4
:1030E800700242F05702D7E74C68CE68196A1D6A29
:1030F80025F001051D629A6921F00A0122F0F0020B
:1031080042EA061221439A6119629A6822F0700213
:1031180042F04702C0E79A6822F0700242F00702C4
:10312800BAE79A6822F0700242F01702B4E79A6888
:1031380022F0700242F02702AEE7704770477047EE
:10314800704703681A69910710B504460ED5DA6806
:1031580092070BD56FF002021A619B6901229B0747
:10316800027677D0FFF7EAFF0023237623681A69EF
:10317800500710D5DA6851070DD56FF004021A61AF
:103188009B69022213F4407F2276204668D0FFF71D
:10319800D5FF0023237623681A6912070FD5DA684A
:1031A80010070CD56FF008021A61DB690422990731
:1031B800227620465AD0FFF7C1FF002323762368E2
:1031C8001A69D20610D5DA68D0060DD56FF010024C
:1031D8001A61DB69082213F4407F227620464BD01F
:1031E800FFF7ACFF0023237623681A69D10708D5B7
:1031F800DA68D20705D56FF001021A61204602F09D
:103208008FFD23681A69100608D5DA68110605D5F6
:103218006FF080021A61204600F019FA23681A69D3
:10322800520608D5DA68500605D56FF040021A61D3
:103238002046FFF785FF23681A69910622D5DA68C8
:1032480092061FD56FF0200220461A61BDE8104093
:1032580000F0FCB9FFF771FF2046FFF770FF83E726
:10326800FFF76BFF2046FFF76AFF92E7FFF765FF5E
:103278002046FFF764FFA0E7FFF75FFF2046FFF750
:103288005EFFAFE710BD00002E4A0368904212D0DF
:10329800B0F1804F0FD0A2F57C4290420BD002F5DE
:1032A8008062904207D002F58062904203D002F516
:1032B800784290421DD14A6823F070031343214A93
:1032C800904204D1CA6823F44073134328E0B0F154
:1032D800804FF7D01C4A9042F4D002F580629042A9
:1032E800F0D002F580629042ECD002F5784290422C
:1032F800E8D0164A9042E5D002F580629042E1D0CB
:1033080002F580629042DDD0A2F598329042D9D081
:1033180002F580629042D5D002F580629042D1D009
:1033280003608B68C3620B688362064B984206D0C1
:1033380003F58063984202D00123436170470B690B
:103348000363F9E700000140000400400040014029
:1033580010B50446A0B190F8393003F0FF021BB94C
:1033680080F8382002F02EFF022384F839302068D4
:10337800211DFFF789FF012384F83930002010BD93
:10338800012010BD10B50446A0B190F8393003F003
:10339800FF021BB980F83820FFF7F3FD022384F8F9
:1033A80039302068211DFFF76FFF012384F8393079
:1033B800002010BD012010BDF8B50C4605460028B8
:1033C80041D090F8393003F0FF021BB980F838205B
:1033D80002F0D4FE2946022351F8040B85F839304F
:1033E800836823F007038360FFF74EFF286823688C
:1033F80086688269A168076A1E43A36922F440723D
:1034080022F0030241EA0323134323F47C42236995
:10341800E1691B0143EA0123E1680B43216A22F0B9
:10342800FC0243EA01331343616927F0AA02676883
:10343800866047EA0117836117430123076285F80D
:1034480039300020F8BD0120F8BD0000036A23F0E0
:1034580010030362036A426870B584690D6824F436
:10346800E64444EA05258C6823F0200343EA041364
:103478000D4CA04209D004F58064A04205D04260FA
:103488004A6885618263036270BDCC688E6923F0E7
:10349800800343EA04134C6922F44062344323F066
:1034A800400342EA8402EAE70000014038B590F898
:1034B8003830012B04464FF0020025D0012384F850
:1034C800383084F839000C2A18D8DFE802F00717DA
:1034D80017171E1717172F17171740002068FFF721
:1034E800C1FC236809699A6942F008029A619A69DD
:1034F80022F004029A619A690A439A610123002022
:1035080084F8393084F8380038BD2068FFF79EFF0A
:10351800236809699A6942F400629A619A6922F4F7
:1035280080629A619A6942EA0122E6E72068FFF719
:10353800C5FC23680969DA6942F00802DA61DA69C8
:1035480022F00402DA61DA690A43DA61D6E7206810
:10355800FFF7E4FC23680969DA6942F40062DA617A
:10356800DA6922F48062DA61DA6942EA0122ECE778
:10357800036A10B501248C4023EA04030362036A3A
:103588008A401A43026210BD10B504460122006841
:10359800FFF7EEFF2368084A934203D002F58062E2
:1035A800934203D15A6C42F400425A641A6842F0BA
:1035B80001021A60002010BD0000014090F8383068
:1035C800012B10B54FF0020318D080F8393003688A
:1035D8000C685A68496822F070025A605A68224397
:1035E8005A609A6822F080029A609A680A439A6040
:1035F800012380F83930002380F83830184610BD90
:1036080090F83830012B1FD0CB688A6823F44073B8
:1036180013434A6823F4806313430A6823F400635E
:1036280013430A6923F4805313434A6923F400536C
:1036380013438A6923F44043134302685364002305
:1036480080F8383018467047022070477047704736
:103658000368DA6822F49072DA605A6922F001028B
:103668005A61012380F83D30704700002DE9F84386
:103678000546002800F08C8090F83D3003F0FF02EA
:103688001BB980F83C2002F0A9FF2E68E9690223E3
:1036980085F83D30F36823F00C03F360AB693269B9
:1036A8000B43296A43F400630B43E96822F47C5214
:1036B8000B43134333612969AB68F2680B436969AB
:1036C80022F4164243F4004322F00C020B43134346
:1036D800F360736923F4407373612F4B9E4203D0E8
:1036E80003F580639E423BD1FFF7ACFB6F6819245A
:1036F80004FB00F37F004FF06408B3FBF7F3B3FB60
:10370800F8F31F01FFF79EFB6B6860435B00B0FB9B
:10371800F3F9FFF797FB6B6860435B00B0FBF3F3CB
:10372800B3FBF8F308FB13931B013233B3FBF8F335
:1037380003F00F033B43B3602B681A6922F48042FD
:103748001A615A6922F02A025A61DA6842F4005270
:10375800DA6000200123286485F83D30BDE8F8834D
:10376800FFF760FB6F68192404FB00F37F004FF03C
:103778006408B3FBF7F3B3FBF8F31F01FFF752FB41
:103788006B6860435B00B0FBF3F9FFF74BFBC2E7E4
:103798000120BDE8F88300BF001001407047704762
:1037A80090F83D30222B10B546D183680169026834
:1037B800B3F5805FC36A2AD121BB5168C1F3080100
:1037C80023F8021BC362438E013B9BB2438613B1AD
:1037D80040F2FF135360448EA4B28CB90368DA68D0
:1037E80022F02002DA60DA6822F48072DA605A691C
:1037F80022F001025A61012380F83D30FFF7CFFF24
:10380800002010BD5168C9B223F8011BDAE769B975
:10381800591C5268C1621A70438E013B9BB24386A1
:10382800002BD8D00368FF225A60D4E75268591C8D
:10383800C16202F07F02EEE7022010BD704790F8E7
:103848003D30322B10B565D1438D9BB2E3B1026890
:103858001368190618D58368B3F5805F436A44D1A5
:103868001988C1F308015160016900293BD102336D
:103878004362438D013B9BB24385438D9BB21BB989
:10388800D36823F08003D360438E9BB2A3B1026850
:1038980013689B0610D583680169B3F5805FC36A16
:1038A8002CD1526831BBC2F3080223F8022BC36241
:1038B800438E013B9BB24386448EA4B28CB9036805
:1038C800DA6822F02002DA60DA6822F48072DA60BC
:1038D8005A6922F001025A61012380F83D30FFF74E
:1038E800ADFF002010BD0133C2E7591C41621B78AF
:1038F8005360BEE7D2B223F8012BD8E721B9591C8F
:103908005268C1621A70D3E75268591CC16202F04A
:103918007F02F7E7022010BD7047000003681A68AD
:10392800D96870B5160704465D6910D196066AD540
:103938008D0668D590F83D30222B03D1BDE8704044
:10394800FFF72EBF2046BDE87040FFF778BF15F09F
:10395800010502D111F4907F55D0D30705D5CE05C6
:1039680042BF236C43F001032364500704D51DB103
:10397800236C43F002032364930704D51DB1236C21
:1039880043F004032364160704D51DB1236C43F0E8
:1039980008032364236C002B75D0950608D5880688
:1039A80006D594F83D30222B204621D1FFF7F8FEAA
:1039B80023685D69226C1107204602D415F0400582
:1039C8001DD0FFF745FE23685A69520613D55A6978
:1039D800A06B22F040025A6168B12B4B0365FDF7DA
:1039E80075FD00284FD0A06BBDE87040036D1847E7
:1039F800FFF725FFDCE72046FFF78EFF70BDFFF7D6
:103A08008BFF256470BD16062BD50D0629D594F8B5
:103A18003D20122A96D194F83D20122A33D1A2686B
:103A2800B2F5805F626A17D11188C1F30801596045
:103A3800216979B902326262628D013A92B2628575
:103A48000ABBDA6822F08002DA60DA6842F04002E3
:103A5800DA6070BD0132EEE7511C616212785A607B
:103A6800EAE750060FD54A060DD5DA6822F040027B
:103A7800DA605A6922F001025A61012384F83D3064
:103A88002046FFF78BFE70BD953A000808B5806B9D
:103A9800002343864385FFF73FFF08BD13B5012286
:103AA800044600920023044801F088FD0323C4F86B
:103AB800843002B010BD00BFB80100202DE9F04FDE
:103AC8002DED048B91ED009AD1ED018A91ED028ADA
:103AD8008FB0B0EE490A824601F0F6FE10EE100AE9
:103AE800FCF7D2FCB0EE680A06460F4601F0ECFE81
:103AF80010EE100AFCF7C8FCB0EE480A804689466A
:103B080001F0E2FE10EE100AFCF7BEFCB0EE490A26
:103B1800CDE9060101F0A6FE10EE100AFCF7B4FC90
:103B2800B0EE680ACDE9020101F09CFE10EE100A21
:103B380010EE10BAFCF7A8FCB0EE480ACDE9040173
:103B480001F090FE10EE100AFCF79EFCDDE906235A
:103B580004460D4630463946FCF7EAFC09F10043B5
:103B6800CDE908010193DDE90601DDE90223CDF87D
:103B78000080FCF7DDFCDDE90423CDE90A01DDE97D
:103B88000201FCF7D5FC22462B46FCF7D1FC024685
:103B98000B46DDE90801FCF717FBFCF779FFDDE9C7
:103BA8000023CAF80000DDE90201FCF7C1FCFCF7BC
:103BB8006FFF2246CAF804002B4630463946FCF708
:103BC800B7FCDDE90A23CDE90C01DDE90401FCF7C6
:103BD800AFFC02460B46DDE90C01FCF7F7FAFCF7EF
:103BE80057FFDDE90423CAF8080039463046FCF7D8
:103BF8009FFC22462B46FCF79BFCDDE90A23FCF7D9
:103C0800E5FAFCF745FF42464B46CAF80C00394630
:103C18003046FCF78DFCFCF73BFF2246CAF8100043
:103C28002B46DDE90201FCF783FCDDE908230646A3
:103C38000F46DDE90401FCF77BFC02460B463046E3
:103C48003946FCF7C1FAFCF723FFDDE90023CAF87F
:103C5800140029462046FCF76BFCFCF719FFDDE948
:103C68000623CAF81800CAF81CB040464946FCF7B3
:103C78005FFCFCF70DFFCAF8200050460FB0BDEC02
:103C8800048BBDE8F08FD1F88830C0F88830D1F8BF
:103C98008C30C0F88C30D1F89030C0F89030D1F822
:103CA8009430C0F8943070472DE9D04F044692B054
:103CB80010EE100ACDED001A8DED021ACDED040AB2
:103CC800FCF7E2FBDDED040A064610EE900A0F460B
:103CD800FCF7DAFB9DED021A804611EE100A8946C0
:103CE800FCF7D2FBDDED001A824611EE900A8B46F6
:103CF800FCF7CAFB3246CDE900013B46304639465F
:103D0800FCF716FC4246CDE902014B4630463946DF
:103D1800FCF70EFC5246CDE904015B4630463946B5
:103D2800FCF706FCDDE90023CDE9060130463946FB
:103D3800FCF7FEFB5246CDE908015B464046494682
:103D4800FCF7F6FBDDE9002306460F4640464946E8
:103D5800FCF7EEFBDDE90023CDE90A0150465946A0
:103D6800FCF7E6FB4246CDE90C014B464046494686
:103D7800FCF7DEFBDDE90223FCF728FA02460B46D6
:103D8800FCF724FA0022414BFCF71EFAFCF780FEF0
:103D9800324620603B46DDE90801FCF717FA024687
:103DA8000B46FCF713FAFCF773FEDDE906236060A7
:103DB800DDE90A01FCF708FA02460B46FCF706FAA9
:103DC800FCF766FE3946A060DDE908233046FCF7BB
:103DD800FBF902460B46FCF7F9F9FCF759FE524687
:103DE800E0605B4650465946FCF7A2FBDDE902233A
:103DF800FCF7ECF902460B46FCF7E8F90022234BE6
:103E0800FCF7E2F9FCF744FEDDE90C232061DDE96B
:103E18000401FCF7DBF902460B46FCF7D7F9FCF77F
:103E280037FEDDE90A236061DDE90601FCF7CEF91A
:103E380002460B46FCF7CAF9FCF72AFEDDE9042323
:103E4800A061DDE90C01FCF7BFF902460B46FCF75F
:103E5800BDF9FCF71DFEDDE90023E06119461046B7
:103E6800FCF766FBDDE90223FCF7B0F902460B46D6
:103E7800FCF7ACF90022054BFCF7A6F9FCF708FEA5
:103E88002062204612B0BDE8D08F00BF0000F03F8E
:103E980030B591ED220AD1ED230A91ED241AD1ED26
:103EA800251A80ED260A8BB0C0ED270A80ED281A66
:103EB800C0ED291A04466D466846FFF7F5FE0FCD9A
:103EC80060340FC40FCD0FC42B6823600BB030BD16
:103ED800F0B5D0F88430032B8BB004460D4634D0AF
:103EE800042B30D12A4801F005F829462046FFF76F
:103EF800CAFE6E4694ED220AD4ED230A94ED241AE4
:103F0800D4ED251A6846FFF7CFFE0FCE04F1180549
:103F18000FC50FCE0FC533682B60214668466D4626
:103F2800FFF7CCFD0FCD04F13C070FC70FCD0FC72E
:103F380033683B6010211748FDF774FC012802D153
:103F48000323C4F884300BB0F0BD114800F0D2FF51
:103F580029462046FFF79CFF6D4694ED260AD4EDCE
:103F6800270A94ED281AD4ED291A6846FFF79CFE13
:103F78000FCD04F160060FC60FCD0FC62B68336056
:103F880004210448FDF74EFC0128DCD10423D8E7BE
:103F9800B801002000100240F0EE007A80ED000A1F
:103FA800C0ED010A70EE200A91EE670A00238361D2
:103FB80070EE810A80ED021AC0ED030A80ED040A52
:103FC80080ED051AC361704710EE102A0C4BF6EE0F
:103FD800007AA3EB620360EE277A00EE103AF7EE60
:103FE800086A27EE807AB0EE666AA0EE476A26EE87
:103FF800000A67EE807AE0EE676A26EE800A70476C
:10400800DF59375F2DE9F04F2DED108B10EE100AB8
:104018008BB0F0EE618AB0EE428AB0EE629A8DED16
:10402800041ACDED020AFCF72FFADDED020ADFF8DB
:1040380064A3DFF864B3CDE9000110EE900AFCF741
:1040480023FA9DED041ACDE9020111EE100AFCF7DE
:104058001BFADAE90045CA4BDBE90067CDE9040140
:10406800D3E900892046DDE9002305F10041FCF78A
:104078005FFA324604460D463B46DDE90201FCF78D
:1040880057FA02460B4620462946FCF79DF8424659
:1040980004460D464B46DDE90401FCF749FA0246A1
:1040A8000B4620462946FCF78FF80022B54BB64C44
:1040B800FCF73EFAFCF7ECFCB149D4E90023DBE954
:1040C800008991ED007B0CEE100ADDE900018DED11
:1040D800067BFCF72DFA424606460F464B46DDE9BD
:1040E8000401FCF725FA02460B4630463946FCF730
:1040F8006DF8DDE9062306460F46DDE90201FCF707
:1041080017FA02460B4630463946FCF75DF800229E
:104118009C4BFCF70DFAFCF7BBFC9949D4E900234A
:10412800DAE9008991ED007B0BEE900ADDE90201E6
:104138008DED067BFCF7FCF9424606460F464B46DA
:10414800DDE90401FCF7F4F902460B46304639462E
:10415800FCF73AF8DDE9062306460F46DDE90001DB
:10416800FCF7E6F902460B4630463946FCF72EF8CE
:104178000022844BFCF7DCF9FCF78AFCD4E9002325
:104188000BEE100ADDE90401FCF7D2F9DAE900893F
:1041980006460F4642464B46DDE90201FCF7C8F9E0
:1041A80002460B4630463946FCF710F8DBE9004575
:1041B800064622462B460F46DDE90001FCF7B8F912
:1041C80002460B4630463946FBF7FEFF00226D4B90
:1041D8006B4DFCF7ADF9FCF75BFCF5EE408AF1EEB0
:1041E80010FA0AEE900AD0465C460AD1B5EE408A2B
:1041F800F1EE10FA05D1B5EE409AF1EE10FA00F0A2
:10420800F28128EE080A604EA8EEA80AB1EE00EA8C
:10421800A9EE090AFFF7D8FED6E900231046194689
:1042280068EE808A28EE008A29EE009AFBF7CEFF16
:10423800FCF72EFCD8E900230FEE100A19461046A9
:10424800FBF7C4FFFCF724FCD4E9002300901946CF
:104258001046FBF7BBFFFCF71BFCD5E900230290D7
:1042680019461046FBF7B2FFFCF712FC0022474B39
:104278000490D6E90001FCF75BF9FCF709FC002281
:104288000DEE900A414BD8E90001FCF751F9FCF713
:10429800FFFB00220DEE100A3C4BD4E90001FCF7AD
:1042A80047F9FCF7F5FB00220CEE900A384BD8E9E9
:1042B8000001FCF73DF9FCF7EBFB00220FEE900A3A
:1042C800334BD4E90001FCF733F9FCF7E1FBD6E9FD
:1042D80000AB0690D6E90067D8E90001D8E90023C9
:1042E800FCF726F9FCF7D4FB0AEE100AD4E9000122
:1042F800D4E90023FCF71CF9FCF7CAFB09EE900A85
:10430800D5E90001D5E90023FCF712F9FCF7C0FB59
:10431800DDED027A9DED007A68EEA77A3246EDEE81
:10432800A97A3B4659460EEE900AEDEE8A7A504637
:10433800E8EE477AF0EE67DAFCF7FAF8FCF7A8FB44
:1043480007EE900A67EE8E7A17EE900AFCF79CF853
:10435800DDED047A67EEE86A0646EDEE2E6A0F4652
:10436800D8E900AB16EE900AFCF78EF85246804664
:1043780089465B4630463946FCF7DAF80EE000BF5E
:10438800B80000200000E03F1000002000001040AE
:1043980000002040A8000020B000002002460B4684
:1043A80040464946FBF712FF68EE0F7A804617EE43
:1043B800900A8946FCF768F802460B46404649468B
:1043C800FBF702FF80461DEE100A8946FCF75CF8F1
:1043D80002460B4640464946FBF7F6FE6FEE8A7AE0
:1043E800804617EE900A8946FCF74EF802460B46BF
:1043F80040464946FBF7EAFE6FEEA97A804617EE7B
:10440800900A8946FCF740F802460B464046494662
:10441800FBF7DCFE69EE0D7A804617EE900A8946B6
:10442800FCF732F802460B4640464946FBF7CEFEFB
:10443800FCF72EFBD4E900230DEE100A394630466E
:10444800FCF776F868EE8F7A064617EE900A0F4664
:10445800FCF71AF802460B4630463946FBF7B6FE1B
:104468006CEEAE7A064617EE900A0F46FCF70CF88B
:1044780002460B4630463946FBF7A8FEDDED047AC6
:1044880068EE277A064617EE900A0F46FBF7FCFF00
:1044980002460B4630463946FBF796FE06461CEEAA
:1044A800900A0F46FBF7F0FF02460B4630463946A6
:1044B800FBF78AFEDDED067A67EE8A7A064617EE86
:1044C800900A0F46FBF7E0FF02460B463046394696
:1044D800FBF77CFEDDED067A67EEA97A064617EE55
:1044E800900A0F46FBF7D0FF02460B463046394686
:1044F800FBF76CFE69EE2C7A064617EE900A0F461B
:10450800FBF7C2FF02460B4630463946FBF75EFE14
:10451800FCF7BEFAD5E900896AEE0E7A09EE100AB0
:1045280017EE900AFBF7B0FF42464B46FCF700F83F
:10453800DDED007A68EEA77A044617EE900AD5E911
:1045480000670D46FBF7A0FF02460B4620462946AA
:10455800FBF73AFE69EE8E7A044617EE900A0D468E
:10456800FBF792FF32463B46FBF7E2FF02460B465B
:1045780020462946FBF72AFEDDED027A68EE277A07
:10458800044617EE900A0D46FBF77EFF0B460246DF
:1045980029462046FBF718FEFCF77AFA2DEE0D0A9D
:1045A80005EE900AADEEAD0AA9EE090AA5EEA50A38
:1045B800FFF70AFD654B60EE6D7A93ED007A20EE09
:1045C8004DDAA7EE87CAD3ED007A20EE499AEDEED0
:1045D80027BAD3ED007A20EE650AA9EE27BAD3ED03
:1045E800007AE0EE27AA5A4E5A4F9FED5B8AD6E929
:1045F80000456CEE087A17EE900AFBF745FF224655
:104608002B46FBF7E3FDC6E90001544D544CD5E9B0
:1046180000896BEE887A17EE900AFBF735FF424661
:104628004B46FBF7D3FDC5E900016BEE087AD4E9E8
:10463800008917EE900AFBF727FF42464B46FBF727
:10464800C5FDC4E90001D7E900896AEE887A17EE4A
:10465800900AFBF719FF42464B46FBF7B7FDC7E93F
:104668000001D6E90001D6E9002395ED007BD5E9E4
:1046780000AB8DED007B94ED007B8DED027B94ED1E
:10468800007B8DED047B97ED007B8DED067B97ED30
:10469800007B8DED087BFBF74BFF52468046894631
:1046A8005B46DDE90001FBF743FF02460B46404647
:1046B8004946FBF78BFDDDE9042380468946DDE9A1
:1046C8000201FBF735FF02460B4640464946FBF719
:1046D8007DFDDDE9082380468946DDE90601FBF713
:1046E80027FF02460B4640464946FBF76FFDFCF79D
:1046F800CFF900EE100AFFF767FC10EE100AFBF77F
:10470800C3FED6E9002380468946FBF711FFC6E9B8
:1047180000014046D5E900234946FBF709FFC5E9F2
:1047280000014046D4E900234946FBF701FFC4E9EC
:104738000001D7E9002340464946FBF7F9FEC7E9DF
:1047480000010BB0BDEC108BBDE8F08F0800002015
:1047580010000020B80000206F12033BA8000020C2
:10476800B0000020DFED236A90ED0E7ADFED227AAB
:10477800D0ED091A90ED0A2A27EE267A10B587EEB1
:10478800270A044690ED0F7A27EE267A2DED108B36
:10479800C7EE270A8CB090ED107AD0ED1DAA90EDE7
:1047A8000BFA90ED1CAA90ED1ECAD0ED229A90ED5E
:1047B800239A90ED248AD0ED258A27EE267AF5EE05
:1047C80040AAF1EE10FA87EE271A17D1B5EE40AAE3
:1047D800F1EE10FA12D1B5EE40CAF1EE10FA0DD191
:1047E800F0EE4F2A0CB0BDEC108BBDE81040FFF77F
:1047F80009BC00BFDA0F49400000344368EE60DAB4
:1048080021EE08DA69EE41CA20EE89BAE9EE40DA0B
:10481800A0EE29DAE0EEA9CAA1EE29BAE1EE68DA3B
:10482800A0EEE8DAE0EE28CAA0EE48BAF5EE401AA3
:10483800F6EE007AF1EE10FA6DEEA7DA2DEE27DA31
:104848006CEEA7CA2BEE27BA0AD1B5EE402AF1EED4
:1048580010FA05D1B5EE40FAF1EE10FA00F07181C8
:1048680022EE020A8DED0B2AA1EEA10ACDED0A1A5D
:10487800AFEE0F0AFFF7A8FB8DED090A2AEE0A0A28
:10488800AAEEAA0AACEE0C0AFFF79EFB39EEA9EADB
:104898002AEE00AA6AEE802A6AEE0E7A29EEA93A72
:1048A80067EEE85A2CEE00CAE2EE835A6CEE0E4A26
:1048B80069EE09FAE8EE245A79EE09EAE2EEAF5A0F
:1048C8002AEE2E0A22EE8E1AE8EE005A2CEE2E0A56
:1048D80068EE08BAE8EE805A2AEE030A62EEAE3AAB
:1048E800A8EE810AF1EE620AA9EE640AE0EEAB5A7C
:1048F800F0EE404AE8EE234A28EEA86A78EE08AAC5
:10490800E0EE865AF1EE4A0AE0EEAF4A2CEE2A0AA9
:10491800EAEE2B4A69EE896AE8EE804A29EE285ABF
:10492800E0EE864ACDED086A64EEA44A8DED075A9A
:10493800E5EEA54ACDED067A14EE900ACDED052AEE
:104948008DED043A8DED031ACDED023A8DED006A36
:10495800FBF79AFD41EC100B01F024FF51EC100B12
:10496800FCF796F8DDED067A9DED031A9DED043A05
:10497800DDED023A9DED075ADDED086A9DED097AF5
:104988009DED006ADDED0A1A9DED0B2ADDED052A85
:1049980069EE277AF1EE4C4AE1EE487AB0EE450A24
:1049A800ECEE037A35EE055AE8EEA37A6AEE2A3A77
:1049B800E4EEAF7AA8EE4E5AE8EEA37AB6EE001A05
:1049C800E4EEAB7A76EEA64AECEE067AE8EEAA4A70
:1049D800A1EEC75A71EE6B1A31EE6F1AE2EE474A32
:1049E800F1EE690AB0EE402A31EE6B1AA9EE880A98
:1049F800A0EE882A05EE900A21EE271A22EE272A31
:104A0800A5EE801A31EEC66AE8EE286A69EE081A41
:104A1800A5EE862A31EE4C0AE0EEA81A2EEEA4CABC
:104A280066EEA76AAAEEC5CA32EE626A29EE272A9E
:104A380028EE273AE5EEA16AF1EE652AB0EE424A81
:104A4800A8EEA24AA3EE46CA76EECA6AB0EE001AEB
:104A5800A4EE26CAB7EE004AAFEEC14AF1EE00FA5C
:104A6800ABEEC14A6EEE24BAAFEE474A38EEA87AEA
:104A78002FEEC91AE7EE05BA28EEA7FAE1EE04BA56
:104A880068EE251AE6EE0FBAA1EE80CA27EE24AA30
:104A9800E9EEA71A35EEA51A77EEA73AAEEE45AAC3
:104AA800B1EE411AE6EEA1BA28EE017A63EEC91A10
:104AB8006AEEA4AA68EE2FFAE8EEA51AA0EEA77A85
:104AC800A4EE6FAAEEEE85AAA8EE812AE0EE21BA3E
:104AD800A6EE07AA69EE251AE6EE02AAA9EEA23A00
:104AE8003FEE21FA63EEC83AA6EE8FAAE9EEA53AA0
:104AF800E6EE83AAA0EE23AAE0EE21AA2BEEAB0AEB
:104B0800ACEE0C0AAAEE0A0AAAEEAA0AFFF75CFAA9
:104B1800574B20EE4CCAD3ED007A60EE6BBAECEE40
:104B280027DAD3ED007A20EE4AAAABEEA7DAD3ED66
:104B3800007A20EE6A0AEAEE27CAD3ED007AA0EEE0
:104B480027BADFED4C7AADEE279AEDEEA79A29EE5B
:104B5800090AACEEA78AA9EEA90AEBEE278AA8EE05
:104B6800080AA8EEA80AFFF72FFA29EE009A69EEBC
:104B7800809A29EE09AA28EE008AF0EE4A7AE9EE30
:104B8800A97AF1EE48BAEBEE887A68EE808A84ED6D
:104B9800248AE8EEE87AC4ED229A84ED239AC4EDDB
:104BA800258A17EE900AFBF76FFC69EEA87ACDE923
:104BB8000001E9EE087A77EEA77A17EE900AFBF77C
:104BC80063FC9DED001B41EC100B01F0E9FD51EC7D
:104BD800100BFBF75DFF68EE697A0AEE900AE9EEC2
:104BE800287A77EEA77A17EE900AFBF74DFC41EC8E
:104BF800100B01F07DFD99EEA9AA51EC100BABEE5C
:104C080088AAFBF745FFA8EEA8AA28EE288A07EE8F
:104C1800900AA9EE898A1AEE100AB1EE67BAFBF774
:104C280033FC78EE087ACDE9000117EE900AFBF71D
:104C38002BFC9DED001B41EC100B01F0B1FD51EC7C
:104C4800100BFBF725FFDFED0C7A07EE100A2BEEB1
:104C580027BA27EE277A6AEEA7AA84ED267A84ED8A
:104C680027BAC4ED28AA0CB0BDEC108B10BD00BF4C
:104C7800080000206F12033BE22E65421FB54FF477
:104C88007A7402949DF818408DE818000123FDF706
:104C98000BF804B010BD1FB504AB802203F8012D3A
:104CA80001220092D0216B22FFF7E8FF0A20FCF7CF
:104CB80017F905B05DF804FB1FB54FF47A74029438
:104CC8009DF818408DE818000123FDF783F804B01B
:104CD80010BD1FB506230C460093432202ABD0211A
:104CE800FFF7EAFF9DF808309DF80910D4ED016A36
:104CF8009DF80B2094ED117A9DF80C0041EA0321F0
:104D080009B207EE901A9DF80A302186F8EEE77A84
:104D180042EA032297EEA67A12B29DF80D30628617
:104D280007EE902A84ED0E7AF8EEE77A94ED127A7F
:104D380043EA002396EEA77A1BB2A38607EE903AC1
:104D480084ED0F7AF8EEE77A94ED137A96EEA77A67
:104D580084ED107A04B010BD1FB506230C460093ED
:104D68003B2202ABD021FFF7A7FF9DF808309DF842
:104D78000910D4ED026A9DF80B2094ED067A9DF88F
:104D88000C0041EA032109B207EE901A9DF80A3097
:104D98002182F8EEE77A42EA032297EEA67A12B267
:104DA8009DF80D30628207EE902A84ED097AF8EEBC
:104DB800E77A94ED077A43EA002396EEA77A1BB2C6
:104DC800A38207EE903A84ED0A7AF8EEE77A94ED3A
:104DD800087A96EEA77A84ED0B7A04B010BD30B548
:104DE80087B00123009302220DF10F030C4618210E
:104DF8000546FFF761FF9DF80F30DA0723D5072333
:104E08000093032204AB18212846FFF755FF9DF8AD
:104E180016301B0717D49DF811209DF8103043EA6F
:104E28000223A4F850309DF813209DF8123043EA6D
:104E38000223A4F852309DF815209DF8143043EA57
:104E48000223A4F85430D4F8A83094ED036AD4EDC2
:104E5800165AD4ED174A94ED185A012BB4F950306C
:104E680006EE903AB4F95230F8EEE66A07EE103AD8
:104E780066EE866AB4F9543066EEA56A07EE903A93
:104E880027D1D4ED1F5A94ED194AB8EEC77AD6EE59
:104E9800845A27EE067AC4ED1C5A27EE247AD4EDFC
:104EA800206AD4ED1A5AF8EEE77AD7EE256A67EE4B
:104EB800867AC4ED1D6A67EE857A94ED217AD4ED81
:104EC8001B6A97EEA67AF0EE477AC4ED1E7A07B011
:104ED80030BDB8EEC77AF8EEE77A27EE067A67EEC5
:104EE800867A27EE247AC4ED1C6A84ED1D7A67EE73
:104EF800857AEAE738B50C460546FFF7EAFE21460B
:104F08002846FFF729FF28462146FFF768FF204675
:104F1800BDE83840FFF726BC2DE9F74F4E4D47F660
:104F2800FF7802460C464FF4FA7BC146C2462E462D
:104F38002F46104621460192FFF751FFB4F9500061
:104F4800B4F95210B4F954308742B8BF07468E42BC
:104F5800B8BF0E469D42B8BF1D468245A8BF8246CF
:104F68000BF1FF3B8945A8BF89460C2098451FFADD
:104F78008BFBA8BF9846FBF7B3FF019ABBF1000F64
:104F8800D7D102220AEB070393FBF2F307EE103A9C
:104F9800D4ED036AD4ED167AB8EEC77A09EB0603A6
:104FA80027EE267A93FBF2F327EE277AD4ED177AC9
:104FB80084ED1F7A07EE103AB8EEC77A08EB0503BE
:104FC80027EE267A93FBF2F327EE277A07EE903A3C
:104FD800F8EEE77A84ED207A67EEA67A94ED187AEF
:104FE800A7EB0A0767EE877A97FBF2F7A6EB0906A5
:104FF80096FBF2F6BB19A5EB080595FBF2F52B44D9
:10500800C4ED217A07EE903AF8EEE77AF0EE086AF6
:1050180087EEA67A114B07EE907AF8EEE77A83EDE1
:10502800007AC7EE276A0123C4F8A83007EE906A11
:10503800F8EEE77AC4ED196AC7EE276A07EE905AC8
:10504800F8EEE77AC4ED1A6AC7EE276AC4ED1B6A60
:1050580003B0BDE8F08F00BF0180FFFFC40000204F
:105068002DE9F04F8BB00AAE012705468A46FFF7B7
:1050780012FE06F80D7D6B2233460097D021284694
:105088000024FFF7FBFD334600976C22D021284609
:105098008DF81B40FFF7F2FD334600973822D021E8
:1050A80028468DF81B40FFF7E9FD33460097232279
:1050B800D02128468DF81B40FFF7E0FD33460097C6
:1050C8006B22D02128468DF81B40FFF7D7FD3346C9
:1050D80000972422D02128468DF81B40FFF7CEFDEB
:1050E800334600976A22D02128464FF00C0B8DF8E2
:1050F8001B40FFF7C3FD33466A22D021009728469C
:105108008DF81BB0FFF7BAFD0A20FBF7E9FE33461E
:1051180000971A22D02128468DF81B70FFF7AEFDA4
:10512800334600971922D02128468DF81B40FFF7F7
:10513800A5FD334600971B22D02128468DF81B4039
:10514800FFF79CFD334600971C22D02128468DF896
:105158001B40FFF793FD40238DF81B300097334623
:105168006A22D0212846FFF789FD78232322D021FF
:105178008DF81B30009733462846FFF77FFD28201F
:10518800FBF7AEFE334600972322D02128468DF840
:105198001B400DF11C09FFF771FD022300937222D9
:1051A8004B46D0212846FFF787FD9DF81C309DF817
:1051B8001D6002942746A04605940494039446EA89
:1051C8000326B6FBFBF6A3B29E427DD8029B93FB57
:1051D800F6F1039B93FBF6F207EE902A98FBF6F89C
:1051E8009FED5A7A049B93FBF6F3F8EEE77A05985D
:1051F80097FBF6F7C7EE876A90FBF6F60029CCBF57
:10520800A1F5804401F58044042192FBF1F040426D
:105218004FEA202E8DF81D0093FBF1F096FBF1F17B
:105228004042494207EE903AF8EEE77ACAED116A31
:10523800C7EE876A8DF81CE08DF81F004FEA202E14
:1052480008128DF820008DF821104B462846772249
:10525800D0218DF81EE007EE906AF8EEE77ACAEDE5
:10526800126AC7EE876A02260096CAED136AFFF72C
:1052780023FD4B46284600967A22D021FFF71CFDD5
:1052880000964B467D22D0212846FFF715FD07EEF4
:10529800908A9FED2F7AF8EEE77A67EE877ACAED63
:1052A800067A07EE907AF8EEE77A67EE877ACAED23
:1052B800077A07EE904AF8EEE77A67EE877ACAED42
:1052C800087A0BB0BDE8F08F4B467422CDF800B0D9
:1052D800D0212846FFF7F0FC9DF81C209DF81D30D2
:1052E80043EA022308FA83F89DF81E209DF81F3030
:1052F80043EA022307FA83F79DF820209DF821301E
:1053080043EA0223029A02FA83F302939DF82220C9
:105318009DF8233043EA0223039A02FA83F30393A6
:105328009DF824209DF8253043EA0223049A02FAC6
:1053380083F304939DF826209DF8273043EA02233F
:10534800059A02FA83F3059301343CE7000003430E
:10535800000080382DE9FF4104AC4FF0000804F844
:10536800058D01270E4623460A2218210097054677
:10537800FFF784FC0A20FBF7B3FD0F238DF80B30F1
:105388000A222346182128460097FFF777FC0A20AF
:10539800FBF7A6FD03230093284603AB1022182130
:1053A800FFF78AFC9DF80C30DFED246A0097803BFC
:1053B80007EE903A9DF80D308DF80B80B8EEE77A3D
:1053C800F7EE007AB0EE676AA7EE266A803B0A22FB
:1053D80007EE103A9DF80E3086ED166AB8EEC77AD9
:1053E800B0EE676A803BA7EE266A1821284607EECA
:1053F800103AB8EEC77A86ED176AE7EE267A2346A2
:10540800C6ED187AFFF73AFC0A20FBF769FDB37876
:1054180000971B0143F006030A228DF80B30182170
:1054280023462846FFF72AFC0A20FBF759FD314698
:105438002846FFF771FD04B0BDE8F0810000803B0D
:10544800F0B585B004AE002306F8013D01250C46F1
:1054580033466B22D02100950746FFF70FFC6420E6
:10546800FBF73EFD33466B22D021384600958DF878
:105478000F50FFF703FC03238DF80F301A22334631
:10548800D02138460095FFF7F9FB33461922D02181
:10549800384600958DF80F50FFF7F0FB33461B2276
:1054A800D02138460095FFF707FC9DF80F30627849
:1054B800009523F01A0343EAC2038DF80F301B222C
:1054C8003346D0213846FFF7D9FB33461C22D0217A
:1054D80038460095FFF7F0FB9DF80F3022780095CD
:1054E80023F0180343EAC2038DF80F301C22334619
:1054F800D0213846FFF7C2FB33461D22D02138465B
:105508000095FFF7D9FB9DF80F30009523F00F03A6
:1055180043F003038DF80F301D223346D02138465F
:10552800FFF7ACFB22238DF80F3037223346D0210A
:1055380038460095FFF7A2FB334600953822D02164
:1055480038468DF80F50FFF799FB2378032B06D8C0
:10555800DFE803F0020C0F124FF06253A360637888
:10556800032B0ED8DFE803F00B1315174FF0645325
:10557800F4E74FF06653F1E74FF06853EEE7094B55
:105588006360A3784BB1012B0AD005B0F0BD064B80
:10559800F6E7064BF4E7064BF2E7064BE360F4E761
:1055A800054BFBE70000FA3B00007A3C0000FA3CA0
:1055B80000007A3DFFEBBF40FFEBBF3F30B50C4624
:1055C80085B063709DF82030A3704FF07E53C4F807
:1055D800883000230021C4F88C30C4F89030C4F817
:1055E80094300123C4F8A8102270009375220DF19D
:1055F8000F03D0210546FFF75FFB9DF80F30712B95
:1056080012D121462846FFF746FB21462846FFF7D8
:1056180027FD1420FBF764FC21462846FFF710FFFE
:1056280021462846FFF796FE05B030BD1FB5144841
:10563800144B154A03608262002301224360836091
:10564800036183610362C362C360C2610363426131
:10565800FBF75AFC18B16C210C4800F06DFC0221D4
:10566800012200238DE80E0005486946FBF788FDF6
:1056780018B17621054800F05FFC05B05DF804FB21
:10568800C8000020002101400100000F3873000805
:1056980010B50368194A934288B01ED1184B0024EC
:1056A80001945A6C42F480725A645B6C03F4807300
:1056B8000193019B1123039303A903231148049326
:1056C8000594FBF7CFFF122022462146FBF702FE86
:1056D8001220FBF733FE08B010BD0B4A9342FAD1F3
:1056E800074B002402945A6C42F400725A645B6CB3
:1056F80003F400730293029B0423DCE700200140BB
:105708000038024000000240002101400000000073
:1057180038B510EE100A2DED048BFAF7B5FE4FA33D
:10572800D3E90023FAF704FF00224B4BFAF74CFDAC
:10573800FBF7AEF908EE100A68EE087A17EE900A41
:1057480028EE279AFAF7A0FE35A3D3E90023FAF743
:10575800EFFE35A3D3E90023FAF738FD68EE099A7E
:10576800044619EE900A0D46FAF78EFE30A3D3E9E7
:105778000023FAF7DDFE68EE298A02460B4620462A
:105788002946FAF723FD68EE287A044617EE900AB0
:105798000D46FAF779FE28A3D3E90023FAF7C8FEE5
:1057A80002460B4620462946FAF710FDFBF770F92A
:1057B80009EE900A18EE100AFAF766FE20A3D3E95C
:1057C8000023FAF7B5FE044619EE100A0D46FAF75B
:1057D8005BFE1DA3D3E90023FAF7AAFE02460B4697
:1057E80020462946FAF7F2FC044618EE900A0D46C0
:1057F800FAF74AFE16A3D3E90023FAF799FE024600
:105808000B4620462946FAF7E1FCFBF741F907EE7B
:10581800900A39EEE70ABDEC048B38BDAFF300807F
:10582800E2EDCC8246EAEBBFB84B7F669EA0E63F2E
:105838007B1275BEB8F1C63F2D0C215D8C3A8DBF29
:105848006D06863E4EC5F1BF0B707921B531DD3F3F
:105858006844A62E279AABBF0000E03F9669C116A0
:105868006CC1863F9FED147AB4EEC70AF1EE10FAC8
:1058780008B5F0EE407A08DD9FED100A30EE670AB1
:10588800FFF746FFB1EE400A08BD9FED0D7AB4EE72
:10589800C70AF1EE10FA02DD30EE470AF0E7DFED55
:1058A800096AB4EEE60AF1EE10FAC8BF37EE400A0C
:1058B800BDE80840FFF72CBF000087430000B44351
:1058C800000034430000B442DFED147AB4EEE70A76
:1058D800F1EE10FA08B505DD30EE670ABDE80840BC
:1058E800FFF716BF9FED0E7AB4EEC70AF1EE10FA75
:1058F80006DD37EEC00AFFF70BFFB1EE400A08BD20
:10590800DFED087AB4EEE70AF1EE10FA02DD30EEC8
:10591800670AF0E737EEC00AE0E700BF00008743F8
:10592800000034430000B44213B5174B002401941F
:105938001A6B42F400121A631B6B03F4001322461D
:10594800214601930B20019BFBF7C4FC0B20FBF7BE
:10595800F5FC224621460D20FBF7BCFC0D20FBF789
:10596800EDFC224621461120FBF7B4FC1120FBF781
:10597800E5FC224621462F20FBF7ACFC2F20FBF745
:10598800DDFC02B010BD00BF003802402DE9F04335
:105998008DB00024454B01941A6B454EDFF81891E1
:1059A800DFF81881434F42F010021A631A6B02F0B5
:1059B80010020192019A02941A6B42F004021A63CF
:1059C8001A6B02F004020292029A03941A6B42F0D4
:1059D80080021A631A6B02F080020392039A0494FD
:1059E8001A6B42F001021A631A6B02F00102049268
:1059F800049A05941A6B42F002021A631A6B02F0B9
:105A080002020592059A06941A6B42F008021A637C
:105A18001B6B03F008030693224630462A21069B97
:105A2800FBF706FF224648464FF40051FBF700FFFC
:105A3800224640464FF4A061FBF7FAFE224638465C
:105A48003F21FBF7F5FE552307A9304601250793AB
:105A580008940994FBF706FE2A2307A93046079302
:105A6800089509940A94FBF7FDFD4FF4005307A924
:105A780048460793089509940A94FBF7F3FD4FF4F9
:105A8800A06307A940460793089509940A94FBF771
:105A9800E9FD3F2307A938460793089509940A9416
:105AA800FBF7E0FD0DB0BDE8F08300BF0038024011
:105AB80000100240000C02400008024000000240B2
:105AC80008B50D480D4BDFF83CE04FF4804280E804
