:020000040800F2
:100000000000022035500008614A0008634A0008D9
:10001000654A0008674A0008694A000800000000B5
:100020000000000000000000000000006B4A000813
:100030006D4A0008000000006F4A0008714A00087D
:10004000855000088550000885500008855000083C
:10005000855000088550000885500008855000082C
:10006000855000088550000885500008814A000826
:10007000855000088D4A000885500008855000080A
:1000800085500008994A0008A54A000885500008D4
:1000900085500008855000088550000885500008EC
:1000A00085500008C14A00088550000885500008A6
:1000B000855000088550000885500008DD4A00087A
:1000C000E94A0008F54A0008014B0008855000087D
:1000D0008550000885500008855000080D4B000829
:1000E000855000088550000885500008855000089C
:1000F000855000088550000885500008194B0008FD
:10010000855000088550000885500008855000087B
:10011000855000088550000885500008855000086B
:10012000855000088550000885500008855000085B
:10013000855000088550000885500008855000084B
:10014000855000088550000885500008855000083B
:10015000855000088550000885500008855000082B
:10016000855000088550000885500008855000081B
:1001700085500008855000088550000800000000E8
:080180008550000885500008BD
:1001880010B5054C237833B9044B13B10448AFF3C9
:1001980000800123237010BD7800002000000000BB
:1001A8003C5C000808B5034B1BB103490348AFF397
:1001B800008008BD000000007C0000203C5C0008B6
:1001C80081F0004102E000BF83F0004330B54FEA00
:1001D80041044FEA430594EA050F08BF90EA020F6D
:1001E8001FBF54EA000C55EA020C7FEA645C7FEA00
:1001F800655C00F0E2804FEA5454D4EB5555B8BF23
:100208006D420CDD2C4480EA020281EA030382EA93
:10021800000083EA010180EA020281EA0303362D25
:1002280088BF30BD11F0004F4FEA01314FF4801CF8
:100238004CEA113102D0404261EB410113F0004F0A
:100248004FEA03334CEA133302D0524263EB4303C1
:1002580094EA050F00F0A780A4F10104D5F1200E5F
:100268000DDB02FA0EFC22FA05F2801841F10001BA
:1002780003FA0EF2801843FA05F359410EE0A5F18E
:1002880020050EF1200E012A03FA0EFC28BF4CF0BF
:10029800020C43FA05F3C01851EBE37101F0004575
:1002A80007D54FF0000EDCF1000C7EEB00006EEB82
:1002B8000101B1F5801F1BD3B1F5001F0CD349080C
:1002C8005FEA30004FEA3C0C04F101044FEA445263
:1002D80012F5800F80F09A80BCF1004F08BF5FEAEA
:1002E800500C50F1000041EB045141EA050130BDCA
:1002F8005FEA4C0C404141EB010111F4801FA4F16D
:100308000104E9D191F0000F04BF01460020B1FAC1
:1003180081F308BF2033A3F10B03B3F120020CDAF9
:100328000C3208DD02F1140CC2F10C0201FA0CF0D7
:1003380021FA02F10CE002F11402D8BFC2F1200C3C
:1003480001FA02F120FA0CFCDCBF41EA0C019040F2
:10035800E41AA2BF01EB0451294330BD6FEA04043B
:100368001F3C1CDA0C340EDC04F11404C4F1200226
:1003780020FA04F001FA02F340EA030021FA04F338
:1003880045EA030130BDC4F10C04C4F1200220FA8F
:1003980002F001FA04F340EA0300294630BD21FACD
:1003A80004F0294630BD94F0000F83F4801306BF93
:1003B80081F480110134013D4EE77FEA645C18BF87
:1003C8007FEA655C29D094EA050F08BF90EA020F1E
:1003D80005D054EA000C04BF1946104630BD91EA16
:1003E800030F1EBF0021002030BD5FEA545C05D119
:1003F8004000494128BF41F0004130BD14F5800458
:100408003CBF01F5801130BD01F0004545F0FE41CB
:1004180041F470014FF0000030BD7FEA645C1ABF00
:10042800194610467FEA655C1CBF0B46024650EA37
:10043800013406BF52EA033591EA030F41F4002163
:1004480030BD00BF90F0000F04BF0021704730B5E9
:100458004FF4806404F132044FF000054FF00001BE
:1004680050E700BF90F0000F04BF0021704730B57F
:100478004FF4806404F1320410F0004548BF404254
:100488004FF000013EE700BF42004FEAE2014FEAA9
:1004980031014FEA02701FBF12F07F4393F07F4F84
:1004A80081F06051704792F0000F14BF93F07F4FB6
:1004B800704730B54FF4607401F0004521F00041F9
:1004C80020E700BF50EA010208BF704730B54FF07F
:1004D80000050AE050EA010208BF704730B511F084
:1004E800004502D5404261EB41014FF4806404F1BC
:1004F80032045FEA915C3FF4DCAE4FF003025FEA3E
:10050800DC0C18BF03325FEADC0C18BF033202EBC5
:10051800DC02C2F1200300FA03FC20FA02F001FA1F
:1005280003FE40EA0E0021FA02F11444C1E600BFBE
:1005380070B54FF0FF0C4CF4E06C1CEA11541DBF71
:100548001CEA135594EA0C0F95EA0C0F00F0DEF83C
:100558002C4481EA030621EA4C5123EA4C5350EA21
:10056800013518BF52EA033541F4801143F4801372
:1005780038D0A0FB02CE4FF00005E1FB02E506F003
:100588000042E0FB03E54FF00006E1FB03569CF058
:10059800000F18BF4EF0010EA4F1FF04B6F5007F5E
:1005A80064F5407404D25FEA4E0E6D4146EB0606D0
:1005B80042EAC62141EA55514FEAC52040EA5E5059
:1005C8004FEACE2EB4F1FD0C88BFBCF5E06F1ED803
:1005D800BEF1004F08BF5FEA500E50F1000041EB3A
:1005E800045170BD06F0004646EA010140EA0200E7
:1005F80081EA0301B4EB5C04C2BFD4EB0C0541EA09
:10060800045170BD41F480114FF0000E013C00F31D
:10061800AB8014F1360FDEBF002001F0004170BD41
:10062800C4F10004203C35DA0C341BDC04F114045A
:10063800C4F1200500FA05F320FA04F001FA05F2E6
:1006480040EA020001F0004221F0004110EBD370B3
:1006580021FA04F642EB06015EEA430E08BF20EADF
:10066800D37070BDC4F10C04C4F1200500FA04F382
:1006780020FA05F001FA04F240EA020001F0004114
:1006880010EBD37041F100015EEA430E08BF20EA87
:10069800D37070BDC4F1200500FA05F24EEA020ECF
:1006A80020FA04F301FA05F243EA020321FA04F0FE
:1006B80001F0004121FA04F220EA020000EBD370B5
:1006C8005EEA430E08BF20EAD37070BD94F0000FB5
:1006D8000FD101F00046400041EB010111F4801FE9
:1006E80008BF013CF7D041EA060195F0000F18BF9A
:1006F800704703F00046520043EB030313F4801FD6
:1007080008BF013DF7D043EA0603704794EA0C0F8F
:100718000CEA135518BF95EA0C0F0CD050EA4106A5
:1007280018BF52EA4306D1D181EA030101F0004122
:100738004FF0000070BD50EA410606BF104619464A
:1007480052EA430619D094EA0C0F02D150EA013656
:1007580013D195EA0C0F05D152EA03361CBF104697
:1007680019460AD181EA030101F0004141F0FE4136
:1007780041F470014FF0000070BD41F0FE4141F4BA
:10078800780170BD70B54FF0FF0C4CF4E06C1CEABA
:1007980011541DBF1CEA135594EA0C0F95EA0C0F6F
:1007A80000F0A7F8A4EB050481EA030E52EA03352A
:1007B8004FEA013100F088804FEA03334FF080554B
:1007C80045EA131343EA12634FEA022245EA111578
:1007D80045EA10654FEA00260EF000419D4208BF29
:1007E800964244F1FD0404F5407402D25B084FEAD6
:1007F8003202B61A65EB03055B084FEA32024FF482
:1008080080104FF4002CB6EB020E75EB030E22BFDE
:10081800B61A754640EA0C005B084FEA3202B6EB9E
:10082800020E75EB030E22BFB61A754640EA5C004D
:100838005B084FEA3202B6EB020E75EB030E22BFDD
:10084800B61A754640EA9C005B084FEA3202B6EBDE
:10085800020E75EB030E22BFB61A754640EADC009D
:1008680055EA060E18D04FEA051545EA16754FEAFF
:1008780006164FEAC30343EA52734FEAC2025FEA1D
:100888001C1CC0D111F4801F0BD141EA00014FF0AC
:1008980000004FF0004CB6E711F4801F04BF01437D
:1008A8000020B4F1FD0C88BFBCF5E06F3FF6AFAE99
:1008B800B5EB030C04BFB6EB020C5FEA500C50F129
:1008C800000041EB045170BD0EF0004E4EEA1131AC
:1008D80014EB5C04C2BFD4EB0C0541EA045170BDB3
:1008E80041F480114FF0000E013C90E645EA060EF7
:1008F8008DE60CEA135594EA0C0F08BF95EA0C0F25
:100908003FF43BAF94EA0C0F0AD150EA01347FF46C
:1009180034AF95EA0C0F7FF425AF104619462CE743
:1009280095EA0C0F06D152EA03353FF4FDAE1046A6
:10093800194622E750EA410618BF52EA43067FF4F7
:10094800C5AE50EA41047FF40DAF52EA43057FF487
:10095800EBAE12E74FF0FF3C06E000BF4FF0010C92
:1009680002E000BF4FF0010C4DF804CD4FEA410CF6
:100978007FEA6C5C4FEA430C18BF7FEA6C5C1BD0C3
:1009880001B050EA410C0CBF52EA430C91EA030F44
:1009980002BF90EA020F0020704710F1000F91EAA1
:1009A800030F58BF994208BF90422CBFD8176FEA6F
:1009B800E37040F0010070474FEA410C7FEA6C5C3D
:1009C80002D150EA013C07D14FEA430C7FEA6C5C44
:1009D800D6D152EA033CD3D05DF8040B704700BF70
:1009E8008446104662468C461946634600E000BFBE
:1009F80001B5FFF7B7FF002848BF10F1000F01BD90
:100A08004DF808EDFFF7F4FF0CBF012000205DF85A
:100A180008FB00BF4DF808EDFFF7EAFF34BF0120DF
:100A280000205DF808FB00BF4DF808EDFFF7E0FF78
:100A380094BF012000205DF808FB00BF4DF808EDC9
:100A4800FFF7CEFF94BF012000205DF808FB00BF30
:100A58004DF808EDFFF7C4FF34BF012000205DF812
:100A680008FB00BF4FEA410C7FEA6C5C02D150EAF8
:100A7800013C0AD14FEA430C7FEA6C5C02D152EA8E
:100A8800033C02D14FF0000070474FF0010070475F
:100A98004FEA4102B2F1E04324BFB3F5001CDCF198
:100AA800FE5C0DD901F0004C4FEAC0024CEA5070D0
:100AB800B2F1004F40EB830008BF20F001007047FF
:100AC80011F0804F21D113F13872BCBF01F0004002
:100AD800704741F480114FEA5252C2F11802C2F134
:100AE800200C10FA0CF320FA02F018BF40F00100B5
:100AF8004FEAC1234FEAD32303FA0CFC40EA0C0067
:100B080023FA02F34FEA4303CCE77FEA625307D1A3
:100B180050EA01331EBF4FF0FE4040F440007047DA
:100B280001F0004040F0FE4040F40000704700BF74
:100B380053B94AB9002908BF00281CBF4FF0FF313C
:100B48004FF0FF3000F07AB9ADF1080C6DE904CE32
:100B580000F006F8DDF804E0DDE9022304B0704790
:100B68002DE9F0478C460D460446089E002B51D1CE
:100B78008A4217466DD9B2FA82FEBEF1000F0BD039
:100B8800CEF1200C01FA0EF520FA0CFC02FA0EF751
:100B98004CEA050C00FA0EF44FEA174A250CBCFB88
:100BA800FAF81FFA87F90AFB18CC45EA0C4508FB46
:100BB80009F3AB420AD9ED1908F1FF3280F023811D
:100BC800AB4240F22081A8F102083D44ED1AA4B2DC
:100BD800B5FBFAF00AFB105544EA054400FB09F995
:100BE800A14509D9E41900F1FF3380F00A81A14534
:100BF80040F2078102383C44A4EB090440EA08406B
:100C08000021002E61D024FA0EF4002334607360B2
:100C1800BDE8F0878B4207D9002E54D0002186E822
:100C280021000846BDE8F087B3FA83F1002940F0B7
:100C38008E80AB4202D3824200F2FA80841A65EBBE
:100C480003050120AC46002E3FD086E81010BDE811
:100C5800F08712B90127B7FBF2F7B7FA87FEBEF1A2
:100C6800000F34D1EB1B3A0C1FFA87FC0121B3FBB0
:100C7800F2F8250C02FB183345EA03450CFB08F390
:100C8800AB4207D9ED1908F1FF3002D2AB4200F2AE
:100C9800D1808046ED1AA3B2B5FBF2F002FB1055E5
:100CA80043EA05440CFB00FCA44507D9E41900F10C
:100CB800FF3302D2A44500F2B8801846A4EB0C0416
:100CC80040EA08409DE731463046BDE8F087CEF15E
:100CD800200405FA0EF307FA0EF720FA04F83A0C86
:100CE80025FA04F448EA0308B4FBF2F14FEA184580
:100CF80002FB11441FFA87FC45EA044501FB0CF38B
:100D0800AB4200FA0EF409D9ED1901F1FF3080F079
:100D18008A80AB4240F2878002393D44EB1A1FFAC1
:100D280088F5B3FBF2F002FB103345EA034500FBFC
:100D38000CF3AB4207D9ED1900F1FF386FD2AB4283
:100D48006DD902383D44EB1A40EA01418FE7C1F101
:100D5800200722FA07F88B4005FA01F448EA030352
:100D680020FA07FE4FEA134CFD404EEA040EB5FB8D
:100D7800FCF94FEA1E440CFB19551FFA83F844EAA4
:100D8800054509FB08F4AC4202FA01F200FA01FA3F
:100D980008D9ED1809F1FF3043D2AC4241D9A9F185
:100DA80002091D442D1B1FFA8EFEB5FBFCF00CFB3F
:100DB80010554EEA054400FB08F8A04507D9E41889
:100DC80000F1FF3529D2A04527D902381C4440EA52
:100DD8000940A4EB0804A0FB02894C45C6464D46D1
:100DE80015D312D056B1BAEB0E0364EB050404FA1E
:100DF80007F7CB401F43CC40376074600021BDE843
:100E0800F0871846F8E69046E0E6C245EAD2B8EB25
:100E1800020E69EB03050138E4E72846D7E74046A8
:100E280091E78146BEE7014678E702383C4445E74A
:100E3800084608E7A8F102083D442BE7704700BFC1
:100E480038B50E4A0E4B054618784FF47A73B3FB43
:100E5800F0F31068B0FBF3F000F07CFA044658B9E0
:100E68000F2D09D8024629464FF0FF3000F032FA1C
:100E7800044B20461D6038BD012038BD0C00002001
:100E8800000000200400002008B50B4B1A6842F44B
:100E980000721A601A6842F480621A601A6842F492
:100EA80080721A60032000F003FA0020FFF7C8FFE1
:100EB80003F08AFD002008BD003C0240034A044BB1
:100EC80011681B780B441360704700BF9C0000201A
:100ED80000000020014B1868704700BF9C000020EC
:100EE80038B50446FFF7F6FF631C1CBF054B1B789B
:100EF800054618BFE418FFF7EDFF401B8442FAD8F7
:100F080038BD00BF0000002010B50446002800F0DE
:100F18009980036C23B9436480F83C3003F018FAD5
:100F2800236CDB0600F18C80236C23F4885323F0B8
:100F3800020343F002032364434B5A6822F440320D
:100F48005A605A6861680A435A60236821695A6876
:100F580022F480725A605A6842EA01225A605A683A
:100F6800A16822F040725A605A680A435A609A6827
:100F7800E16822F400629A609A680A439A603349E9
:100F8800A26A8A4250D0996821F070619960996884
:100F98000A439A609A68E16A22F040529A609A6815
:100FA8000A439A609A68A16922F002029A609A68D4
:100FB80042EA41029A60226A002A3DD05A68616A70
:100FC80042F400625A605A6822F460425A605A68D1
:100FD800013942EA41325A60DA6AE16922F4700260
:100FE800DA62DA6A013942EA0152DA629A68216BF6
:100FF80022F400729A609A6842EA41229A609A68DA
:10100800616922F480629A609A68002042EA81222B
:101018009A606064236C23F0030343F001032364A4
:10102800002384F83C3010BD9A6822F070629A6000
:101038009A6822F04052B4E75A6822F40062CAE77C
:101048000120EDE7012010BD002301400100000F41
:1010580070477047704738B5036819685A688D0734
:1010680004462BD5900629D5226CD1065EBF226C8A
:1010780042F4007222649A6812F0405F17D1A269A4
:10108800AAB9DA6A12F4700F02D09A6852050ED41F
:101098005A6822F020025A60236C23F48073236478
:1010A800236CDB045EBF236C43F0010323642046FA
:1010B800FFF7CEFF23686FF012021A6023681968E1
:1010C8005A684D0732D5100630D5226CD1065EBF5E
:1010D800226C42F4005222649A6812F4401F1ED116
:1010E8009A6B12F4401F02D09A68520517D45A68B6
:1010F800550514D49A6812F0405F10D1A26972B9EC
:101108005A6822F080025A60236C23F480532364C7
:10111800236CD8055EBF236C43F00103236420468B
:1011280000F0C4F823686FF00C021A60236819688D
:101138005A68C9070FD555060DD51B68D8070AD5B3
:10114800236C43F4803323642046FFF782FF23682F
:101158006FF001021A60236819685A6889060DD56C
:1011680052010BD5626C6FF0200542F002026264F6
:1011780020461D60FFF76EFF23681D6038BD000024
:10118800F7B50023019390F83C30012B00F08380E1
:101198000D6804688A680123092D80F83C30AEB2D6
:1011A8002AD906EB4603E7681E3B4FF0070E0EFAF6
:1011B80003FE27EA0E07E760E76802FA03F33B43FA
:1011C800E3604A68062A4FEA820325D81344676B0E
:1011D800591F1F238B4027EA03036363626B06FAD8
:1011E80001F1114361632D4B9C4234D0002380F8F8
:1011F8003C30184603B0F0BD276905EB45034FF0B6
:10120800070E0EFA03FE27EA0E072761276902FA7E
:1012180003F33B432361D4E70C2A0ED81344216B14
:10122800A3F123021F23934021EA03032363236BC3
:1012380006FA02F21A432263D5E71344E16A413BF6
:101248001F229A4021EA0202E262E26A06FA03F1E8
:101258001143E162C7E7122D04D1114A536843F4E0
:1012680080035360A5F11003012BBFD80C4A5368C3
:10127800102D43F400035360B8D10A4B0A4A1B6887
:10128800B3FBF2F20A2353430193019B002BADD029
:10129800019B013BF8E70220ACE700BF00200140BA
:1012A800002301400C00002040420F00704700005E
:1012B800074AD36823F4E0631B041B0C43F0BF63A5
:1012C800000243F4003300F4E0600343D360704746
:1012D80000ED00E0174B30B5DC68C4F30224C4F11C
:1012E8000703251D042B28BF0423062D4FF00105F5
:1012F80005FA03F303F1FF338CBF033C00241940C4
:10130800A14005FA04F4013C2240002842EA010207
:101318004FEA0212AFBF00F1604000F00F00064B29
:10132800D2B2A5BF00F56140D2B21A5480F80023AA
:1013380030BD00BF00ED00E014ED00E042090123DC
:1013480000F01F0003FA00F0014B43F82200704739
:1013580000E100E00138B0F1807F0AD2064B074A6D
:101368005860F02182F823100020072298601A6044
:1013780070470120704700BF10E000E000ED00E07A
:10138800044B1A6804280CBF42F0040222F004023D
:101398001A60704710E000E0704708B5FFF7FCFFDF
:1013A80008BD00000368DAB223F47F7323F0030357
:1013B8001821103AB2FBF1F20449032A88BF04331A
:1013C800895C8365C165806D704700BF585C000803
:1013D80070B50446FFF77EFD0546002C71D000234A
:1013E80084F834302268022384F83530136823F0F7
:1013F8000103136021680B68D8073CD40B68324D91
:101408006268A0691D40A3681343E2681343226918
:10141800134362691343E26903431343226A134384
:10142800626A042A43EA050301BF266BE56A35436D
:101438002B430B604B69042A23F0070343EA02039A
:101448000BD1A26AE56A13433DB1F8B9012A2DD040
:1014580001D3022A01D1EA012BD44B612046FFF7C0
:10146800A1FFE26D3F239340836000200123606564
:1014780084F8353070BDFFF72DFD401B0528B9D91C
:1014880020236365032084F8350070BDB0F5005F44
:1014980013D1032AE1D801A050F822F0BB140008A8
:1014A8005F140008BB140008B5140008B5F1C07F2C
:1014B800D3D1402363650120E5E7022AF9D9032A3D
:1014C800C8E7012070BD00BF3F8010F090F83530AC
:1014D800022B03D08023436501207047026805234F
:1014E80080F83530136823F001031360002070473B
:1014F800F7B5002301935A4B856D1F68C36D2E689D
:1015080008229A40164204460CD001680868400731
:1015180008D5086820F004000860AA60626D42F0EF
:101528000102626501229A40164208D02168496981
:10153800090641BFAA60626D42F002026265042298
:101548009A40164208D021680968880741BFAA60F6
:10155800626D42F00402626510229A40164210D071
:101568002368196809070CD5AA601A68500335D58D
:101578001B68190301D4236C00E0A36C0BB120464F
:101588009847E16D20228A40164238D023681868AF
:10159800C60634D5AA6094F83520052A1A6825D1DC
:1015A80022F016021A605A6922F080025A61226CEF
:1015B8000AB9A26C1AB11A6822F008021A603F230D
:1015C8008B40AB60002384F83430012384F8353035
:1015D800236D0BB12046984703B0F0BD1A68D205B9
:1015E8005EBF1A6822F008021A60C4E7500328D5C3
:1015F8001B68190332D4636C0BB120469847636D9E
:10160800002BE9D0636DDA0719D50523226884F821
:101618003530136823F0010313604FF41653B7FBFA
:10162800F3F7019B01339F42019302D31368DB0751
:10163800F7D4002384F83430012384F83530E36C80
:10164800C7E71A6812F4807208D1196821F01001EE
:101658001960012384F8342084F83530E36BCBE734
:101668000C0000202DE9F04F85B00B68DFF8AC8145
:10167800684ADFF8AC91019300234FF0010E019CFA
:101688000EFA03FE0EEA0406B64540F0AE804C683A
:1016980024F01007022F16D14FEAD30A00EB8A0A6A
:1016A80003F0070BDAF820504FEA8B0B4FF00F0CC2
:1016B8000CFA0BFC25EA0C0C0D6905FA0BF545EA4A
:1016C8000C05CAF820504FEA430A0325D0F800B0A9
:1016D80005FA0AF5ED4304F0030C0BEA050B0CFAC6
:1016E8000AFC013F4CEA0B0C012FC0F800C011D8CE
:1016F800876807EA050BCF6807FA0AFC4CEA0B076C
:101708008760476827EA0E0EC4F300179F4047EA30
:101718000E074760C7683D408F6807FA0AF73D43E0
:10172800C560E50061D54FF0000BCDF80CB0D8F8D6
:101738004470394D47F48047C8F84470D8F844706D
:1017480007F480470397039F23F0030707F18047B7
:1017580007F59C3703F0030CD7F808A04FEA8C0C68
:101768004FF00F0E0EFA0CFEA8422AEA0E0E43D0D6
:1017780005F58065A84241D005F58065A8423FD0AF
:1017880005F58065A8423DD005F58065A8423BD0A7
:1017980048453BD005F50065A84239D005F5806578
:1017A800A84214BF0825072505FA0CF545EA0E05D9
:1017B800BD601568F74314F4803F0CBF3D403543C6
:1017C8001560556814F4003F0CBF3D403543556023
:1017D800956814F4801F0CBF3D4035439560D5686B
:1017E800A40254BF3D403543D5600133102B7FF42C
:1017F80044AF05B0BDE8F08F5D46D5E70125D3E7D6
:101808000225D1E70325CFE70425CDE70525CBE75A
:101818000625C9E7003C01400000024000380240AC
:10182800001402400AB1816170470904FBE70268AD
:10183800536913F480630DD06FF4806353610423FC
:10184800036420220023036380F83C3080F83D20A5
:1018580001207047184670472DE9F843044617469B
:101868009946C1F307488EB22568B8F1010F0CBF3D
:101878006B69AB6936EA030314BF0120002008B97D
:10188800BDE8F8836B695A0512D52B6843F40073D9
:101898002B606FF480636B61042323642022002390
:1018A800236384F83C3084F83D200120BDE8F883A8
:1018B8007B1CD9D04FB900232022236384F83C3005
:1018C80084F83D200320BDE8F883FFF703FBA0EB75
:1018D80009008742C8D2EEE72DE9F843089E04467E
:1018E80090461F46C1F307498DB22368B9F1010F2D
:1018F8000CBF5B699B6935EA03030CBF0123002316
:10190800434502D00020BDE8F8837B1CEDD05FB9C9
:1019180000232022236384F83C3084F83D200320F0
:1019280084F83E30BDE8F883FFF7D4FA801B87427D
:10193800DBD2EDE770B504460D46164623685B69B1
:101948001B0601D5002070BD2046FFF770FFA8B91F
:101958006A1CF3D065B9236C43F02003236420226A
:101968000023236384F83C3084F83D20032070BDB5
:10197800FFF7B0FA801B8542E0D2ECE7012070BD8A
:101988002DE9FF41154602680B9E9846136843F4FB
:10199800807313600F4600960A9B00224FF00111D6
:1019A8000446FFF799FF68B923680A9A1C4907F0AB
:1019B800FE071F6120463346FFF74EFF30B1236C08
:1019C800042B18D0032004B0BDE8F08123680390ED
:1019D8005A6903929B69039332460A99039B2046EE
:1019E800FFF7A8FF48B1236C042BEBD122681368DA
:1019F80043F4007313600120E5E7B8F1010F236891
:101A080002D1EDB21D61DEE72A0A1A610A9932464F
:101A18002046FFF78FFF0028E5D12368F1E700BFD4
:101A2800020001002DE9FF41984603680B9D164608
:101A38001A6842F480621A601A6842F480721A6066
:101A48000F4600950A9B00224FF001110446FFF74C
:101A580043FF80B923682F49FFB207F0FE021A61DD
:101A680020462B460A9AFFF7F7FE40B1236C042B59
:101A780001D1012000E0032004B0BDE8F081236813
:101A880003905A6903929B6903932A460A99039B18
:101A98002046FFF74FFF40B1236C042BEBD122689F
:101AA800136843F400731360E3E7B8F1010F236888
:101AB80024D1F6B21E612A460A992046FFF73AFF5A
:101AC80002460028E8D121680B6843F480730B6054
:101AD800204600950A9B4FF00111FFF7FDFE0028F4
:101AE800C9D123680A9A0B4947F001071F612046AC
:101AF8002B46FFF7B1FE0028B8D1BDE7320A1A61BC
:101B08000A992A462046FFF715FF0028C4D1236802
:101B1800CFE700BF0200010070B504460D46164627
:101B28002068436913F0400301D0002070BD42696A
:101B3800D2060BD56FF0100242612022236484F88C
:101B48003C302363012084F83D2070BD5DB9236CCF
:101B580043F020032364202384F83D30002384F8D5
:101B68003C30032070BDFFF7B5F9801B8542D7D202
:101B7800EDE770B504460D46164623685B695B07BA
:101B880001D5002070BD2046FFF751FEA8B96A1C98
:101B9800F3D065B9236C43F020032364202200238B
:101BA800236384F83C3084F83D20032070BDFFF7A0
:101BB80091F9801B8542E0D2ECE7012070BD00005E
:101BC80070B50446002862D090F83D3003F0FF025B
:101BD8001BB980F83C2002F00DFD22682D4E2E4DD9
:101BE800242384F83D30136823F00103136001F0C7
:101BF800C1F963682268B0FBF5F5B34284BF4FF4BE
:101C080096716943556091BF691C4FF47A75B1FBB1
:101C1800F5F10131B342116221D85B00B0FBF3F05A
:101C2800C0F30B03032B98BF0420216AE369D0613A
:101C38000B431360E16823690B439360A1696369EF
:101C48000B43D360136843F0010313600020202383
:101C5800206484F83D30206384F83E0070BDA1689C
:101C680049B903EB4303B0FBF3F0C0F30B0363B1D3
:101C780040F40040D9E719214B43B0FBF3F0C0F31F
:101C88000B0313B140F44040CFE70120CDE701201A
:101C980070BD00BFA086010040420F002DE9F34748
:101CA80004469A46884691460C9EFFF713F994F825
:101CB8003D30202B054603D0022002B0BDE8F08756
:101CC8000090192301223E492046FFF705FE00280F
:101CD800F2D194F83C30012BEED0012384F83C304B
:101CE80023681A68D2075EBF1A6842F001021A60B8
:101CF8001A6822F400621A60212384F83D304023D8
:101D080084F83E300A9B63620027BDF82C302764B4
:101D180063852C4BE362638D2385019500965346BA
:101D28004A4641462046FFF72BFE00282AD0236C5E
:101D380084F83C70042B07D10120BEE7FFF7FAFDB9
:101D480020B1236C042B34D00320B6E7616A2768DE
:101D5800228D4B1C63620B783B61638D013B9BB208
:101D680063857B69501E80B25B0720850AD548B120
:101D78008B1C63624B783B61638D013B023A9BB2DB
:101D880022856385238D2A4631462046002BD5D1EE
:101D9800FFF7EFFE0028D4D12268136843F40073DC
:101DA8001360202384F83D3084F83C0084F83E001A
:101DB80083E72268136843F400731360BCE700BF2D
:101DC800020010000000FFFF2DE9F047044686B02E
:101DD8009A460D469146109FFFF77CF894F83D30DF
:101DE800202B064604D00225284606B0BDE8F08719
:101DF80000901923012279492046FFF76DFD00283C
:101E0800F1D194F83C30012BEDD0012384F83C301B
:101E180023681A68D2075EBF1A6842F001021A6086
:101E28001A6822F400621A60222384F83D304023A5
:101E380084F83E300E9B63624FF00008BDF83C30DA
:101E4800C4F840806385664BE362638D2385294629
:101E58000196009753464A462046FFF7E3FD05469C
:101E680030B1236C84F83C80042B3AD10125BBE7C0
:101E7800228D236892B902905A6902929A69029255
:101E8800029A1A6842F400721A60202384F83D30DE
:101E9800002384F83E3084F83C30A5E7012A22D19B
:101EA8001A6822F480621A6003905A6903929A6948
:101EB8000392039A1A6842F400721A60DFF82481C8
:101EC800238D002BE1D0032B6BD8012B23D1324675
:101ED80039462046FFF720FE002839D0236C202BF6
:101EE800C4D1032580E7022A0ED11A6822F4806241
:101EF8001A601A6842F400621A6004905A690492DF
:101F08009B690493049BD9E705905A6905929B69DC
:101F18000593059BD2E7022B00963B464FF0000243
:101F28004146204622D1FFF7D7FC0028D9D12368A3
:101F38001A6842F400721A60626A1B69511C616275
:101F48001370238D013B2385638D013B9BB2638511
:101F5800636A5A1C6262226812691A70238D013BF7
:101F68002385638D013B9BB26385A9E7FFF7B4FC2A
:101F780002460028B5D12368196821F480611960E8
:101F8800616A1B69481C60620B70238D0096013BD7
:101F98002385638D013B9BB2638541463B462046C2
:101FA800C1E7324639462046FFF7B6FD002895D1ED
:101FB800636A5A1C6262226812691A70238D226849
:101FC800013B2385638D013B9BB2638553695B07A6
:101FD8007FF576AF636A591C6162BDE702001000A5
:101FE8000000FFFF040001002DE9F04F044685B012
:101FF800984689469246FEF76DFF94F83D30202BAF
:10200800064603D0022005B0BDE8F08F00901923E2
:1020180001224A492046FFF75FFC0028F2D194F8D4
:102028003C30012BEED0012384F83C302368DFF8E4
:102038000CB11A68D2075EBF1A6842F001021A6032
:102048001A6822F400621A60242384F83D300025BF
:102058003B4B256409F0FE09E3622268136843F4E8
:10206800807313604FF0011100964346002220460A
:10207800FFF732FC08B10320C5E72368C3F81090C6
:10208800FEF728FF236859695A6994F83D300646D7
:10209800C1F34001C2F38022DBB2A02711B90AB90B
:1020A800A02B20D12368202784F83D705A6912F0AC
:1020B800020F1A6842F400721A602AD000220392B2
:1020C8005A6903929B690393039B00961923012283
:1020D8001A492046FFF700FC0028CCD184F83D704F
:1020E80084F83C008FE7B8F1000F0CD184F83D70FC
:1020F800236859695A6994F83D30C1F34001C2F325
:102108008022DBB2CAE7FEF7E5FE801B8045EDD3EF
:10211800EEE76FF480625A6159460096192301224E
:102128002046FFF7D9FB0028A5D10135AA4594D848
:1021380084F83C0084F83D70012064E70200100038
:102148000000FFFF7047704770477047704770473F
:10215800704770477047704790F83D30293B012B16
:1021680010B50368044639D800220263282280F893
:102178003D201A6822F400621A605A6812F400625C
:1021880054D05A68606B22F400625A6090F8353077
:10219800012B394B31D00365FFF798F950B122680C
:1021A800606B136823F001031360202384F83D302B
:1021B800036D984794F83D30282B0ED1236C5B07AC
:1021C8000BD52E4BE362202200232363204684F89C
:1021D8003D2084F83E30FFF7BAFF10BD90F83D204F
:1021E800602A05D05A6812055CBF202280F83D207D
:1021F8000022226384F83E20BBE7A06B0365FFF74B
:1022080065F90028D6D022685369580604D5636A50
:102218001269591C61621A702268A06B136823F056
:1022280001031360202384F83D30C1E794F83D1082
:10223800602914D1202184F83D1022645A6951067E
:1022480004D5626A1B69511C6162137022681368A5
:1022580023F0010313602046FFF77DFFAAE75A69C0
:10226800520604D5626A1B69511C616213702046CC
:10227800FFF770FF9EE700BF912A00080000FFFFEC
:102288000368F0B59D6959695A6890F83E40E4B210
:10229800102C8DB002D0402C40F0558211F0011F57
:1022A80066D0970564D590F83E40402C43D1046D24
:1022B800002C3BD1446C04F0FE041C61984E994CF0
:1022C8002E400C40002E00F09F81974D0D40002DB0
:1022D80000F06681550540F16381002C40F0608173
:1022E80090F83D20058D90F83E10C46AD2B2C9B26C
:1022F800002D40F00581212A40F00481042C00F0D3
:102308006C81082C00F0698114F5803F00F065812C
:102318005A6822F4E0625A601123036380F83E5041
:10232800202380F83D30FFF70DFFF6E0446C44F0C1
:102338000104E4B2C1E70469B4F5804F05D190F80F
:102348003D40212C446CF2D1B5E7046D34B9446C9E
:10235800E41104F0060444F0F004AEE7046D012C27
:10236800ACD1446CE41104F0060444F0F104A4E791
:102378006E4C0C401CB1960501D5446CD9E76C4CE9
:102388000C40002C9AD0940598D590F83E40C66A27
:10239800D0F830E090F83D70222FE4B240F0A880E9
:1023A800076D47B9402C06D101975C6901949C6977
:1023B8000194019C82E7046D8CB90769B7F5404F19
:1023C8000DD102945C6902949C690294029C1C6879
:1023D80044F480741C60046D013404656EE7448D18
:1023E800A4B254B903945C6903949C690394039C54
:1023F8001C6844F400741C6019E0448DA4B2012CDC
:1024080042D116F5803F1BD11C6824F480641C60FF
:102418005C6814F400640CD01C6824F480641C60AC
:10242800002404945C6904949C690494049C00242A
:10243800D3E705945C6905949C690594059CD7E7E6
:10244800042E15D0082E13D0BEF1120F10D0C46A76
:10245800022C1C6814BF24F4806444F480641C605B
:10246800002406945C6906949C690694069CDEE741
:102478001C6824F480641C60002407945C69079439
:102488009C690794079CB3E7448DA4B2022C1CD125
:10249800C46A022C1C681DBF24F480641C601C687C
:1024A80044F4806418BF44F400641C605C68270529
:1024B80042BF5C6844F480545C60002408945C6902
:1024C80008949C690894089CB1E71C6844F48064EB
:1024D8001C605C68260542BF5C6844F480545C60FC
:1024E800002409945C6909949C690994099C9EE7F5
:1024F80000240A945C690A949C690A940A9CDDE6A3
:10250800212A03D0402908D1222A06D1428D92B22D
:1025180082B95A6822F480625A600DB0F0BD00BFDB
:102528000400100004000100800001000800010000
:102538000200010090F83E20402A27D1026D7AB9A6
:10254800C26C012A826C05D1D2B21A61036D0233C2
:102558000365E2E7C2F307221A61036D0133F7E767
:10256800026D012A02D1826CD2B2F5E7026D022A0D
:10257800D3D190F83D20222A04D11A6842F48072FF
:102588001A60CAE790F83D20212AC6D1426A511C38
:10259800416212781A61438D013B9BB24385BCE7C7
:1025A800002CBAD09405B8D5C16A90F83D20212AEC
:1025B800B3D1428D92B2002AE8D104290DD008295E
:1025C8000BD011F5803F08D0596821F4E0615960BB
:1025D8001123036380F83E20A2E65A6822F4E062E1
:1025E8005A601A6842F400721A60002320220363BA
:1025F80080F83D2090F83E2080F83E30402A7FF455
:1026080092AEFFF7A5FD88E7904D0D40002D41D013
:1026180051053FD5002C3DD190F83D20222A7FF46A
:102628007CAF428D92B2032A13D9426A1B69511CAE
:1026380041621370438D013B9BB24385438D9BB22E
:10264800032B7FF46AAF0268536823F480635360F6
:1026580063E7012A3FF661AF1A6822F480621A60C4
:102668005A6822F4E0625A60426A1B69511C41624E
:102678001370438D013B9BB24385202380F83D3086
:10268800046390F83E3080F83E40402B58D1FFF765
:1026980060FD42E7002C3FF440AF97057FF53DAF62
:1026A800C16A428D92B2042A426A08D1596821F45B
:1026B80080615960511C1B69416213706BE7448D3E
:1026C800A4B2032C08D1596821F4806159601968B3
:1026D80021F480611960EDE7448DA4B2022CE9D1A0
:1026E8000139012919689DBF21F4806119601968B1
:1026F80041F4007198BF41F4807119601B69511C45
:1027080041621370438D013B9BB24385436A5A1C57
:102718004262026812691A70438D0268013B9BB2DB
:102728004385536823F440735360202380F83D3079
:102738000023036390F83E2080F83E30402AA5E746
:10274800FFF701FDE9E6424C0C4074B196050CD543
:1027580099699B6981F004011D06C1F3800154BF8A
:102768008289028BFFF7F2FCD7E63A4C0C40002C2A
:1027780074D0940572D590F83D20596821F4E06131
:10278800596000210B9159690B91196841F00101B9
:1027980019600B99196821F4806119605968090555
:1027A800D2B20CD590F83D10222903D090F83D10F4
:1027B8002A2929D1816B0968496889B24185418DE7
:1027C80089B2E1B159694F0708D5416A1B694C1CA8
:1027D80044620B70438D013B9BB2438501684B6992
:1027E8005E0608D5436A09695C1C44621970438D0A
:1027F800013B9BB24385036C43F004030364036C01
:1028080023B1FFF7A9FC88E6416BD4E7A2F12801C0
:1028180002290AD8104AC2622022036380F83D20A8
:1028280080F83E30FFF793FC77E6036B222B02D04B
:10283800222A7FF472AE00232022036380F83D2011
:1028480080F83E30FFF781FC67E600BF40000100DA
:1028580002000100100001000000FFFF394E3A4C51
:102868002E400C40002E36D0384D0D403DB3550556
:1028780025D524BB90F83D10428D92B2C9B2002AEA
:102888003FF44BAE426A541C446212781A61428D7E
:10289800013A92B24285428D92B2002A7FF43DAE4F
:1028A80029297FF43AAE5A6822F480625A602123BB
:1028B8000363282380F83D30FFF746FC2DE6002C03
:1028C8003FF42BAE94057FF528AE428D92B2002AD4
:1028D8007FF45CAE21E61E4D0D4035B3510524D57D
:1028E8001CBB90F83D20418D89B2D2B200293FF43B
:1028F80014AE416A1B694C1C44620B70438D013B4A
:102908009BB24385438D9BB2002B7FF406AE2A2AE7
:102918007FF403AE0268536823F480635360222374
:102928000363282380F83D308CE7002C3FF4F5AD95
:1029380092057FF5F2AD428D92B2002A3FF4EDADDB
:10294800426AB7E60400100004000100800001009C
:1029580040000100F8B50368494A5E695D6816429F
:10296800044608D0E80506D5226C42F0010222642C
:102978006FF480725A6116F4813F08D0E90506D5D4
:10298800226C42F0020222646FF400725A6116F45B
:10299800823F36D0EA0534D594F83E70618D94F8BC
:1029A8003D20206B202F89B2D2B258D1002956D1B0
:1029B80002F0F701212903D0282A50D121284ED12D
:1029C80094F83D20E16A0429D2B201D008292CD11B
:1029D800282A2AD12B4AE2625A6822F4E0625A6015
:1029E8006FF480625A611A6822F480621A600023C8
:1029F80020222363204684F83D2084F83E30FFF7E8
:102A0800A6FB16F4843F09D0EB0507D5236C43F0E9
:102A18000803236423686FF400625A61236C73B35C
:102A28002046BDE8F840FFF797BB212A23D1154976
:102A3800E1622263202284F83D20002284F83E20AF
:102A48005A6822F4E0625A606FF480625A611A6828
:102A580022F480621A602046FFF776FBD1E7226CE9
:102A680042F00402226494F83E20102A02BF1A6839
:102A780042F400721A606FF480625A61C1E7F8BDCF
:102A8800000101000000FFFF806B08B50368416B7F
:102A98001A6822F480621A60002242850A65816BF6
:102AA8000A6590F83D1060294FF0200180F83D102C
:102AB80080F83E2007D102641A6822F001021A60E9
:102AC800FFF749FB08BD1A6822F001021A60FFF7F8
:102AD80041FB08BD2DE9F341044618B9012002B0B5
:102AE800BDE8F0810368DD0710D42368980758D43F
:102AF80023681A0700F19A8023685B0700F1B88001
:102B0800A269002A40F019810020E8E7A64B9A68DC
:102B180002F00C02042A07D09A6802F00C02082A74
:102B28000AD15B68590207D59F4B1B689A03DCD50D
:102B38006368002BD9D1D1E763689B4DB3F5803F1B
:102B480011D12B6843F480332B60FEF7C3F9964DFF
:102B580006462B689B03C8D4FEF7BCF9801B642883
:102B6800F7D90320BBE7B3F5A02F04D12B6843F4B2
:102B780080232B60E5E72A6822F480322A602A68DD
:102B880022F480222A60002BDFD1FEF7A3F9064643
:102B98002B689F03A9D5FEF79DF9801B6428F7D9F8
:102BA800DFE7814B9A6812F00C0F07D09A6802F0A1
:102BB8000C02082A11D15B685E020ED47A4B1A689F
:102BC800950702D5E268012A88D11A68216922F09E
:102BD800F80242EAC1021A608AE7E268734BB2B1AE
:102BE80001221A60FEF776F96F4D06462B689807A2
:102BF80007D52B68226923F0F80343EAC2032B6048
:102C080076E7FEF767F9801B0228EFD9A9E71A6073
:102C1800FEF760F9644D06462B6899077FF568AFA3
:102C2800FEF758F9801B0228F6D99AE76269604BCB
:102C38007AB101221A60FEF74DF95B4D06466B6FBB
:102C48009F073FF559AFFEF745F9801B0228F6D9D3
:102C580087E71A60FEF73EF9534D06466B6F9807F3
:102C68007FF54AAFFEF736F9801B0228F6D978E7D8
:102C78004D4B1A6C12F0805228D101921A6C42F016
:102C880080521A641B6C03F080530193019B012648
:102C9800484D2B68D9051BD5A368434D012B27D177
:102CA8002B6F43F001032B67FEF714F93E4D0746DF
:102CB80041F288382B6F9B0739D5002E3FF420AF9F
:102CC800394A136C23F08053136419E70026DFE7B1
:102CD8002B6843F480732B60FEF7FCF807462B68DB
:102CE800DA05D9D4FEF7F6F8C01B0228F7D938E779
:102CF800052B04D12B6F43F004032B67D0E72A6F11
:102D080022F001022A672A6F22F004022A67002BA8
:102D1800CAD1FEF7DFF841F2883807462B6F9807CB
:102D2800CBD5FEF7D7F8C01B4045F7D919E7FEF712
:102D3800D1F8C01B4045BDD913E71B4DAB6803F064
:102D48000C03082B3FF4CAAE1B4E0023022A336043
:102D580034D1FEF7BFF807462B6899011ED4226AC2
:102D6800E3691343626A43EA8213E26A43EA02634D
:102D7800A26A0D4C5208013A43EA02436B600123F0
:102D88003360FEF7A7F8054623689A013FF5BCAE05
:102D9800FEF7A0F8401B0228F6D9E2E6FEF79AF8FB
:102DA800C01B0228D8D9DCE60038024000004742A0
:102DB800800E47420070004060004742FEF78AF8E4
:102DC80004462B689B017FF59FAEFEF783F8001B36
:102DD8000228F6D9C5E600BF134908B58B6803F089
:102DE8000C03042B03D0082B03D0104808BD10484F
:102DF80008BD4A684B68496813F4800314BF0C483F
:102E08000A48C1F3881118BF002302F03F02A1FB52
:102E18000001FDF78DFE044B5B68C3F301430133EA
:102E28005B00B0FBF3F008BD003802400024F4005A
:102E380000127A002DE9F0410D46044610B9012030
:102E4800BDE8F081444B1A6802F00F028A4228D389
:102E580021688F072DD4C80740D43F4B1A6802F069
:102E68000F02954266D3226851076CD4130707D521
:102E78003A4A2169936823F4604343EAC1039360A3
:102E8800FFF7AAFF354B364A9B68C3F30313D35C9D
:102E9800D840344B18600020FDF7D2FF0020BDE871
:102EA800F081CAB21A701B6803F00F039942C6D1A9
:102EB800CEE72A4B11F0040F1EBF9A6842F4E05285
:102EC8009A600E0742BF9A6842F460429A609A6814
:102ED800A06822F0F00202439A60BCE762681F4BC8
:102EE800012A1DD11B6813F4003FA8D01B4EB368FC
:102EF80023F003031343B360FDF7ECFF41F2883876
:102F08000746B368626803F00C03B3EB820FA4D0E2
:102F1800FDF7E0FFC01B4045F3D90320BDE8F08171
:102F2800911E01291B6802D813F0007FDDE713F01A
:102F3800020FDAE7EAB21A701B6803F00F039D422A
:102F48007FF47DAF8FE70549E0688B6823F4E05391
:102F580003438B608AE700BF003C02400038024010
:102F68007A5C00080C000020014B1868704700BF0D
:102F78000C000020044B054A9B68C3F38223D35CF2
:102F8800034A1068D8407047003802408A5C00083D
:102F98000C000020044B054A9B68C3F34233D35C02
:102FA800034A1068D8407047003802408A5C00081D
:102FB8000C000020036A23F001030362036A4268DD
:102FC80070B584690D6824F0730425438C6823F078
:102FD800020323430C4CA04209D004F58064A042AC
:102FE80005D042604A6885614263036270BDCC685F
:102FF8008E6923F0080323434C6922F4407234435A
:1030080023F004032243ECE700000140036A23F4A1
:1030180080730362036A426870B5C4690D6824F05E
:10302800730425438C6823F4007343EA04230E4C8D
:10303800A04209D004F58064A04205D042604A68E5
:10304800C561C263036270BDCC688E6923F40063F6
:1030580043EA04234C6922F44052344323F4806346
:1030680042EA0412EAE700BF00000140036A23F4C1
:103078008053036230B5046A4368C2690D6822F45C
:10308800E64242EA05228D6824F4005444EA0534F5
:10309800094DA84209D005F58065A84205D04360CE
:1030A8004B68C2610364046230BD4D6923F48043F8
:1030B80043EA8513F3E700BF000001400368DA68BC
:1030C80042F00102DA601A6842F001021A60002038
:1030D8007047704790F83830012B70B54FF00203F5
:1030E8001CD080F839300368012280F838209A68AB
:1030F80022F47F4222F077029A600A68402A79D047
:1031080019D8102A00F093800AD8002A00F0898084
:10311800012380F83930002380F83830184670BD14
:10312800202A00F08A80302AF2D19A6822F07002B0
:1031380042F0370236E0702A36D01BD8502A42D0E7
:10314800602AE5D11C6A4D68CE6824F010041C6220
:1031580099691A6A21F4704122F0A00242EA051224
:1031680041EA063199611A629A6822F0700242F0C7
:10317800670217E0B2F5805F11D0B2F5005FC7D1E2
:103188008A684D689C68C9682A4324F47F4442EAE7
:10319800012222439A609A6842F4804202E09A68C7
:1031A80022F007029A60B3E78A684D689C68C9688C
:1031B8002A4324F47F4442EA012222439A609A680F
:1031C80042F07702EEE74C68CE68196A1D6A25F06E
:1031D80001051D629A6921F00A0122F0F00242EA13
:1031E800061221439A6119629A6822F0700242F02D
:1031F8005702D7E74C68CE68196A1D6A25F00105A1
:103208001D629A6921F00A0122F0F00242EA0612D0
:1032180021439A6119629A6822F0700242F04702CB
:10322800C0E79A6822F0700242F00702BAE79A688B
:1032380022F0700242F01702B4E79A6822F0700296
:1032480042F02702AEE7704770477047704703683F
:103258001A69910710B504460ED5DA6892070BD59E
:103268006FF002021A619B6901229B07027677D0F0
:10327800FFF7EAFF0023237623681A69500710D561
:10328800DA6851070DD56FF004021A619B690222B2
:1032980013F4407F2276204668D0FFF7D5FF00233D
:1032A800237623681A6912070FD5DA6810070CD538
:1032B8006FF008021A61DB6904229907227620461A
:1032C8005AD0FFF7C1FF0023237623681A69D20674
:1032D80010D5DA68D0060DD56FF010021A61DB69D7
:1032E800082213F4407F227620464BD0FFF7ACFF2C
:1032F8000023237623681A69D10708D5DA68D2072C
:1033080005D56FF001021A61204601F05BFA2368C7
:103318001A69100608D5DA68110605D56FF080021B
:103328001A61204600F0A9F923681A69520608D5DF
:10333800DA68500605D56FF040021A612046FFF79B
:1033480085FF23681A69910622D5DA6892061FD587
:103358006FF0200220461A61BDE8104000F08CB9D9
:10336800FFF771FF2046FFF770FF83E7FFF76BFF5A
:103378002046FFF76AFF92E7FFF765FF2046FFF751
:1033880064FFA0E7FFF75FFF2046FFF75EFFAFE7A8
:1033980010BD00002E4A0368904212D0B0F1804F51
:1033A8000FD0A2F57C4290420BD002F58062904289
:1033B80007D002F58062904203D002F5784290422D
:1033C8001DD14A6823F070031343214A904204D167
:1033D800CA6823F44073134328E0B0F1804FF7D054
:1033E8001C4A9042F4D002F580629042F0D002F577
:1033F80080629042ECD002F578429042E8D0164ABA
:103408009042E5D002F580629042E1D002F58062F8
:103418009042DDD0A2F598329042D9D002F5806270
:103428009042D5D002F580629042D1D003608B687B
:10343800C3620B688362064B984206D003F580632B
:10344800984202D00123436170470B690363F9E78F
:1034580000000140000400400040014010B504464F
:10346800A0B190F8393003F0FF021BB980F838207A
:1034780001F098FB022384F839302068211DFFF7FA
:1034880089FF012384F83930002010BD012010BDC8
:1034980010B50446A0B190F8393003F0FF021BB90B
:1034A80080F83820FFF715FE022384F839302068A9
:1034B800211DFFF76FFF012384F83930002010BD6C
:1034C800012010BD036A23F010030362036A4268F7
:1034D80070B584690D6824F4E64444EA05258C68CF
:1034E80023F0200343EA04130D4CA04209D004F54D
:1034F8008064A04205D042604A68856182630362A5
:1035080070BDCC688E6923F0800343EA04134C69CC
:1035180022F44062344323F0400342EA8402EAE79B
:103528000000014038B590F83830012B04464FF0C0
:10353800020025D0012384F8383084F839000C2A99
:1035480018D8DFE802F0071717171E1717172F17D5
:10355800171740002068FFF72DFD236809699A694D
:1035680042F008029A619A6922F004029A619A6903
:103578000A439A610123002084F8393084F838001E
:1035880038BD2068FFF79EFF236809699A6942F4ED
:1035980000629A619A6922F480629A619A6942EAA1
:1035A8000122E6E72068FFF731FD23680969DA6937
:1035B80042F00802DA61DA6922F00402DA61DA69B3
:1035C8000A43DA61D6E72068FFF750FD23680969E6
:1035D800DA6942F40062DA61DA6922F48062DA6157
:1035E800DA6942EA0122ECE790F83830012B10B58D
:1035F8004FF0020318D080F8393003680C685A6815
:10360800496822F070025A605A6822435A609A68E0
:1036180022F080029A609A680A439A60012380F82F
:103628003930002380F83830184610BD90F838300B
:10363800012B1FD0CB688A6823F4407313434A6870
:1036480023F4806313430A6823F4006313430A696D
:1036580023F4805313434A6923F4005313438A69BC
:1036680023F44043134302685364002380F838303E
:103678001846704702207047704770470368DA6839
:1036880022F49072DA605A6922F001025A61012329
:1036980080F83D30704700002DE9F84305460028C2
:1036A80000F08C8090F83D3003F0FF021BB980F8E1
:1036B8003C2001F07FFC2E68E969022385F83D3043
:1036C800F36823F00C03F360AB6932690B43296A92
:1036D80043F400630B43E96822F47C520B43134321
:1036E80033612969AB68F2680B43696922F41642B1
:1036F80043F4004322F00C020B431343F360736955
:1037080023F4407373612F4B9E4203D003F580630B
:103718009E423BD1FFF73EFC6F68192404FB00F37F
:103728007F004FF06408B3FBF7F3B3FBF8F31F0116
:10373800FFF730FC6B6860435B00B0FBF3F9FFF701
:1037480029FC6B6860435B00B0FBF3F3B3FBF8F351
:1037580008FB13931B013233B3FBF8F303F00F0399
:103768003B43B3602B681A6922F480421A615A6994
:1037780022F02A025A61DA6842F40052DA60002024
:103788000123286485F83D30BDE8F883FFF7F2FB94
:103798006F68192404FB00F37F004FF06408B3FB43
:1037A800F7F3B3FBF8F31F01FFF7E4FB6B68604323
:1037B8005B00B0FBF3F9FFF7DDFBC2E70120BDE8D2
:1037C800F88300BF001001407047704790F83D3003
:1037D800222B10B546D1836801690268B3F5805F72
:1037E800C36A2AD121BB5168C1F3080123F8021B1F
:1037F800C362438E013B9BB2438613B140F2FF1371
:103808005360448EA4B28CB90368DA6822F02002AF
:10381800DA60DA6822F48072DA605A6922F001020A
:103828005A61012380F83D30FFF7CFFF002010BD1B
:103838005168C9B223F8011BDAE769B9591C526803
:10384800C1621A70438E013B9BB24386002BD8D0CD
:103858000368FF225A60D4E75268591CC16202F01B
:103868007F02EEE7022010BD704790F83D30322B02
:1038780010B565D1438D9BB2E3B102681368190690
:1038880018D58368B3F5805F436A44D11988C1F3BA
:1038980008015160016900293BD102334362438D1D
:1038A800013B9BB24385438D9BB21BB9D36823F080
:1038B8008003D360438E9BB2A3B1026813689B0652
:1038C80010D583680169B3F5805FC36A2CD152684B
:1038D80031BBC2F3080223F8022BC362438E013BBB
:1038E8009BB24386448EA4B28CB90368DA6822F08E
:1038F8002002DA60DA6822F48072DA605A6922F00B
:1039080001025A61012380F83D30FFF7ADFF002026
:1039180010BD0133C2E7591C41621B785360BEE7F2
:10392800D2B223F8012BD8E721B9591C5268C162D9
:103938001A70D3E75268591CC16202F07F02F7E798
:10394800022010BD7047000003681A68D96870B576
:10395800160704465D6910D196066AD58D0668D5A6
:1039680090F83D30222B03D1BDE87040FFF72EBF01
:103978002046BDE87040FFF778BF15F0010502D179
:1039880011F4907F55D0D30705D5CE0542BF236CDF
:1039980043F001032364500704D51DB1236C43F0A1
:1039A80002032364930704D51DB1236C43F0040379
:1039B8002364160704D51DB1236C43F00803236460
:1039C800236C002B75D0950608D5880606D594F883
:1039D8003D30222B204621D1FFF7F8FE23685D6990
:1039E800226C1107204602D415F040051DD0FFF7C0
:1039F80045FE23685A69520613D55A69A06B22F00E
:103A080040025A6168B12B4B0365FDF75FFD002842
:103A18004FD0A06BBDE87040036D1847FFF725FF36
:103A2800DCE72046FFF78EFF70BDFFF78BFF2564AC
:103A380070BD16062BD50D0629D594F83D20122AFF
:103A480096D194F83D20122A33D1A268B2F5805F4E
:103A5800626A17D11188C1F308015960216979B9DF
:103A680002326262628D013A92B262850ABBDA68FA
:103A780022F08002DA60DA6842F04002DA6070BD53
:103A88000132EEE7511C616212785A60EAE750068B
:103A98000FD54A060DD5DA6822F04002DA605A6975
:103AA80022F001025A61012384F83D302046FFF7D5
:103AB8008BFE70BDC13A000808B5806B00234386B1
:103AC8004385FFF73FFF08BD10EE102A0C4BF6EEBA
:103AD800007AA3EB620360EE277A00EE103AF7EE65
:103AE800086A27EE807AB0EE666AA0EE476A26EE8C
:103AF800000A67EE807AE0EE676A26EE800A704771
:103B0800DF59375F4FF07E53436000238360C36003
:103B18000361704730B595B00E2302AD00933B2288
:103B28002B460C46D02100F001FB002306AAE95CD5
:103B380042F8231001330E2BF9D1069B0799099AF5
:103B4800D4ED016A0A9801EB032107EE901A089B4D
:103B5800A160B8EEE77A02EB03220B9B0F99E260B3
:103B680027EE267A07EE902A03EB002384ED057AE8
:103B7800B8EEE77A07EE903AF8EEE77A23610E9B03
:103B8800119A129867EEA67A01EB032127EE267A9E
:103B9800C4ED077A07EE901A84ED067AB8EEE77A54
:103BA800D4ED0E7A109BD4ED006A216237EE677A65
:103BB80002EB032227EE267A07EE902A84ED0B7A91
:103BC800B8EEE77AD4ED0F7A139B626237EE677A24
:103BD80003EB002327EE267A07EE903A84ED0C7A61
:103BE800F8EEE77A94ED107AA36277EEC77A67EE7B
:103BF800A67AC4ED0D7A15B030BD000000000000B3
:103C08002DE9F041002394B007460C468B63CB6343
:103C18000B64642502AE4FF00E0833463B22CDF804
:103C28000080D021384600F081FA002306AAF15C12
:103C380042F8231001330E2BF9D10E9A0F9B94ED05
:103C48000E7A03EB022307EE903AF8EE677A109AA1
:103C5800119B77EE277A03EB0223C4ED0E7A07EE69
:103C6800903A94ED0F7A139B129AF8EE677A03EB69
:103C7800022377EE277A94ED107AC4ED0F7A07EED7
:103C8800903AF8EE677A052077EE277AC4ED107A35
:103C9800FDF726F9013DC0D1A06BFCF7F5FB10A399
:103CA800D3E90023FCF744FCFCF7F2FEA063E06BC9
:103CB800FCF7EAFB0AA3D3E90023FCF739FCFCF77D
:103CC800E7FEE063206CFCF7DFFB05A3D3E90023E4
:103CD800FCF72EFCFCF7DCFE206414B0BDE8F08194
:103CE8007B14AE47E17A843F90ED0C5AD1ED034A3C
:103CF80090ED0B6AD1ED027AD0ED0D5AD1ED043A70
:103D080091ED014A25EE647A70B5A7EEC67A0546AC
:103D18000C46F6EE006AA3EEE57A16462DED088B02
:103D280027EE267AB0EE408A81ED097A24EEA57A4C
:103D380084B0A6EE047AF0EE608AA5EE637A90ED80
:103D4800060A27EE267A81ED0A7A25EEE77A67EEEB
:103D5800857AA5EE047AE5EE847AA6EE237AE6EE75
:103D6800647A27EE267A67EEA67A81ED0B7A90EDD3
:103D7800057AC1ED0C7AB5EE407AF1EE10FAD0ED85
:103D8800077A0AD1B5EE400AF1EE10FA05D1F5EE40
:103D9800407AF1EE10FA00F0D88020EE000AA7EE83
:103DA800070AA7EEA70AFFF78FFED5ED056AD5ED3E
:103DB800077A95ED065AD4ED030A84ED000A20EE41
:103DC800262A30EEA04A20EE055A20EE270AD4ED26
:103DD800017A94ED029AD4ED043A85ED065AB1EED3
:103DE800003A27EE836A60EEA04A62EE045A69EE52
:103DF800092AE6EE245A37EEA77A73EEA39A67EEFD
:103E0800A77A85ED070A85ED052A69EE03AA23EE50
:103E1800A3AAE6EE225A84ED116AC4ED167A27EEBB
:103E2800836A69EEC27AB1EE455AEAEE8A7A84ED7F
:103E38000D7AE9EE067A60EE831AE5EE077A22EE4D
:103E4800077AB2EE001AA0EE867A29EE01BAA1EE40
:103E58008A7A77EEEA7AA5EE297AEBEE227A20EED4
:103E6800811A37EE617AEBEE247AA1EE227A79EEA6
:103E7800096AE0EE2A7AE5EE265AA1EE247AC4ED24
:103E88000E6AC4ED172A66EEC26A62EE832AA0EEB5
:103E9800217AE3EEA26A27EEA70AC4ED184A64EE77
:103EA800834AA5EEA50AE3EEA46AA7EE070AE5EEA3
:103EB800046AC4ED067A84ED077AC4ED086AA6EEB2
:103EC800A60A84ED0F4AC4ED109AC4ED12AAC4EDF7
:103ED800131A84ED14BA84ED151A84ED19AAC4EDE9
:103EE800055AFFF7F1FD94ED086AD4ED056A94EDE3
:103EF800067AD4ED077A84ED000A60EE266A20EE91
:103F0800077A60EE277A20EE060A94ED096AC4ED76
:103F1800056AA6EEC86AD4ED0A6A84ED067AE7EE69
:103F2800486A94ED0B7AC4ED077AA7EEC87AD4ED07
:103F38000C7A84ED080AE0EE487A84ED096AC4ED4B
:103F48000A6A84ED0B7AC4ED0C7AF7EE007A87EEF4
:103F5800A86AD4ED016AD4ED097A94ED020A94EDC9
:103F6800037AD4ED0C5AE7EE866AD4ED0A7AC4EDEA
:103F7800016AA6EE270AD4ED0B7A84ED020A20EE38
:103F8800000AA6EE277AA6EEA60AD4ED047A84EDF6
:103F9800037AE6EE257AA7EE070AC4ED047AA7EEBF
:103FA800A70AFFF791FD94ED039A94ED048AD4EDE6
:103FB800019AD4ED028A84ED000A20EE099A20EED7
:103FC800088A60EE299A60EE288A69EE087AC4EDBC
:103FD800028AE9EEA87AC4ED019A17EE900A84EDF8
:103FE800039A84ED048AFCF74FFA29EE09AA0246DF
:103FF8000B46FCF7EBF8F0EE4A7AE8EEA87AC6E949
:104008000601CDE9020117EE900AFCF73DFA0246D7
:104018000B46FCF7DBF802460B4600203449FCF758
:10402800D3F868EE687AC6E90801E9EE897ACDE93D
:10403800000117EE900AFCF727FA68EE898A024613
:104048000B46E9EE888AFCF7C1F8C6E90A0118EEC2
:10405800900AFCF719FAA8EE08AA02460B46FCF7E4
:10406800B5F8C6E90E011AEE100AFCF70DFA024679
:104078000B46FCF7ABF802460B4600201C49FCF740
:10408800A3F89DED001BC6E90C019DED020B01F0A4
:1040980073F815A3D3E9002351EC100BFCF748FA89
:1040A80096ED0A0BC6E9000101F00EF80EA3D3E95C
:1040B800002351EC100BFCF73BFA96ED0C1BC6E9FC
:1040C800020196ED0E0B01F057F807A3D3E9002380
:1040D80051EC100BFCF72CFAC6E9040104B0BDEC56
:1040E800088B70BDAFF30080CB67791EDCA54C4010
:1040F8000000F03FF0B585B04FF47A7ECDF808E0C7
:104108009DF828E0074E084C01278DE80840002557
:104118003B4635702760FDF7C1FD307000B1256062
:1041280005B0F0BDB000002008000020F0B585B053
:104138004FF47A7ECDF808E09DF828E0074E084C49
:1041480001278DE8084000253B4635702760FDF7BC
:104158003BFE307000B1256005B0F0BDB000002016
:10416800080000202DE9FF471F46424B90460022D9
:1041780005460C461A6064230122D0212846FDF723
:1041880033FF82460028F6D10126DFF8FC9000961E
:104198000DF10F037522D0212846FFF7C7FF4B46C4
:1041A8006B22D0212846009689F800A0FFF7A2FFCD
:1041B800032389F801300223009319224B46D021AA
:1041C800284689F80060FFF795FF0DF10F031C22C0
:1041D800D02128460096FFF7A9FF9DF80F300096DA
:1041E80023F0180343EAC8038DF80F301C220DF1A1
:1041F8000F03D0212846FFF77DFF0DF10F031B2287
:10420800D02128460096FFF791FF9DF80F300096C1
:1042180023F0180343EAC7038DF80F301B220DF172
:104228000F03D0212846FFF765FFB8F1030F06D822
:10423800DFE808F0020B0E114FF062536360032FA2
:104248000ED8DFE807F00B1012144FF06453F5E7AF
:104258004FF06653F2E74FF06853EFE7064B2360E1
:1042680004B0BDE8F087054BF9E7054BF7E7054BC8
:10427800F5E700BF94000020FFFFF93BFFFF793C02
:10428800FFFFF93CFFFF793DAE0000201FB5134842
:10429800134B002480E81800124B836201238460CA
:1042A800046184610462C462C460C36104634361DD
:1042B800FCF72AFE18B149210B4800F083FB0123C3
:1042C80069460648009401930294FCF759FF18B117
:1042D8005321054800F076FB04B010BDFC00002017
:1042E800002001400100000F605C00081FB5144861
:1042F800144B154A036082620023012243608360E5
:10430800036183610362C362C360C2610363426184
:10431800FCF7FAFD18B16C210C4800F053FB0221A0
:10432800012200238DE80E0005486946FCF728FFA6
:1043380018B17621054800F045FB05B05DF804FB8F
:10434800B4000020002101400100000F605C00085B
:1043580010B50368194A934288B01ED1184B00243F
:1043680001945A6C42F480725A645B6C03F4807353
:104378000193019B1123039303A903231148049379
:104388000594FDF76FF9122022462146FCF7A2FF9B
:104398001220FCF7D3FF08B010BD0B4A9342FAD1A4
:1043A800074B002402945A6C42F400725A645B6C06
:1043B80003F400730293029B0423DCE7002001400E
:1043C80000380240000002400021014013B5174B9D
:1043D800002401941A6B42F400121A631B6B03F455
:1043E80000132246214601930B20019BFCF772FF24
:1043F8000B20FCF7A3FF224621460D20FCF76AFF9D
:104408000D20FCF79BFF224621461120FCF762FF96
:104418001120FCF793FF224621462F20FCF75AFF74
:104428002F20FCF78BFF02B010BD00BF0038024000
:104438002DE9F0438DB00024454B01941A6B454E8D
:10444800DFF81891DFF81881434F42F010021A6321
:104458001A6B02F010020192019A02941A6B42F050
:1044680004021A631A6B02F004020292029A03947D
:104478001A6B42F080021A631A6B02F080020392F0
:10448800039A04941A6B42F001021A631A6B02F041
:1044980001020492049A05941A6B42F002021A630C
:1044A8001A6B02F002020592059A06941A6B42F002
:1044B80008021A631B6B03F0080306932246304672
:1044C8002A21069BFDF7AEF9224648464FF40051D3
:1044D800FDF7A8F9224640464FF4A061FDF7A2F97E
:1044E800224638463F21FDF79DF9552307A9304656
:1044F8000125079308940994FDF7B4F82A2307A91E
:1045080030460793089509940A94FDF7ABF84FF4E1
:10451800005307A948460793089509940A94FDF79C
:10452800A1F84FF4A06307A940460793089509949A
:104538000A94FDF797F83F2307A93846079308958B
:1045480009940A94FDF78EF80DB0BDE8F08300BF1A
:104558000038024000100240000C024000080240EF
:104568000000024008B50D480D4BDFF83CE04FF461
:10457800804280E8084000238360C3600261436191
:104588008361C3610362FDF71BFB28B1482105481D
:10459800BDE8084000F016BA08BD00BFA40100201D
:1045A800005400406D5C0008801A060008B50D48EC
:1045B8000D4BDFF83CE04FF4804280E808400023D0
:1045C8008360C360026143618361C3610362FDF775
:1045D800F7FA28B15B210548BDE8084000F0F2B9B8
:1045E80008BD00BFF8010020005800406D5C0008BD
:1045F800801A060030B50368654A934289B00546BB
:1046080062D1C02303931223049301230593032348
:10461800069303A904235F480793FDF723F80023B3
:104628005D4A0193116C5D4C5D4841F400111164C1
:10463800126CA36002F400120192019AE3604FF039
:10464800007284E805004FF48062204622616361AD
:10465800A361E36123626362FCF7BAFE18B18621A5
:10466800504800F0AFF9AC634F49A5634F4C4FF089
:104678000072402384E80E004FF480620023226118
:1046880020464FF48072E3606361A361E2612362B4
:104698006362FCF79DFE18B19821424800F092F938
:1046A800002211466C631F20A563FCF713FE1F2030
:1046B800FCF744FE002220201146FCF70BFE2020C8
:1046C800FCF73CFE09B030BD394A9342FAD14FF4A9
:1046D8004063039312230493012305930323069352
:1046E80003A904232B480793FCF7BCFF00232A4A9D
:1046F8000293116C2F4C41F480011164126C2E4905
:10470800A36002F480020292029AE3604FF06062B2
:1047180084E8060020464FF4806222616361A36149
:10472800E36123626362FCF753FE18B1C8211D4898
:1047380000F048F9AC63214BA563214C4FF0606C45
:104748004FF0400E84E808504FF480620023204662
:10475800E36022616361A361E36123626362FCF742
:1047680037FE18B1DA210F4800F02CF90022114663
:104778006C632120A563FCF7ADFD2120FCF7DEFD6D
:10478800002222201146FCF7A5FD222098E700BF51
:104798000054004000040240003802400C0300208E
:1047A800106002406D5C0008A060024044010020D7
:1047B800005800404C02002040600240B8600240AF
:1047C800AC02002038B52E4B02681B689A422DEDCA
:1047D800028B52D12B4B2C4C1A682C4D2C492D484E
:1047E800B2F57A7F04BF00221A60FFF793F9DFED74
:1047F8002A0A2A492648B0EE040A2246FFF774FA24
:10480800D5ED007AB3EE0F8A67EE887A17EE900A34
:10481800FBF73AFED4E90023FBF7D8FC0022204B33
:10482800FBF786FEFCF734F928601E4DD5ED007ABB
:1048380067EE887A17EE900AFBF726FED4E9022382
:10484800FBF7C4FC0022164BFBF772FEFCF720F9BD
:104858002860154DD5ED007A67EE887A17EE900A34
:10486800FBF712FED4E90423FBF7B0FC00220C4B43
:10487800FBF75EFEFCF70CF92860BDEC028B38BD37
:10488800B4040020980000203804002030040020E0
:10489800E8030020A40100200000C842740300209F
:1048A8000000A03FE4030020E003002030B595B0ED
:1048B800264B002101911A6C42F080521A641B6C3D
:1048C80003F080530193019B214B02911A6842F433
:1048D80080421A601B6803F480430293029B012301
:1048E80008934FF4803309934FF48003022504247E
:1048F8000F9308A8A8230E9510941193129513945A
:10490800FEF7E8F800B1FEE70F23039305904FF494
:10491800A053052103A8049506930793FEF78AFA86
:10492800054600B1FEE7FEF71FFB4FF47A73B0FBB4
:10493800F3F0FCF70FFD2046FCF722FD2A46294636
:104948004FF0FF30FCF7C6FC15B030BD0038024010
:104958000070004008B5FCF797FAFFF7A7FFFFF7CC
:1049680067FDFFF733FDFFF791FCFFF7FBFDFFF74E
:104978001DFE00F0BBF900F035FA00F097FA00F0E0
:10498800F9FA00F0F1F8FFF7B1FC4FF47A70FCF790
:10499800A7FA0848FFF7B6F80748FEF78FFB07495C
:1049A800074801230022FFF7DDFB04490448FFF70D
:1049B80027F9FEE774030020B4040020E803002070
:1049C800A4010020FEE7000013B5224B0024009448
:1049D8005A6C42F480425A645A6C02F48042009243
:1049E800009A01941A6C42F080521A641B6C03F00E
:1049F800805301930320019BFCF75AFC2246214671
:104A08006FF00B00FCF766FC224621466FF00A00A7
:104A1800FCF760FC224621466FF00900FCF75AFCBF
:104A2800224621466FF00400FCF754FC224621463A
:104A38006FF00300FCF74EFC224621466FF00100A0
:104A4800FCF748FC224621464FF0FF30FCF742FCB9
:104A580002B010BD003802407047FEE7FEE7FEE7EF
:104A6800FEE770477047704708B5FCF727FABDE8BE
:104A78000840FCF792BC00000148FCF739BD00BFB4
:104A88000C0300200148FCF733BD00BF4C02002096
:104A98000148FCF72DBD00BF4401002008B50448BB
:104AA800FCF7D9FA0348BDE80840FCF7D4BA00BFC0
:104AB800FC000020B400002008B50448FEF7C7FB3E
:104AC8000348BDE80840FEF7C2BB00BF2C05002024
:104AD800B40400200148FDF7D3BB00BFA4010020A7
:104AE8000148FDF737BF00BFA40100200148FDF7CA
:104AF800C7BB00BFF80100200148FDF72BBF00BF6E
:104B0800F80100200148FEF71FBF00BF680500201C
:104B18000148FCF7EDBC00BFAC0200200F49D1F8FA
:104B2800883043F47003C1F888300D4B1A680020B0
:104B380042F001021A6098601A6822F0847222F426
:104B480080321A60074A5A601A6822F480221A6072
:104B5800D8604FF000638B60704700BF00ED00E045
:104B680000380240103000240B480C4908B540F2C8
:104B7800473380E80A0040F2E73200238360C260CE
:104B88000361FEF76BFC28B1FB210548BDE808402E
:104B9800FFF718BF08BD00BFB4040020004401405F
:104BA800925C00081FB50368244A934213D1244B32
:104BB80000220092596C41F0010159645B6C03F0CA
:104BC80001030093009B11461920FCF783FB192071
:104BD800FCF7B4FB0EE01B4A93420ED1002301936D
:104BE800174B1A6C42F002021A641B6C03F00203A2
:104BF8000193019B05B05DF804FB134A93420CD165
:104C0800002302930E4B1A6C42F004021A641B6CC8
:104C180003F004030293029BECE70C4A9342E9D1A8
:104C2800074B00220392596C41F4003159645B6CC4
:104C380003F400330393039BC5E700BF0000014062
:104C480000380240000400400008004000440140D1
:104C580070B503681E4A934286B010D14FF42853AA
:104C68000193122302930023039303230493194807
:104C78000123059301A9FCF7F5FC06B070BD164A9F
:104C8800934215D10224C0230026032501A9134805
:104C980001930294039604950594FCF7E3FC012321
:104CA8000193029403960495059401A90C48E2E740
:104CB8000C4A9342E1D14FF4E0430022019303925E
:104CC8000223032202930492059301A90648D2E71E
:104CD80000000140001002400004004000000240B3
:104CE8000004024000080040000C024000B53A48A9
:104CF8003A49062395B080E80A0040F28F12002353
:104D08008360C26003614361FEF7A8FB18B14421C8
:104D18003348FFF757FE14A94FF4805341F8483D34
:104D28002D48FEF7D7F918B14A212D48FFF74AFE5A
:104D38002948FEF7ADFB18B14F212948FFF742FE7D
:104D480000236946244800930193FEF74DFC18B1EF
:104D580056212348FFF736FE0022602306A91E4885
:104D680006930792089209920A920B920C92FEF708
:104D7800D9FB18B162211A48FFF724FE042206A9BC
:104D88001548FEF7CFFB18B167211548FFF71AFE43
:104D9800082206A91048FEF7C5FB18B16C21104877
:104DA800FFF710FE00234FF400520DA90A480D9397
:104DB8000E930F931093119312921393FEF736FCF0
:104DC80018B178210648FFF7FDFD0348FFF740FFBB
:104DD80015B05DF804FB00BF2C0500200000014061
:104DE800925C000800B52E482E4906238FB080E853
:104DF8000A0040F28F1200238360C2600361FEF74D
:104E08002DFB18B18C212848FFF7DCFD0EA94FF4C3
:104E1800805341F82C3D2248FEF75CF918B19221E5
:104E28002148FFF7CFFD1E48FEF732FB18B1972146
:104E38001D48FFF7C7FD002301A9194801930293F4
:104E4800FEF7D2FB18B19E211748FFF7BBFD0022E1
:104E5800602307A912480793089209920B92FEF75C
:104E680061FB18B1A7211048FFF7ACFD042207A980
:104E78000B48FEF757FB18B1AC210B48FFF7A2FD12
:104E8800082207A90648FEF74DFB18B1B1210648CC
:104E9800FFF798FD0248FFF7DBFE0FB05DF804FB53
:104EA800F004002000040040925C000800B52E4881
:104EB8002E4906238FB080E80A0040F28F120023A3
:104EC8008360C2600361FEF7C9FA18B1C52128489A
:104ED800FFF778FD0EA94FF4805341F82C3D224886
:104EE800FEF7F8F818B1CB212148FFF76BFD1E48F3
:104EF800FEF7CEFA18B1D0211D48FFF763FD002355
:104F080001A9194801930293FEF76EFB18B1D72146
:104F18001748FFF757FD0022602307A91248079397
:104F2800089209920B92FEF7FDFA18B1E021104899
:104F3800FFF748FD042207A90B48FEF7F3FA18B15A
:104F4800E5210B48FFF73EFD082207A90648FEF7B2
:104F5800E9FA18B1EA210648FFF734FD0248FFF7DD
:104F680077FE0FB05DF804FB7804002000080040CD
:104F7800925C000808B50C480C4B4FF4E13E80E801
:104F880008400C2200238360C3600361426183618F
:104F9800C3610362FEF780FB28B142210448BDE8E3
:104FA8000840FFF70FBD08BD680500200048004015
:104FB8009F5C0008F0B50268194B9A4287B02DD162
:104FC800002403F5F83300941A6C164842F4802242
:104FD8001A641B6C039403F480230093009B02273C
:104FE8004FF480530326072501A9019302970496DD
:104FF8000595FCF737FB4FF4407301A90A48019364
:105008000297039404960595FCF72CFB272022466B
:105018002146FCF75FF92720FCF790F907B0F0BDAF
:105028000048004000040240000C0240DFF834D081
:10503800002103E00C4B5B58435004310B480C4BE8
:1050480042189A42F6D30B4A02E0002342F8043B86
:10505800094B9A42F9D3FFF761FD00F011F8FFF709
:1050680079FC704700000220085D0008000000205D
:105078007800002078000020AC050020FEE7000042
:1050880070B50D4E0D4CA41BA4100025A54209D1E6
:105098000B4E0C4C00F0CEFDA41BA4100025A5421D
:1050A80005D170BD56F8253098470135EEE756F81A
:1050B800253098470135F2E7005D0008005D0008DB
:1050C800005D0008045D0008F0B52DED028B264E4A
:1050D8008BB055EC104B00F053F896F90030B0EE59
:1050E800408AF0EE608A013336D022462B462046AD
:1050F8002946FBF7B7FC074670BB45EC104B00F0A0
:105108007FFD0022194B51EC100BFBF7A1FC18B3E3
:10511800012300931648174B01930897CDE90445DE
:10512800CDE9024500F078FD96F90030022B8DEDAF
:10513800060B04D100F078FD2123036004E06846E3
:1051480000F065FD0028F5D0089B1BB100F06CFD50
:10515800089B03609DED068BB0EE480AF0EE680AE6
:105168000BB0BDEC028BF0BD100000200000F03F3A
:10517800795C0008AE5C000800F00EBA0000000080
:105188002DE9F04F55EC104BCB4B85B025F0004B7B
:105198009B45019532DD10EE103A0BF1404B0BF5B3
:1051A800801B5BEA030317D1A9A3D3E9002310EE00
:1051B800100A2946FBF7BCF9A7A3D3E90023064642
:1051C8000F4620462946FBF7B3F902460B46304600
:1051D8003946FAF7FBFF0AE010EE102A2B46204664
:1051E8002946FAF7F1FF02460B46FBF7CBFA0446CD
:1051F8000D4645EC104B05B0BDE8F08FAF4B9B4515
:1052080011DCBBF1795F80F2B08095A3D3E900236C
:1052180010EE100A2946FAF7D9FF0022A84BFBF72F
:1052280017FC0028E5D145EC104B00F0E9FC002004
:1052380053EC102BA249FAF7C7FF0022A14BFBF74A
:1052480077F989A3D3E9002304460D46FBF770F9E3
:1052580087A3D3E90023FAF7B9FF22462B46FBF7C9
:1052680067F985A3D3E90023FAF7AEFF22462B4658
:10527800FBF75EF982A3D3E90023FAF7A7FF2246DA
:105288002B46FBF755F980A3D3E90023FAF79CFFD7
:1052980022462B46FBF74CF97DA3D3E90023FAF706
:1052A80095FF22462B46FBF743F97BA3D3E900235E
:1052B8008046894620462946FBF73AF978A3D3E980
:1052C8000023FAF781FF22462B46FBF731F976A334
:1052D800D3E90023FAF77AFF22462B46FBF728F991
:1052E80073A3D3E90023FAF76FFF22462B46FBF797
:1052F8001FF90022724BFAF769FF45EC104B0B4679
:105308000246CDE9022300F021FA6F498B4557EC9C
:10531800106BDDE9022340F3D98040464946FBF78C
:1053280031FA32463B46FBF703F932463B46FAF779
:105338004DFF02460B46FAF749FF47A3D3E900237E
:10534800FAF742FF02460B4641A1D1E90001FAF7FC
:105358003BFF019B002BDCBF024601F100430446E2
:105368000D46DCBF14461D4643E710EE102A10EE2A
:10537800100A2B462946FBF7DBF83BA3D3E90023A9
:1053880006460F46FBF7D4F839A3D3E90023FAF70A
:105398001DFF32463B46FBF7CBF837A3D3E9002382
:1053A800FAF712FF32463B46FBF7C2F834A3D3E9BB
:1053B8000023FAF70BFF32463B46FBF7B9F832A356
:1053C800D3E90023FAF700FF32463B46FBF7B0F873
:1053D8002FA3D3E90023FAF7F9FE32463B46FBF741
:1053E800A7F82DA3D3E900238046894630463946DD
:1053F800FBF79EF82AA3D3E90023FAF7E5FE324625
:105408003B46FBF795F828A3D3E90023FAF7DEFE1D
:1054180032463B46FBF78CF825A3D3E90023FAF77D
:10542800D3FE32463B46FBF783F80022244BFAF7BB
:10543800CDFE02460B4640464946FBF7A3F92246F5
:105448002B46FBF775F802460B4620462946C0E670
:10545800182D4454FB21F93F075C143326A6913CD0
:105468009C7500883CE4377E09F7FD0DE13D023F5D
:1054780088B20175E0EF493F3B8F68B52882A43FA9
:105488005544880E55C1C93F7D6FEB0312D6D43FF2
:10549800555555555555C53F82922EB1C5B8B33FA0
:1054A80059018D1B6C06E63FC88A599CE52A0040C5
:1054B8004B2D8A1C273A0340FFFFEF3FFFFFDF3FDA
:1054C8000000F03F0000E03F3233EF3F40464946DE
:1054D800FBF758F93246804689463B4630463946FE
:1054E800FAF774FE02460B4640464946FBF720F899
:1054F8004FF0000A8046894652463B465046394698
:10550800FBF716F802460B4620462946FAF75CFEDA
:10551800524604460D463B4630463946FAF756FE93
:1055280002460B4620462946FBF72CF902460B4655
:10553800FAF74CFE02460B4613A1D1E90001FAF72F
:1055480043FE02460B4640464946FAF73DFE5246A0
:1055580004460D463B4650463946FAF737FE0246A2
:105568000B460BA1D1E90001FAF72EFE02460B46C5
:1055780020462946FAF728FE02460B4604A1D1E93F
:105588000001E4E6AFF30080075C143326A6913CE3
:10559800182D4454FB21E93F2DE9F84357EC116BD2
:1055A800734227F000423343DFF89CC151EC100BE3
:1055B80042EAD373634511EE108A10EE109A8E46B4
:1055C80007D8444221F00043044343EAD4746445B5
:1055D80007D932463B46FAF7F9FD41EC100BBDE816
:1055E800F88307F1404404F58014344303D1BDE83F
:1055F800F84300F05DB9BC1704F0020459EA030946
:1056080044EAD17407D1022C30D0032CE5D13CA157
:10561800D1E90001E1E758EA020806D1BEF1000F1E
:105628006ADA39A1D1E90001D7E7624522D193426C
:1056380011D1022C07D0032C09D0012C56D134A14A
:10564800D1E90001C9E734A1D1E90001C5E734A1D6
:10565800D1E90001C1E7022C08D0032CD7D0012CD6
:105668004FF0000046D14FF00041B6E72EA1D1E936
:105678000001B2E76345D1D09B1A1B153C2B1EDCF9
:10568800002F01DA3C331EDB32463B46FBF77AF843
:1056980041EC100B00F0B4FA00F00AF951EC100BD1
:1056A800012C13D0022C14D0002C96D020A3D3E9BF
:1056B8000023FAF789FD1CA3D3E9002313E01EA1F8
:1056C800D1E90001ECE700200021E9E701F1004100
:1056D80083E717A3D3E90023FAF776FD02460B46C2
:1056E80011A1D1E90001FAF76FFD76E714A1D1E91C
:1056F800000172E7002170E70FA1D1E900016CE712
:10570800182D4454FB2109C0182D4454FB21F9BF1E
:10571800182D4454FB21E9BFD221337F7CD90240A4
:10572800D221337F7CD902C0182D4454FB21094073
:10573800075C143326A6A13C182D4454FB21F93FDD
:10574800182D4454FB21E93F0000F07F2DE9F0417A
:1057580055EC104B544EAE4310EE100A2B462A4619
:10576800214613D110EE102A2B4610EE100A2946B6
:10577800FAF7DEFE02460B4620462946FAF726FDD2
:1057880004460D4645EC104BBDE8F081002D10DCB9
:1057980025F000463043F5D05DB110EE102A2B46B7
:1057A80020462946FAF710FD02460B46FAF7EAFFAB
:1057B800E6E71B150CD1002A6DD00020D6026ED565
:1057C800441E1B1BC0F1200421FA04F4224381402B
:1057D800A3F2FF33C2F31302DD0742F4801242BF83
:1057E800520002EBD17249005810002502EBD17328
:1057F8001A44490016232C464FF40016A71997425D
:10580800DEBFD21BBC19AD195200013B02EBD172AD
:105818004FEA56064FEA4101F0D14FF0200E9C4660
:105828004FF00046A24206EB0C0702DC12D18F4271
:1058380010D8002F07EB060C34DABCF1000F31DB6F
:1058480004F10108121B8F4288BF02F1FF32C91B05
:105858003344444602EBD177BEF1010E3A444FEA95
:1058680041014FEA5606DDD10A4306D05C1C13BF3E
:1058780001330135734623F001036A105B08E90719
:1058880002F17F5202F5001248BF43F0004302EBD9
:1058980000551C4676E7CA0A153B49058BE75200B6
:1058A80001308BE7A046CDE70000F07F0000000044
:1058B8002DE9F84F55EC104BC74B25F000469E429A
:1058C800AB4618DDC54A964201DC09D144B12246EF
:1058D8002B4620462946FAF779FC04460D4606E091
:1058E800BBF1000F00F33A819FA5D5E9004545ECCF
:1058F800104BBDE8F88FBA4B9E4214DCA3F1DE735F
:105908009E420DDC9AA3D3E9002310EE100A294623
:10591800FAF75CFC0022B34BFBF79AF80028E6D1B3
:105928004FF0FF3A2BE000F06BF9AF4B9E4255EC7D
:10593800104B00F3BF80A3F550239E4200F3A080D4
:1059480010EE102A10EE100A2B462946FAF73EFCF4
:105958000022A44BFAF738FC002206460F464FF007
:10596800804320462946FAF731FC02460B4630466A
:105978003946FAF707FF4FF0000A04460D4622465B
:105988002B4620462946FAF7D3FD02460B468046A9
:105998008946FAF7CDFD78A3D3E9002306460F46DA
:1059A800FAF7C6FD76A3D3E90023FAF70FFC3246CF
:1059B8003B46FAF7BDFD74A3D3E90023FAF706FCCA
:1059C80032463B46FAF7B4FD71A3D3E90023FAF750
:1059D800FDFB32463B46FAF7ABFD6FA3D3E9002344
:1059E800FAF7F4FB32463B46FAF7A2FD6CA3D3E97B
:1059F8000023FAF7EBFB42464B46FAF799FD6AA3F8
:105A0800D3E900238046894630463946FAF790FDA7
:105A180067A3D3E90023FAF7D7FB32463B46FAF7E8
:105A280087FD65A3D3E90023FAF7CEFB32463B4650
:105A3800FAF77EFD62A3D3E90023FAF7C5FB3246E5
:105A48003B46FAF775FD60A3D3E90023FAF7BCFBE0
:105A580032463B46FAF76CFDBAF1FF3F02460B4669
:105A680055D140464946FAF7B1FB22462B46FAF78C
:105A78005FFD02460B4620462946FAF7A5FB2CE7B0
:105A880010EE100A0022574B2946FAF79DFB002218
:105A980006460F46534B20462946FAF797FB02461F
:105AA8000B4630463946FAF76DFE4FF0010A0446B8
:105AB8000D4664E74D4B9E421DDC10EE100A002295
:105AC8004B4B2946FAF780FB002206460F46484B07
