:020000040800F2
:1000000000000220D9360008093100080B31000831
:100010000D3100080F310008113100080000000008
:100020000000000000000000000000001331000884
:1000300015310008000000001731000819310008D0
:100040002937000829370008293700082937000810
:100050002937000829370008293700082937000800
:1000600029370008293700082937000829310008F6
:1000700029370008353100082937000829370008DA
:1000800029370008413100084D31000829370008A0
:1000900029370008293700082937000829370008C0
:1000A0002937000869310008293700082937000876
:1000B000293700082937000829370008853100084A
:1000C000913100089D310008A93100082937000846
:1000D000293700082937000829370008B5310008FA
:1000E0002937000829370008293700082937000870
:1000F000293700082937000829370008C1310008CE
:10010000293700082937000829370008293700084F
:10011000293700082937000829370008293700083F
:10012000293700082937000829370008293700082F
:10013000293700082937000829370008293700081F
:10014000293700082937000829370008293700080F
:1001500029370008293700082937000829370008FF
:1001600029370008293700082937000829370008EF
:100170002937000829370008293700080000000047
:080180002937000829370008A7
:1001880010B5054C237833B9044B13B10448AFF3C9
:1001980000800123237010BD0C0000200000000027
:1001A8007437000808B5034B1BB103490348AFF384
:1001B800008008BD0000000010000020743700080F
:1001C80053B94AB9002908BF00281CBF4FF0FF31B6
:1001D8004FF0FF3000F07AB9ADF1080C6DE904CEAC
:1001E80000F006F8DDF804E0DDE9022304B070470A
:1001F8002DE9F0478C460D460446089E002B51D148
:100208008A4217466DD9B2FA82FEBEF1000F0BD0B2
:10021800CEF1200C01FA0EF520FA0CFC02FA0EF7CA
:100228004CEA050C00FA0EF44FEA174A250CBCFB01
:10023800FAF81FFA87F90AFB18CC45EA0C4508FBBF
:1002480009F3AB420AD9ED1908F1FF3280F0238196
:10025800AB4240F22081A8F102083D44ED1AA4B255
:10026800B5FBFAF00AFB105544EA054400FB09F90E
:10027800A14509D9E41900F1FF3380F00A81A145AD
:1002880040F2078102383C44A4EB090440EA0840E4
:100298000021002E61D024FA0EF40023346073602C
:1002A800BDE8F0878B4207D9002E54D0002186E89C
:1002B80021000846BDE8F087B3FA83F1002940F031
:1002C8008E80AB4202D3824200F2FA80841A65EB38
:1002D80003050120AC46002E3FD086E81010BDE88B
:1002E800F08712B90127B7FBF2F7B7FA87FEBEF11C
:1002F800000F34D1EB1B3A0C1FFA87FC0121B3FB2A
:10030800F2F8250C02FB183345EA03450CFB08F309
:10031800AB4207D9ED1908F1FF3002D2AB4200F227
:10032800D1808046ED1AA3B2B5FBF2F002FB10555E
:1003380043EA05440CFB00FCA44507D9E41900F185
:10034800FF3302D2A44500F2B8801846A4EB0C048F
:1003580040EA08409DE731463046BDE8F087CEF1D7
:10036800200405FA0EF307FA0EF720FA04F83A0CFF
:1003780025FA04F448EA0308B4FBF2F14FEA1845F9
:1003880002FB11441FFA87FC45EA044501FB0CF304
:10039800AB4200FA0EF409D9ED1901F1FF3080F0F3
:1003A8008A80AB4240F2878002393D44EB1A1FFA3B
:1003B80088F5B3FBF2F002FB103345EA034500FB76
:1003C8000CF3AB4207D9ED1900F1FF386FD2AB42FD
:1003D8006DD902383D44EB1A40EA01418FE7C1F17B
:1003E800200722FA07F88B4005FA01F448EA0303CC
:1003F80020FA07FE4FEA134CFD404EEA040EB5FB07
:10040800FCF94FEA1E440CFB19551FFA83F844EA1D
:10041800054509FB08F4AC4202FA01F200FA01FAB8
:1004280008D9ED1809F1FF3043D2AC4241D9A9F1FE
:1004380002091D442D1B1FFA8EFEB5FBFCF00CFBB8
:1004480010554EEA054400FB08F8A04507D9E41802
:1004580000F1FF3529D2A04527D902381C4440EACB
:100468000940A4EB0804A0FB02894C45C6464D464A
:1004780015D312D056B1BAEB0E0364EB050404FA97
:1004880007F7CB401F43CC40376074600021BDE8BC
:10049800F0871846F8E69046E0E6C245EAD2B8EB9F
:1004A800020E69EB03050138E4E72846D7E7404622
:1004B80091E78146BEE7014678E702383C4445E7C4
:1004C800084608E7A8F102083D442BE7704700BF3B
:1004D80038B50E4A0E4B054618784FF47A73B3FBBD
:1004E800F0F31068B0FBF3F000F07CFA044658B95A
:1004F8000F2D09D8024629464FF0FF3000F032FA96
:10050800044B20461D6038BD012038BD080000207E
:10051800000000200400002008B50B4B1A6842F4C4
:1005280000721A601A6842F480621A601A6842F40B
:1005380080721A60032000F003FA0020FFF7C8FF5A
:1005480002F096FD002008BD003C0240034A044B1F
:1005580011681B780B441360704700BF2C00002003
:1005680000000020014B1868704700BF2C000020D5
:1005780038B50446FFF7F6FF631C1CBF054B1B7814
:10058800054618BFE418FFF7EDFF401B8442FAD870
:1005980038BD00BF0000002010B50446002800F058
:1005A8009980036C23B9436480F83C3002F040FA28
:1005B800236CDB0600F18C80236C23F4885323F032
:1005C800020343F002032364434B5A6822F4403287
:1005D8005A605A6861680A435A60236821695A68F0
:1005E80022F480725A605A6842EA01225A605A68B4
:1005F800A16822F040725A605A680A435A609A68A1
:10060800E16822F400629A609A680A439A60334962
:10061800A26A8A4250D0996821F0706199609968FD
:100628000A439A609A68E16A22F040529A609A688E
:100638000A439A609A68A16922F002029A609A684D
:1006480042EA41029A60226A002A3DD05A68616AE9
:1006580042F400625A605A6822F460425A605A684A
:10066800013942EA41325A60DA6AE16922F47002D9
:10067800DA62DA6A013942EA0152DA629A68216B6F
:1006880022F400729A609A6842EA41229A609A6853
:10069800616922F480629A609A68002042EA8122A5
:1006A8009A606064236C23F0030343F0010323641E
:1006B800002384F83C3010BD9A6822F070629A607A
:1006C8009A6822F04052B4E75A6822F40062CAE7F6
:1006D8000120EDE7012010BD002301400100000FBB
:1006E80070477047704738B5036819685A688D07AE
:1006F80004462BD5900629D5226CD1065EBF226C04
:1007080042F4007222649A6812F0405F17D1A2691D
:10071800AAB9DA6A12F4700F02D09A6852050ED498
:100728005A6822F020025A60236C23F480732364F1
:10073800236CDB045EBF236C43F001032364204673
:10074800FFF7CEFF23686FF012021A60236819685A
:100758005A684D0732D5100630D5226CD1065EBFD7
:10076800226C42F4005222649A6812F4401F1ED18F
:100778009A6B12F4401F02D09A68520517D45A682F
:10078800550514D49A6812F0405F10D1A26972B965
:100798005A6822F080025A60236C23F48053236441
:1007A800236CD8055EBF236C43F001032364204605
:1007B80000F0C4F823686FF00C021A602368196807
:1007C8005A68C9070FD555060DD51B68D8070AD52D
:1007D800236C43F4803323642046FFF782FF2368A9
:1007E8006FF001021A60236819685A6889060DD5E6
:1007F80052010BD5626C6FF0200542F00202626470
:1008080020461D60FFF76EFF23681D6038BD00009D
:10081800F7B50023019390F83C30012B00F083805A
:100828000D6804688A680123092D80F83C30AEB24F
:100838002AD906EB4603E7681E3B4FF0070E0EFA6F
:1008480003FE27EA0E07E760E76802FA03F33B4373
:10085800E3604A68062A4FEA820325D81344676B87
:10086800591F1F238B4027EA03036363626B06FA51
:1008780001F1114361632D4B9C4234D0002380F871
:100888003C30184603B0F0BD276905EB45034FF02F
:10089800070E0EFA03FE27EA0E072761276902FAF8
:1008A80003F33B432361D4E70C2A0ED81344216B8E
:1008B800A3F123021F23934021EA03032363236B3D
:1008C80006FA02F21A432263D5E71344E16A413B70
:1008D8001F229A4021EA0202E262E26A06FA03F162
:1008E8001143E162C7E7122D04D1114A536843F45A
:1008F80080035360A5F11003012BBFD80C4A53683D
:10090800102D43F400035360B8D10A4B0A4A1B6800
:10091800B3FBF2F20A2353430193019B002BADD0A2
:10092800019B013BF8E70220ACE700BF0020014033
:10093800002301400800002040420F0070470000DB
:10094800074AD36823F4E0631B041B0C43F0BF631E
:10095800000243F4003300F4E0600343D3607047BF
:1009680000ED00E0174B30B5DC68C4F30224C4F195
:100978000703251D042B28BF0423062D4FF001056E
:1009880005FA03F303F1FF338CBF033C002419403D
:10099800A14005FA04F4013C2240002842EA010281
:1009A8004FEA0212AFBF00F1604000F00F00064BA3
:1009B800D2B2A5BF00F56140D2B21A5480F8002324
:1009C80030BD00BF00ED00E014ED00E04209012356
:1009D80000F01F0003FA00F0014B43F822007047B3
:1009E80000E100E00138B0F1807F0AD2064B074AE7
:1009F8005860F02182F823100020072298601A60BE
:100A080070470120704700BF10E000E000ED00E0F3
:100A1800044B1A6804280CBF42F0040222F00402B6
:100A28001A60704710E000E0704708B5FFF7FCFF58
:100A380008BD00000368DAB223F47F7323F00303D0
:100A48001821103AB2FBF1F20449032A88BF043393
:100A5800895C8365C165806D704700BF8C3700086D
:100A680070B50446FFF77EFD0546002C71D00023C3
:100A780084F834302268022384F83530136823F070
:100A88000103136021680B68D8073CD40B68324D0A
:100A98006268A0691D40A3681343E2681343226992
:100AA800134362691343E26903431343226A1343FE
:100AB800626A042A43EA050301BF266BE56A3543E7
:100AC8002B430B604B69042A23F0070343EA020314
:100AD8000BD1A26AE56A13433DB1F8B9012A2DD0BA
:100AE80001D3022A01D1EA012BD44B612046FFF73A
:100AF800A1FFE26D3F2393408360002001236065DE
:100B080084F8353070BDFFF72DFD401B0528B9D995
:100B180020236365032084F8350070BDB0F5005FBD
:100B280013D1032AE1D801A050F822F04B0B00089A
:100B3800EF0A00084B0B0008450B0008B5F1C07F11
:100B4800D3D1402363650120E5E7022AF9D9032AB6
:100B5800C8E7012070BD00BF3F8010F090F8353025
:100B6800022B03D0802343650120704702680523C8
:100B780080F83530136823F00103136000207047B4
:100B8800F7B5002301935A4B856D1F68C36D2E6816
:100B980008229A40164204460CD0016808684007AB
:100BA80008D5086820F004000860AA60626D42F069
:100BB8000102626501229A40164208D021684969FB
:100BC800090641BFAA60626D42F002026265042212
:100BD8009A40164208D021680968880741BFAA6070
:100BE800626D42F00402626510229A40164210D0EB
:100BF8002368196809070CD5AA601A68500335D507
:100C08001B68190301D4236C00E0A36C0BB12046C8
:100C18009847E16D20228A40164238D02368186828
:100C2800C60634D5AA6094F83520052A1A6825D155
:100C380022F016021A605A6922F080025A61226C68
:100C48000AB9A26C1AB11A6822F008021A603F2386
:100C58008B40AB60002384F83430012384F83530AE
:100C6800236D0BB12046984703B0F0BD1A68D20532
:100C78005EBF1A6822F008021A60C4E7500328D53C
:100C88001B68190332D4636C0BB120469847636D17
:100C9800002BE9D0636DDA0719D50523226884F89B
:100CA8003530136823F0010313604FF41653B7FB74
:100CB800F3F7019B01339F42019302D31368DB07CB
:100CC800F7D4002384F83430012384F83530E36CFA
:100CD800C7E71A6812F4807208D1196821F0100168
:100CE8001960012384F8342084F83530E36BCBE7AE
:100CF800080000202DE9F04F85B00B68DFF8AC81C3
:100D0800684ADFF8AC91019300234FF0010E019C73
:100D18000EFA03FE0EEA0406B64540F0AE804C68B3
:100D280024F01007022F16D14FEAD30A00EB8A0AE3
:100D380003F0070BDAF820504FEA8B0B4FF00F0C3B
:100D48000CFA0BFC25EA0C0C0D6905FA0BF545EAC3
:100D58000C05CAF820504FEA430A0325D0F800B022
:100D680005FA0AF5ED4304F0030C0BEA050B0CFA3F
:100D78000AFC013F4CEA0B0C012FC0F800C011D847
:100D8800876807EA050BCF6807FA0AFC4CEA0B07E5
:100D98008760476827EA0E0EC4F300179F4047EAAA
:100DA8000E074760C7683D408F6807FA0AF73D435A
:100DB800C560E50061D54FF0000BCDF80CB0D8F850
:100DC8004470394D47F48047C8F84470D8F84470E7
:100DD80007F480470397039F23F0030707F1804731
:100DE80007F59C3703F0030CD7F808A04FEA8C0CE2
:100DF8004FF00F0E0EFA0CFEA8422AEA0E0E43D050
:100E080005F58065A84241D005F58065A8423FD028
:100E180005F58065A8423DD005F58065A8423BD020
:100E280048453BD005F50065A84239D005F58065F1
:100E3800A84214BF0825072505FA0CF545EA0E0552
:100E4800BD601568F74314F4803F0CBF3D4035433F
:100E58001560556814F4003F0CBF3D40354355609C
:100E6800956814F4801F0CBF3D4035439560D568E4
:100E7800A40254BF3D403543D5600133102B7FF4A5
:100E880044AF05B0BDE8F08F5D46D5E70125D3E74F
:100E98000225D1E70325CFE70425CDE70525CBE7D4
:100EA8000625C9E7003C0140000002400038024026
:100EB800001402400AB1816170470904FBE7000091
:100EC80070B50446002862D090F83D3003F0FF0268
:100ED8001BB980F83C2001F0FDFE22682D4E2E4DF6
:100EE800242384F83D30136823F00103136000F0D5
:100EF8006DFF63682268B0FBF5F5B34284BF4FF419
:100F080096716943556091BF691C4FF47A75B1FBBE
:100F1800F5F10131B342116221D85B00B0FBF3F067
:100F2800C0F30B03032B98BF0420216AE369D06147
:100F38000B431360E16823690B439360A1696369FC
:100F48000B43D360136843F0010313600020202390
:100F5800206484F83D30206384F83E0070BDA168A9
:100F680049B903EB4303B0FBF3F0C0F30B0363B1E0
:100F780040F40040D9E719214B43B0FBF3F0C0F32C
:100F88000B0313B140F44040CFE70120CDE7012027
:100F980070BD00BFA086010040420F007047704737
:100FA8007047704770477047704770477047704781
:100FB80090F83D30293B012B10B50368044639D819
:100FC80000220263282280F83D201A6822F4006279
:100FD8001A605A6812F4006254D05A68606B22F49E
:100FE80000625A6090F83530012B394B31D00365D7
:100FF800FFF7B4FD50B12268606B136823F001035A
:101008001360202384F83D30036D984794F83D30F1
:10101800282B0ED1236C5B070BD52E4BE3622022C5
:1010280000232363204684F83D2084F83E30FFF7F0
:10103800BAFF10BD90F83D20602A05D05A68120505
:101048005CBF202280F83D200022226384F83E20E5
:10105800BBE7A06B0365FFF781FD0028D6D02268A7
:101068005369580604D5636A1269591C61621A707B
:101078002268A06B136823F001031360202384F80F
:101088003D30C1E794F83D10602914D1202184F83F
:101098003D1022645A69510604D5626A1B69511CC5
:1010A800616213702268136823F0010313602046FD
:1010B800FFF77DFFAAE75A69520604D5626A1B69E1
:1010C800511C616213702046FFF770FF9EE700BF56
:1010D800E91800080000FFFF0368F0B59D69596929
:1010E8005A6890F83E40E4B2102C8DB002D0402CE3
:1010F80040F0558211F0011F66D0970564D590F82D
:101108003E40402C43D1046D002C3BD1446C04F08C
:10111800FE041C61984E994C2E400C40002E00F0A5
:101128009F81974D0D40002D00F06681550540F1D7
:101138006381002C40F0608190F83D20058D90F887
:101148003E10C46AD2B2C9B2002D40F00581212AEE
:1011580040F00481042C00F06C81082C00F06981B7
:1011680014F5803F00F065815A6822F4E0625A6005
:101178001123036380F83E50202380F83D30FFF7A9
:101188000DFFF6E0446C44F00104E4B2C1E70469E1
:10119800B4F5804F05D190F83D40212C446CF2D134
:1011A800B5E7046D34B9446CE41104F0060444F066
:1011B800F004AEE7046D012CACD1446CE41104F0EA
:1011C800060444F0F104A4E76E4C0C401CB19605EB
:1011D80001D5446CD9E76C4C0C40002C9AD094058E
:1011E80098D590F83E40C66AD0F830E090F83D7047
:1011F800222FE4B240F0A880076D47B9402C06D1F1
:1012080001975C6901949C690194019C82E7046DD3
:101218008CB90769B7F5404F0DD102945C69029407
:101228009C690294029C1C6844F480741C60046DE0
:10123800013404656EE7448DA4B254B903945C6923
:1012480003949C690394039C1C6844F400741C6018
:1012580019E0448DA4B2012C42D116F5803F1BD170
:101268001C6824F480641C605C6814F400640CD06E
:101278001C6824F480641C60002404945C69049451
:101288009C690494049C0024D3E705945C69059444
:101298009C690594059CD7E7042E15D0082E13D019
:1012A800BEF1120F10D0C46A022C1C6814BF24F4BB
:1012B800806444F480641C60002406945C6906948D
:1012C8009C690694069CDEE71C6824F480641C6014
:1012D800002407945C6907949C690794079CB3E70A
:1012E800448DA4B2022C1CD1C46A022C1C681DBFF8
:1012F80024F480641C601C6844F4806418BF44F4BF
:1013080000641C605C68270542BF5C6844F4805434
:101318005C60002408945C6908949C690894089CA3
:10132800B1E71C6844F480641C605C68260542BF11
:101338005C6844F480545C60002409945C690994F6
:101348009C690994099C9EE700240A945C690A94A4
:101358009C690A940A9CDDE6212A03D0402908D119
:10136800222A06D1428D92B282B95A6822F480624A
:101378005A600DB0F0BD00BF040010000400010069
:1013880080000100080001000200010090F83E20E2
:10139800402A27D1026D7AB9C26C012A826C05D124
:1013A800D2B21A61036D02330365E2E7C2F3072282
:1013B8001A61036D0133F7E7026D012A02D1826CCD
:1013C800D2B2F5E7026D022AD3D190F83D20222A45
:1013D80004D11A6842F480721A60CAE790F83D2076
:1013E800212AC6D1426A511C416212781A61438D82
:1013F800013B9BB24385BCE7002CBAD09405B8D515
:10140800C16A90F83D20212AB3D1428D92B2002AB8
:10141800E8D104290DD008290BD011F5803F08D058
:10142800596821F4E06159601123036380F83E2074
:10143800A2E65A6822F4E0625A601A6842F400721E
:101448001A6000232022036380F83D2090F83E2094
:1014580080F83E30402A7FF492AEFFF7A5FD88E77A
:10146800904D0D40002D41D051053FD5002C3DD168
:1014780090F83D20222A7FF47CAF428D92B2032A55
:1014880013D9426A1B69511C41621370438D013B99
:101498009BB24385438D9BB2032B7FF46AAF0268EE
:1014A800536823F48063536063E7012A3FF661AF12
:1014B8001A6822F480621A605A6822F4E0625A605C
:1014C800426A1B69511C41621370438D013B9BB2F8
:1014D8004385202380F83D30046390F83E3080F83F
:1014E8003E40402B58D1FFF760FD42E7002C3FF407
:1014F80040AF97057FF53DAFC16A428D92B2042A8D
:10150800426A08D1596821F480615960511C1B69ED
:10151800416213706BE7448DA4B2032C08D159685B
:1015280021F480615960196821F480611960EDE740
:10153800448DA4B2022CE9D10139012919689DBF53
:1015480021F480611960196841F4007198BF41F471
:10155800807119601B69511C41621370438D013BF6
:101568009BB24385436A5A1C4262026812691A7028
:10157800438D0268013B9BB24385536823F4407353
:101588005360202380F83D300023036390F83E2009
:1015980080F83E30402AA5E7FFF701FDE9E6424C16
:1015A8000C4074B196050CD599699B6981F00401CA
:1015B8001D06C1F3800154BF8289028BFFF7F2FC3C
:1015C800D7E63A4C0C40002C74D0940572D590F8AC
:1015D8003D20596821F4E061596000210B91596957
:1015E8000B91196841F0010119600B99196821F4F0
:1015F8008061196059680905D2B20CD590F83D1080
:10160800222903D090F83D102A2929D1816B096835
:10161800496889B24185418D89B2E1B159694F075D
:1016280008D5416A1B694C1C44620B70438D013B11
:101638009BB2438501684B695E0608D5436A096910
:101648005C1C44621970438D013B9BB24385036C5B
:1016580043F004030364036C23B1FFF7A9FC88E695
:10166800416BD4E7A2F1280102290AD8104AC262C4
:101678002022036380F83D2080F83E30FFF793FC7A
:1016880077E6036B222B02D0222A7FF472AE002366
:101698002022036380F83D2080F83E30FFF781FC6C
:1016A80067E600BF400001000200010010000100D1
:1016B8000000FFFF394E3A4C2E400C40002E36D029
:1016C800384D0D403DB3550525D524BB90F83D1048
:1016D800428D92B2C9B2002A3FF44BAE426A541C02
:1016E800446212781A61428D013A92B24285428D63
:1016F80092B2002A7FF43DAE29297FF43AAE5A68A7
:1017080022F480625A6021230363282380F83D3045
:10171800FFF746FC2DE6002C3FF42BAE94057FF531
:1017280028AE428D92B2002A7FF45CAE21E61E4DAF
:101738000D4035B3510524D51CBB90F83D20418D93
:1017480089B2D2B200293FF414AE416A1B694C1C1D
:1017580044620B70438D013B9BB24385438D9BB222
:10176800002B7FF406AE2A2A7FF403AE0268536882
:1017780023F48063536022230363282380F83D30D9
:101788008CE7002C3FF4F5AD92057FF5F2AD428D64
:1017980092B2002A3FF4EDAD426AB7E604001000A9
:1017A800040001008000010040000100F8B5036852
:1017B800494A5E695D681642044608D0E80506D5C0
:1017C800226C42F0010222646FF480725A6116F4AE
:1017D800813F08D0E90506D5226C42F00202226456
:1017E8006FF400725A6116F4823F36D0EA0534D598
:1017F80094F83E70618D94F83D20206B202F89B2BB
:10180800D2B258D1002956D102F0F701212903D0CC
:10181800282A50D121284ED194F83D20E16A042984
:10182800D2B201D008292CD1282A2AD12B4AE26227
:101838005A6822F4E0625A606FF480625A611A684A
:1018480022F480621A60002320222363204684F851
:101858003D2084F83E30FFF7A6FB16F4843F09D0FC
:10186800EB0507D5236C43F00803236423686FF462
:1018780000625A61236C73B32046BDE8F840FFF755
:1018880097BB212A23D11549E1622263202284F8DB
:101898003D20002284F83E205A6822F4E0625A6013
:1018A8006FF480625A611A6822F480621A602046D6
:1018B800FFF776FBD1E7226C42F00402226494F829
:1018C8003E20102A02BF1A6842F400721A606FF4B0
:1018D80080625A61C1E7F8BD000101000000FFFF06
:1018E800806B08B50368416B1A6822F480621A603D
:1018F800002242850A65816B0A6590F83D106029CF
:101908004FF0200180F83D1080F83E2007D1026496
:101918001A6822F001021A60FFF749FB08BD1A682D
:1019280022F001021A60FFF741FB08BD2DE9F341DF
:10193800044618B9012002B0BDE8F0810368DD074C
:1019480010D42368980758D423681A0700F19A809E
:1019580023685B0700F1B880A269002A40F019816A
:101968000020E8E7A64B9A6802F00C02042A07D088
:101978009A6802F00C02082A0AD15B68590207D556
:101988009F4B1B689A03DCD56368002BD9D1D1E73C
:1019980063689B4DB3F5803F11D12B6843F48033C6
:1019A8002B60FEF7DFFD964D06462B689B03C8D4D7
:1019B800FEF7D8FD801B6428F7D90320BBE7B3F5F1
:1019C800A02F04D12B6843F480232B60E5E72A6815
:1019D80022F480322A602A6822F480222A60002BAE
:1019E800DFD1FEF7BFFD06462B689F03A9D5FEF79A
:1019F800B9FD801B6428F7D9DFE7814B9A6812F09C
:101A08000C0F07D09A6802F00C02082A11D15B6803
:101A18005E020ED47A4B1A68950702D5E268012A4D
:101A280088D11A68216922F0F80242EAC1021A60D4
:101A38008AE7E268734BB2B101221A60FEF792FDA1
:101A48006F4D06462B68980707D52B68226923F047
:101A5800F80343EAC2032B6076E7FEF783FD801B99
:101A68000228EFD9A9E71A60FEF77CFD644D064607
:101A78002B6899077FF568AFFEF774FD801B022875
:101A8800F6D99AE76269604B7AB101221A60FEF7CB
:101A980069FD5B4D06466B6F9F073FF559AFFEF733
:101AA80061FD801B0228F6D987E71A60FEF75AFD08
:101AB800534D06466B6F98077FF54AAFFEF752FD08
:101AC800801B0228F6D978E74D4B1A6C12F0805229
:101AD80028D101921A6C42F080521A641B6C03F0F0
:101AE80080530193019B0126484D2B68D9051BD5CE
:101AF800A368434D012B27D12B6F43F001032B67BC
:101B0800FEF730FD3E4D074641F288382B6F9B07A4
:101B180039D5002E3FF420AF394A136C23F0805397
:101B2800136419E70026DFE72B6843F480732B6002
:101B3800FEF718FD07462B68DA05D9D4FEF712FD23
:101B4800C01B0228F7D938E7052B04D12B6F43F0C7
:101B580004032B67D0E72A6F22F001022A672A6F55
:101B680022F004022A67002BCAD1FEF7FBFC41F2DF
:101B7800883807462B6F9807CBD5FEF7F3FCC01BB8
:101B88004045F7D919E7FEF7EDFCC01B4045BDD924
:101B980013E71B4DAB6803F00C03082B3FF4CAAEE8
:101BA8001B4E0023022A336034D1FEF7DBFC0746C4
:101BB8002B6899011ED4226AE3691343626A43EAD7
:101BC8008213E26A43EA0263A26A0D4C5208013AA0
:101BD80043EA02436B6001233360FEF7C3FC05460A
:101BE80023689A013FF5BCAEFEF7BCFC401B0228F7
:101BF800F6D9E2E6FEF7B6FCC01B0228D8D9DCE627
:101C08000038024000004742800E47420070004002
:101C180060004742FEF7A6FC04462B689B017FF54F
:101C28009FAEFEF79FFC001B0228F6D9C5E600BF51
:101C3800134908B58B6803F00C03042B03D0082B59
:101C480003D0104808BD104808BD4A684B68496869
:101C580013F4800314BF0C480A48C1F3881118BF55
:101C6800002302F03F02A1FB0001FEF7A9FA044B92
:101C78005B68C3F3014301335B00B0FBF3F008BDBD
:101C8800003802400024F40000127A002DE9F041E7
:101C98000D46044610B90120BDE8F081444B1A688E
:101CA80002F00F028A4228D321688F072DD4C80773
:101CB80040D43F4B1A6802F00F02954266D322685F
:101CC80051076CD4130707D53A4A2169936823F45E
:101CD800604343EAC1039360FFF7AAFF354B364AD6
:101CE8009B68C3F30313D35CD840344B18600020BF
:101CF800FEF7EEFB0020BDE8F081CAB21A701B683F
:101D080003F00F039942C6D1CEE72A4B11F0040F16
:101D18001EBF9A6842F4E0529A600E0742BF9A6862
:101D280042F460429A609A68A06822F0F002024386
:101D38009A60BCE762681F4B012A1DD11B6813F427
:101D4800003FA8D01B4EB36823F003031343B360CE
:101D5800FEF708FC41F288380746B368626803F06A
:101D68000C03B3EB820FA4D0FEF7FCFBC01B40456D
:101D7800F3D90320BDE8F081911E01291B6802D820
:101D880013F0007FDDE713F0020FDAE7EAB21A700A
:101D98001B6803F00F039D427FF47DAF8FE7054971
:101DA800E0688B6823F4E05303438B608AE700BF45
:101DB800003C024000380240AE370008080000200E
:101DC800014B1868704700BF08000020044B054A03
:101DD8009B68C3F38223D35C034A1068D8407047DA
:101DE80000380240BE37000808000020044B054AAE
:101DF8009B68C3F34233D35C034A1068D8407047EA
:101E080000380240BE37000808000020036A23F0AB
:101E180001030362036A426870B584690D6824F09F
:101E2800730425438C6823F0020323430C4CA0421F
:101E380009D004F58064A04205D042604A688561F3
:101E48004263036270BDCC688E6923F008032343A4
:101E58004C6922F44072344323F004032243ECE734
:101E680000000140036A23F480730362036A426836
:101E780070B5C4690D6824F0730425438C6823F495
:101E8800007343EA04230E4CA04209D004F5806491
:101E9800A04205D042604A68C561C263036270BD52
:101EA800CC688E6923F4006343EA04234C6922F466
:101EB8004052344323F4806342EA0412EAE700BF45
:101EC80000000140036A23F48053036230B5046ABA
:101ED8004368C2690D6822F4E64242EA05228D6829
:101EE80024F4005444EA0534094DA84209D005F504
:101EF8008065A84205D043604B68C26103640462F0
:101F080030BD4D6923F4804343EA8513F3E700BFEE
:101F1800000001400368DA6842F00102DA601A68DA
:101F280042F001021A6000207047704790F838307C
:101F3800012B70B54FF002031CD080F839300368CC
:101F4800012280F838209A6822F47F4222F0770232
:101F58009A600A68402A79D019D8102A00F093802C
:101F68000AD8002A00F08980012380F8393000233C
:101F780080F83830184670BD202A00F08A80302A50
:101F8800F2D19A6822F0700242F0370236E0702AE5
:101F980036D01BD8502A42D0602AE5D11C6A4D6839
:101FA800CE6824F010041C6299691A6A21F4704101
:101FB80022F0A00242EA051241EA063199611A624A
:101FC8009A6822F0700242F0670217E0B2F5805F6B
:101FD80011D0B2F5005FC7D18A684D689C68C9689E
:101FE8002A4324F47F4442EA012222439A609A68F1
:101FF80042F4804202E09A6822F007029A60B3E74E
:102008008A684D689C68C9682A4324F47F4442EA78
:10201800012222439A609A6842F07702EEE74C6800
:10202800CE68196A1D6A25F001051D629A6921F0BA
:102038000A0122F0F00242EA061221439A6119626B
:102048009A6822F0700242F05702D7E74C68CE68CF
:10205800196A1D6A25F001051D629A6921F00A01B5
:1020680022F0F00242EA061221439A6119629A6844
:1020780022F0700242F04702C0E79A6822F070022C
:1020880042F00702BAE79A6822F0700242F017029B
:10209800B4E79A6822F0700242F02702AEE7704770
:1020A80070477047704703681A69910710B504466E
:1020B8000ED5DA6892070BD56FF002021A619B6998
:1020C80001229B07027677D0FFF7EAFF00232376E9
:1020D80023681A69500710D5DA6851070DD56FF0D3
:1020E80004021A619B69022213F4407F227620467B
:1020F80068D0FFF7D5FF0023237623681A691207F3
:102108000FD5DA6810070CD56FF008021A61DB6981
:1021180004229907227620465AD0FFF7C1FF0023F0
:10212800237623681A69D20610D5DA68D0060DD549
:102138006FF010021A61DB69082213F4407F2276DF
:1021480020464BD0FFF7ACFF0023237623681A699B
:10215800D10708D5DA68D20705D56FF001021A61F0
:10216800204600F09FFE23681A69100608D5DA6831
:10217800110605D56FF080021A61204600F0CFF9EC
:1021880023681A69520608D5DA68500605D56FF033
:1021980040021A612046FFF785FF23681A699106F5
:1021A80022D5DA6892061FD56FF0200220461A6100
:1021B800BDE8104000F0B2B9FFF771FF2046FFF705
:1021C80070FF83E7FFF76BFF2046FFF76AFF92E790
:1021D800FFF765FF2046FFF764FFA0E7FFF75FFF03
:1021E8002046FFF75EFFAFE710BD00002E4A0368E8
:1021F800904212D0B0F1804F0FD0A2F57C429042AD
:102208000BD002F58062904207D002F580629042BE
:1022180003D002F5784290421DD14A6823F070033A
:102228001343214A904204D1CA6823F440731343EC
:1022380028E0B0F1804FF7D01C4A9042F4D002F564
:1022480080629042F0D002F580629042ECD002F5B4
:1022580078429042E8D0164A9042E5D002F5806272
:102268009042E1D002F580629042DDD0A2F598322A
:102278009042D9D002F580629042D5D002F58062B2
:102288009042D1D003608B68C3620B688362064BAF
:10229800984206D003F58063984202D00123436137
:1022A80070470B690363F9E7000001400004004030
:1022B8000040014010B50446A0B190F8393003F051
:1022C800FF021BB980F8382000F0BEFF022384F813
:1022D80039302068211DFFF789FF012384F8393040
:1022E800002010BD012010BD10B50446A0B190F823
:1022F800393003F0FF021BB980F83820FFF715FECC
:10230800022384F839302068211DFFF76FFF01236D
:1023180084F83930002010BD012010BD036A23F075
:1023280010030362036A426870B584690D6824F477
:10233800E64444EA05258C6823F0200343EA0413A5
:102348000D4CA04209D004F58064A04205D042603B
:102358004A6885618263036270BDCC688E6923F028
:10236800800343EA04134C6922F44062344323F0A7
:10237800400342EA8402EAE70000014038B590F8D9
:102388003830012B04464FF0020025D0012384F891
:10239800383084F839000C2A18D8DFE802F007171B
:1023A80017171E1717172F17171740002068FFF762
:1023B8002DFD236809699A6942F008029A619A69B1
:1023C80022F004029A619A690A439A610123002063
:1023D80084F8393084F8380038BD2068FFF79EFF4C
:1023E800236809699A6942F400629A619A6922F439
:1023F80080629A619A6942EA0122E6E72068FFF75B
:1024080031FD23680969DA6942F00802DA61DA699C
:1024180022F00402DA61DA690A43DA61D6E7206851
:10242800FFF750FD23680969DA6942F40062DA614E
:10243800DA6922F48062DA61DA6942EA0122ECE7B9
:10244800036A10B501248C4023EA04030362036A7B
:102458008A401A43026210BD10B504460122006882
:10246800FFF7EEFF2368084A934203D002F5806223
:10247800934203D15A6C42F400425A641A6842F0FB
:1024880001021A60002010BD0000014090F83830A9
:10249800012B10B54FF0020318D080F839300368CB
:1024A8000C685A68496822F070025A605A682243D8
:1024B8005A609A6822F080029A609A680A439A6081
:1024C800012380F83930002380F83830184610BDD1
:1024D80090F83830012B1FD0CB688A6823F44073FA
:1024E80013434A6823F4806313430A6823F40063A0
:1024F80013430A6923F4805313434A6923F40053AE
:1025080013438A6923F44043134302685364002346
:1025180080F8383018467047022070477047704777
:102528000368DA6822F49072DA605A6922F00102CC
:102538005A61012380F83D30704700002DE9F843C7
:102548000546002800F08C8090F83D3003F0FF022B
:102558001BB980F83C2001F07FF82E68E969022356
:1025680085F83D30F36823F00C03F360AB693269FA
:102578000B43296A43F400630B43E96822F47C5255
:102588000B43134333612969AB68F2680B436969EC
:1025980022F4164243F4004322F00C020B43134387
:1025A800F360736923F4407373612F4B9E4203D029
:1025B80003F580639E423BD1FFF718FC6F6819242E
:1025C80004FB00F37F004FF06408B3FBF7F3B3FBA1
:1025D800F8F31F01FFF70AFC6B6860435B00B0FB70
:1025E800F3F9FFF703FC6B6860435B00B0FBF3F3A0
:1025F800B3FBF8F308FB13931B013233B3FBF8F377
:1026080003F00F033B43B3602B681A6922F480423E
:102618001A615A6922F02A025A61DA6842F40052B1
:10262800DA6000200123286485F83D30BDE8F8838E
:10263800FFF7CCFB6F68192404FB00F37F004FF011
:102648006408B3FBF7F3B3FBF8F31F01FFF7BEFB16
:102658006B6860435B00B0FBF3F9FFF7B7FBC2E7B9
:102668000120BDE8F88300BF0010014070477047A3
:1026780090F83D30222B10B546D183680169026875
:10268800B3F5805FC36A2AD121BB5168C1F3080141
:1026980023F8021BC362438E013B9BB2438613B1EE
:1026A80040F2FF135360448EA4B28CB90368DA6811
:1026B80022F02002DA60DA6822F48072DA605A695D
:1026C80022F001025A61012380F83D30FFF7CFFF65
:1026D800002010BD5168C9B223F8011BDAE769B9B7
:1026E800591C5268C1621A70438E013B9BB24386E3
:1026F800002BD8D00368FF225A60D4E75268591CCF
:10270800C16202F07F02EEE7022010BD704790F828
:102718003D30322B10B565D1438D9BB2E3B10268D1
:102728001368190618D58368B3F5805F436A44D1E6
:102738001988C1F308015160016900293BD10233AE
:102748004362438D013B9BB24385438D9BB21BB9CA
:10275800D36823F08003D360438E9BB2A3B1026891
:1027680013689B0610D583680169B3F5805FC36A57
:102778002CD1526831BBC2F3080223F8022BC36282
:10278800438E013B9BB24386448EA4B28CB9036846
:10279800DA6822F02002DA60DA6822F48072DA60FD
:1027A8005A6922F001025A61012380F83D30FFF78F
:1027B800ADFF002010BD0133C2E7591C41621B78F0
:1027C8005360BEE7D2B223F8012BD8E721B9591CD0
:1027D8005268C1621A70D3E75268591CC16202F08C
:1027E8007F02F7E7022010BD7047000003681A68EF
:1027F800D96870B5160704465D6910D196066AD582
:102808008D0668D590F83D30222B03D1BDE8704085
:10281800FFF72EBF2046BDE87040FFF778BF15F0E0
:10282800010502D111F4907F55D0D30705D5CE0507
:1028380042BF236C43F001032364500704D51DB144
:10284800236C43F002032364930704D51DB1236C62
:1028580043F004032364160704D51DB1236C43F029
:1028680008032364236C002B75D0950608D58806C9
:1028780006D594F83D30222B204621D1FFF7F8FEEB
:1028880023685D69226C1107204602D415F04005C3
:102898001DD0FFF745FE23685A69520613D55A69B9
:1028A800A06B22F040025A6168B12B4B0365FEF71A
:1028B80055F900284FD0A06BBDE87040036D18474C
:1028C800FFF725FFDCE72046FFF78EFF70BDFFF717
:1028D8008BFF256470BD16062BD50D0629D594F8F7
:1028E8003D20122A96D194F83D20122A33D1A268AD
:1028F800B2F5805F626A17D11188C1F30801596087
:10290800216979B902326262628D013A92B26285B6
:102918000ABBDA6822F08002DA60DA6842F0400224
:10292800DA6070BD0132EEE7511C616212785A60BC
:10293800EAE750060FD54A060DD5DA6822F04002BC
:10294800DA605A6922F001025A61012384F83D30A5
:102958002046FFF78BFE70BD6529000808B5806B1F
:10296800002343864385FFF73FFF08BD1FB5134883
:10297800134B002480E81800124B83620123846003
:10298800046184610462C462C460C3610463436116
:10299800FDF702FE18B149210B4800F067FB01233F
:1029A80069460648009401930294FDF731FF18B177
:1029B8005321054800F05AFB04B010BD2C0100203B
:1029C800002001400100000F943700081FB514488B
:1029D800144B154A0360826200230122436083601E
:1029E800036183610362C362C360C26103634261BE
:1029F800FDF7D2FD18B16C210C4800F037FB02211D
:102A0800012200238DE80E0005486946FDF700FF06
:102A180018B17621054800F029FB05B05DF804FBE4
:102A2800E4000020002101400100000F9437000855
:102A380010B50368194A934288B01ED1184B002478
:102A480001945A6C42F480725A645B6C03F480738C
:102A58000193019B1123039303A9032311480493B2
:102A68000594FEF747F9122022462146FDF77AFF22
:102A78001220FDF7ABFF08B010BD0B4A9342FAD104
:102A8800074B002402945A6C42F400725A645B6C3F
:102A980003F400730293029B0423DCE70020014047
:102AA80000380240000002400021014013B5174BD6
:102AB800002401941A6B42F400121A631B6B03F48E
:102AC80000132246214601930B20019BFDF74AFF84
:102AD8000B20FDF77BFF224621460D20FDF742FF24
:102AE8000D20FDF773FF224621461120FDF73AFF1E
:102AF8001120FDF76BFF224621462F20FDF732FFFC
:102B08002F20FDF763FF02B010BD00BF0038024060
:102B18002DE9F0438DB00024454B01941A6B454EC6
:102B2800DFF81891DFF81881434F42F010021A635A
:102B38001A6B02F010020192019A02941A6B42F089
:102B480004021A631A6B02F004020292029A0394B6
:102B58001A6B42F080021A631A6B02F08002039229
:102B6800039A04941A6B42F001021A631A6B02F07A
:102B780001020492049A05941A6B42F002021A6345
:102B88001A6B02F002020592059A06941A6B42F03B
:102B980008021A631B6B03F00803069322463046AB
:102BA8002A21069BFEF786F9224648464FF4005133
:102BB800FEF780F9224640464FF4A061FEF77AF905
:102BC800224638463F21FEF775F9552307A93046B6
:102BD8000125079308940994FEF78CF82A2307A97E
:102BE80030460793089509940A94FEF783F84FF442
:102BF800005307A948460793089509940A94FEF7D5
:102C080079F84FF4A06307A94046079308950994FB
:102C18000A94FEF76FF83F2307A9384607930895EB
:102C280009940A94FEF766F80DB0BDE8F08300BF7A
:102C38000038024000100240000C02400008024028
:102C48000000024008B50D480D4BDFF83CE04FF49A
:102C5800804280E8084000238360C36002614361CA
:102C68008361C3610362FEF72BF928B14821054847
:102C7800BDE8084000F0FAB908BD00BFD401002043
:102C880000540040A1370008801A060008B50D4816
:102C98000D4BDFF83CE04FF4804280E80840002309
:102CA8008360C360026143618361C3610362FEF7AD
:102CB80007F928B15B210548BDE8084000F0D6B9FE
:102CC80008BD00BF2802002000580040A1370008B6
:102CD800801A060030B50368654A934289B00546F4
:102CE80062D1C02303931223049301230593032382
:102CF800069303A904235F480793FDF7FBFF00230E
:102D08005D4A0193116C5D4C5D4841F400111164FA
:102D1800126CA36002F400120192019AE3604FF072
:102D2800007284E805004FF48062204622616361E6
:102D3800A361E36123626362FDF792FE18B1862105
:102D4800504800F093F9AC634F49A5634F4C4FF0DE
:102D58000072402384E80E004FF480620023226151
:102D680020464FF48072E3606361A361E2612362ED
:102D78006362FDF775FE18B19821424800F076F9B4
:102D8800002211466C631F20A563FDF7EBFD1F2091
:102D9800FDF71CFE002220201146FDF7E3FD202050
:102DA800FDF714FE09B030BD394A9342FAD14FF409
:102DB800406303931223049301230593032306938B
:102DC80003A904232B480793FDF794FF00232A4AFD
:102DD8000293116C2F4C41F480011164126C2E493E
:102DE800A36002F480020292029AE3604FF06062EC
:102DF80084E8060020464FF4806222616361A36183
:102E0800E36123626362FDF72BFE18B1C8211D48F8
:102E180000F02CF9AC63214BA563214C4FF0606C9A
:102E28004FF0400E84E808504FF48062002320469B
:102E3800E36022616361A361E36123626362FDF77A
:102E48000FFE18B1DA210F4800F010F900221146E0
:102E58006C632120A563FDF785FD2120FDF7B6FDF4
:102E6800002222201146FDF77DFD222098E700BFB1
:102E78000054004000040240003802403C03002097
:102E880010600240A1370008A060024074010020D1
:102E9800005800407C02002040600240B8600240B8
:102EA800DC020020164B02681B689A4227D1154B9A
:102EB800DFED156AD3ED0C7AB0EE007A77EEC77ABB
:102EC80087EEA67AC3ED0C7A104B83ED007A104B8F
:102ED8001A68B2F57A7F04BF00221A600D4B1A6B8C
:102EE8000D4A106B0D4A596B10600D4A11609A6BB0
:102EF8000C4B1A600C4B1B6858639963DA63704774
:102F080028040020AC0300200000B442A0030020E5
:102F180028000020A800002030000020E80300203E
:102F2800A8030020A40300206404002030B595B055
:102F3800264B002101911A6C42F080521A641B6CD6
:102F480003F080530193019B214B02911A6842F4CC
:102F580080421A601B6803F480430293029B01239A
:102F680008934FF4803309934FF480030225042417
:102F78000F9308A8A8230E951094119312951394F3
:102F8800FEF7D4FC00B1FEE70F23039305904FF43E
:102F9800A053052103A8049506930793FEF776FE30
:102FA800054600B1FEE7FEF70BFF4FF47A73B0FB5E
:102FB800F3F0FDF717FD2046FDF72AFD2A462946BE
:102FC8004FF0FF30FDF7CEFC15B030BD00380240A1
:102FD8000070004008B5FDF79FFAFFF7A7FFFFF75D
:102FE80097FDFFF763FDFFF7C1FCFFF72BFEFFF727
:102FF8004DFE00F0CDF900F047FA00F0A9FA00F014
:103008000BFB00F005F9FFF7E1FC0122022114484F
:10301800144CFDF74FFF012208211148FDF74AFF24
:10302800012220210E48FDF745FF00212046FFF729
:1030380013FA04212046FFF70FFA08212046FFF76C
:103048000BFA236896225A6300229A6340F2DC50F6
:10305800DA63FDF78DFA0448FEF75CFFFEE700BF70
:10306800000C02406404002028040020FEE7000051
:1030780013B5224B002400945A6C42F480425A64DF
:103088005A6C02F480420092009A01941A6C42F041
:1030980080521A641B6C03F0805301930320019B38
:1030A800FDF74EFC224621466FF00B00FDF75AFC57
:1030B800224621466FF00A00FDF754FC22462146BD
:1030C8006FF00900FDF74EFC224621466FF0040020
:1030D800FDF748FC224621466FF00300FDF742FC4D
:1030E800224621466FF00100FDF73CFC22462146AE
:1030F8004FF0FF30FDF736FC02B010BD003802403B
:103108007047FEE7FEE7FEE7FEE770477047704747
:1031180008B5FDF71BFABDE80840FDF786BC0000BE
:103128000148FDF72DBD00BF3C0300200148FDF715
:1031380027BD00BF7C0200200148FDF721BD00BF6C
:103148007401002008B50448FDF7CDFA0348BDE82E
:103158000840FDF7C8BA00BF2C010020E400002099
:1031680008B50448FEF79FFF0348BDE80840FEF78E
:103178009ABF00BFA0040020280400200148FDF7E2
:10318800ABBF00BFD40100200148FEF70FBB00BF52
:10319800D40100200148FDF79FBF00BF280200208E
:1031A8000148FEF703BB00BF280200200148FFF7D3
:1031B8001DBB00BFDC0400200148FDF7E1BC00BFD7
:1031C800DC0200200F49D1F8883043F47003C1F8BD
:1031D80088300D4B1A68002042F001021A6098608E
:1031E8001A6822F0847222F480321A60074A5A6000
:1031F8001A6822F480221A60D8604FF000638B604E
:10320800704700BF00ED00E0003802401030002495
:103218000A480B4908B5532380E80A0040F2E73210
:1032280000238360C2600361FFF744F828B1FB21E3
:103238000448BDE80840FFF719BF08BD280400206E
:1032480000440140C63700081FB50368244A93426A
:1032580013D1244B00220092596C41F001015964AA
:103268005B6C03F001030093009B11461920FDF7E6
:1032780079FB1920FDF7AAFB0EE01B4A93420ED1F9
:1032880000230193174B1A6C42F002021A641B6C5C
:1032980003F002030193019B05B05DF804FB134A98
:1032A80093420CD1002302930E4B1A6C42F0040295
:1032B8001A641B6C03F004030293029BECE70C4AAC
:1032C8009342E9D1074B00220392596C41F4003133
:1032D80059645B6C03F400330393039BC5E700BF99
:1032E800000001400038024000040040000800408F
:1032F8000044014070B503681E4A934286B010D15D
:103308004FF42853019312230293002303930323BA
:10331800049319480123059301A9FDF7EBFC06B0B6
:1033280070BD164A934215D10224C02300260325F6
:1033380001A9134801930294039604950594FDF797
:10334800D9FC01230193029403960495059401A9DD
:103358000C48E2E70C4A9342E1D14FF4E0430022E3
:10336800019303920223032202930492059301A975
:103378000648D2E700000140001002400004004067
:10338800000002400004024000080040000C024017
:1033980000B53A483A49062395B080E80A0040F259
:1033A8008F1200238360C26003614361FEF782FFCE
:1033B80018B144213348FFF759FE14A94FF480533C
:1033C80041F8483D2D48FEF7B1FD18B14A212D4876
:1033D800FFF74CFE2948FEF787FF18B14F2129480F
:1033E800FFF744FE00236946244800930193FFF742
:1033F8004DF818B156212348FFF738FE0022602304
:1034080006A91E4806930792089209920A920B92FF
:103418000C92FEF7B3FF18B162211A48FFF726FE97
:10342800042206A91548FEF7A9FF18B16721154817
:10343800FFF71CFE082206A91048FEF79FFF18B1E7
:103448006C211048FFF712FE00234FF400520DA91B
:103458000A480D930E930F9310931193129213939E
:10346800FFF736F818B178210648FFF7FFFD034843
:10347800FFF740FF15B05DF804FB00BFA004002073
:1034880000000140C637000800B52E482E49062323
:103498008FB080E80A0040F28F1200238360C26078
:1034A8000361FEF707FF18B18C212848FFF7DEFDFE
:1034B8000EA94FF4805341F82C3D2248FEF736FD03
:1034C80018B192212148FFF7D1FD1E48FEF70CFFE5
:1034D80018B197211D48FFF7C9FD002301A9194814
:1034E80001930293FEF7D2FF18B19E211748FFF708
:1034F800BDFD0022602307A912480793089209928C
:103508000B92FEF73BFF18B1A7211048FFF7AEFD5D
:10351800042207A90B48FEF731FF18B1AC210B486C
:10352800FFF7A4FD082207A90648FEF727FF18B1F0
:10353800B1210648FFF79AFD0248FFF7DBFE0FB0FE
:103548005DF804FB6404002000040040C63700084E
:1035580000B52E482E4906238FB080E80A0040F2B5
:103568008F1200238360C2600361FEF7A3FE18B1C7
:10357800C5212848FFF77AFD0EA94FF4805341F87A
:103588002C3D2248FEF7D2FC18B1CB212148FFF789
:103598006DFD1E48FEF7A8FE18B1D0211D48FFF7A3
:1035A80065FD002301A9194801930293FEF76EFFF8
:1035B80018B1D7211748FFF759FD0022602307A942
:1035C80012480793089209920B92FEF7D7FE18B19A
:1035D800E0211048FFF74AFD042207A90B48FEF72F
:1035E800CDFE18B1E5210B48FFF740FD082207A9D9
:1035F8000648FEF7C3FE18B1EA210648FFF736FD74
:103608000248FFF777FE0FB05DF804FBEC030020DB
:1036180000080040C637000808B50C480C4B4FF4AA
:10362800E13E80E808400C2200238360C360036108
:1036380042618361C3610362FEF780FF28B14221C2
:103648000448BDE80840FFF711BD08BDDC040020B0
:1036580000480040D3370008F0B50268194B9A4279
:1036680087B02DD1002403F5F83300941A6C16485E
:1036780042F480221A641B6C039403F480230093A1
:10368800009B02274FF480530326072501A90193C5
:10369800029704960595FDF72DFB4FF4407301A999
:1036A8000A4801930297039404960595FDF722FBB7
:1036B800272022462146FDF755F92720FDF786F9F0
:1036C80007B0F0BD0048004000040240000C024072
:1036D800DFF834D0002103E00C4B5B584350043131
:1036E8000B480C4B42189A42F6D30B4A02E00023CF
:1036F80042F8043B094B9A42F9D3FFF763FD00F007
:1037080011F8FFF767FC704700000220F437000843
:10371800000000200C0000200C00002020050020E4
:10372800FEE7000070B50D4E0D4CA41BA41000253B
:10373800A54209D10B4E0C4C00F018F8A41BA4109C
:103748000025A54205D170BD56F8253098470135AA
:10375800EEE756F8253098470135F2E7EC370008D0
:10376800EC370008EC370008F0370008F8B500BF60
:10377800F8BC08BC9E467047F8B500BFF8BC08BC4A
:043788009E467047A2
:10378C0000061016000610162E2E5C5372635C6138
:10379C0064632E63002E2E5C5372635C6932632E5D
:1037AC006300000000000000000001020304060793
:1037BC00080900000000010203042E2E5C53726302
:1037CC005C74696D2E63002E2E5C5372635C757392
:0837DC006172742E630000000D
:0837E40014CAFF7F0100000080
:0437EC00AD01000823
:0437F0008901000843
:0C37F40001000000100000000024F400A0
:04000005080036D9E0
:00000001FF
