:020000040800F2
:10000000000002207D5B0008AD550008AF550008D8
:10001000B1550008B3550008B555000800000000B0
:10002000000000000000000000000000B7550008BC
:10003000B955000800000000BB550008BD55000878
:10004000CD5B0008CD5B0008CD5B0008CD5B0008F0
:10005000CD5B0008CD5B0008CD5B0008CD5B0008E0
:10006000CD5B0008CD5B0008CD5B0008CD550008D6
:10007000CD5B0008D9550008CD5B0008CD5B0008BA
:10008000CD5B0008E5550008F1550008CD5B000880
:10009000CD5B0008CD5B0008CD5B0008CD5B0008A0
:1000A000CD5B00080D560008CD5B0008CD5B000855
:1000B000CD5B0008CD5B0008CD5B00082956000829
:1000C00035560008415600084D560008CD5B000823
:1000D000CD5B0008CD5B0008CD5B000859560008D9
:1000E000CD5B0008CD5B0008CD5B0008CD5B000850
:1000F000CD5B0008CD5B0008CD5B000865560008AD
:10010000CD5B0008CD5B0008CD5B0008CD5B00082F
:10011000CD5B0008CD5B0008CD5B0008CD5B00081F
:10012000CD5B0008CD5B0008CD5B0008CD5B00080F
:10013000CD5B0008CD5B0008CD5B0008CD5B0008FF
:10014000CD5B0008CD5B0008CD5B0008CD5B0008EF
:10015000CD5B0008CD5B0008CD5B0008CD5B0008DF
:10016000CD5B0008CD5B0008CD5B0008CD5B0008CF
:10017000CD5B0008CD5B0008CD5B000800000000EF
:08018000CD5B0008CD5B000817
:1001880010B5054C237833B9044B13B10448AFF3C9
:1001980000800123237010BD8800002000000000AB
:1001A8003468000808B5034B1BB103490348AFF393
:1001B800008008BD000000008C00002034680008A2
:1001C80081F0004102E000BF83F0004330B54FEA00
:1001D80041044FEA430594EA050F08BF90EA020F6D
:1001E8001FBF54EA000C55EA020C7FEA645C7FEA00
:1001F800655C00F0E2804FEA5454D4EB5555B8BF23
:100208006D420CDD2C4480EA020281EA030382EA93
:10021800000083EA010180EA020281EA0303362D25
:1002280088BF30BD11F0004F4FEA01314FF4801CF8
:100238004CEA113102D0404261EB410113F0004F0A
:100248004FEA03334CEA133302D0524263EB4303C1
:1002580094EA050F00F0A780A4F10104D5F1200E5F
:100268000DDB02FA0EFC22FA05F2801841F10001BA
:1002780003FA0EF2801843FA05F359410EE0A5F18E
:1002880020050EF1200E012A03FA0EFC28BF4CF0BF
:10029800020C43FA05F3C01851EBE37101F0004575
:1002A80007D54FF0000EDCF1000C7EEB00006EEB82
:1002B8000101B1F5801F1BD3B1F5001F0CD349080C
:1002C8005FEA30004FEA3C0C04F101044FEA445263
:1002D80012F5800F80F09A80BCF1004F08BF5FEAEA
:1002E800500C50F1000041EB045141EA050130BDCA
:1002F8005FEA4C0C404141EB010111F4801FA4F16D
:100308000104E9D191F0000F04BF01460020B1FAC1
:1003180081F308BF2033A3F10B03B3F120020CDAF9
:100328000C3208DD02F1140CC2F10C0201FA0CF0D7
:1003380021FA02F10CE002F11402D8BFC2F1200C3C
:1003480001FA02F120FA0CFCDCBF41EA0C019040F2
:10035800E41AA2BF01EB0451294330BD6FEA04043B
:100368001F3C1CDA0C340EDC04F11404C4F1200226
:1003780020FA04F001FA02F340EA030021FA04F338
:1003880045EA030130BDC4F10C04C4F1200220FA8F
:1003980002F001FA04F340EA0300294630BD21FACD
:1003A80004F0294630BD94F0000F83F4801306BF93
:1003B80081F480110134013D4EE77FEA645C18BF87
:1003C8007FEA655C29D094EA050F08BF90EA020F1E
:1003D80005D054EA000C04BF1946104630BD91EA16
:1003E800030F1EBF0021002030BD5FEA545C05D119
:1003F8004000494128BF41F0004130BD14F5800458
:100408003CBF01F5801130BD01F0004545F0FE41CB
:1004180041F470014FF0000030BD7FEA645C1ABF00
:10042800194610467FEA655C1CBF0B46024650EA37
:10043800013406BF52EA033591EA030F41F4002163
:1004480030BD00BF90F0000F04BF0021704730B5E9
:100458004FF4806404F132044FF000054FF00001BE
:1004680050E700BF90F0000F04BF0021704730B57F
:100478004FF4806404F1320410F0004548BF404254
:100488004FF000013EE700BF42004FEAE2014FEAA9
:1004980031014FEA02701FBF12F07F4393F07F4F84
:1004A80081F06051704792F0000F14BF93F07F4FB6
:1004B800704730B54FF4607401F0004521F00041F9
:1004C80020E700BF50EA010208BF704730B54FF07F
:1004D80000050AE050EA010208BF704730B511F084
:1004E800004502D5404261EB41014FF4806404F1BC
:1004F80032045FEA915C3FF4DCAE4FF003025FEA3E
:10050800DC0C18BF03325FEADC0C18BF033202EBC5
:10051800DC02C2F1200300FA03FC20FA02F001FA1F
:1005280003FE40EA0E0021FA02F11444C1E600BFBE
:1005380070B54FF0FF0C4CF4E06C1CEA11541DBF71
:100548001CEA135594EA0C0F95EA0C0F00F0DEF83C
:100558002C4481EA030621EA4C5123EA4C5350EA21
:10056800013518BF52EA033541F4801143F4801372
:1005780038D0A0FB02CE4FF00005E1FB02E506F003
:100588000042E0FB03E54FF00006E1FB03569CF058
:10059800000F18BF4EF0010EA4F1FF04B6F5007F5E
:1005A80064F5407404D25FEA4E0E6D4146EB0606D0
:1005B80042EAC62141EA55514FEAC52040EA5E5059
:1005C8004FEACE2EB4F1FD0C88BFBCF5E06F1ED803
:1005D800BEF1004F08BF5FEA500E50F1000041EB3A
:1005E800045170BD06F0004646EA010140EA0200E7
:1005F80081EA0301B4EB5C04C2BFD4EB0C0541EA09
:10060800045170BD41F480114FF0000E013C00F31D
:10061800AB8014F1360FDEBF002001F0004170BD41
:10062800C4F10004203C35DA0C341BDC04F114045A
:10063800C4F1200500FA05F320FA04F001FA05F2E6
:1006480040EA020001F0004221F0004110EBD370B3
:1006580021FA04F642EB06015EEA430E08BF20EADF
:10066800D37070BDC4F10C04C4F1200500FA04F382
:1006780020FA05F001FA04F240EA020001F0004114
:1006880010EBD37041F100015EEA430E08BF20EA87
:10069800D37070BDC4F1200500FA05F24EEA020ECF
:1006A80020FA04F301FA05F243EA020321FA04F0FE
:1006B80001F0004121FA04F220EA020000EBD370B5
:1006C8005EEA430E08BF20EAD37070BD94F0000FB5
:1006D8000FD101F00046400041EB010111F4801FE9
:1006E80008BF013CF7D041EA060195F0000F18BF9A
:1006F800704703F00046520043EB030313F4801FD6
:1007080008BF013DF7D043EA0603704794EA0C0F8F
:100718000CEA135518BF95EA0C0F0CD050EA4106A5
:1007280018BF52EA4306D1D181EA030101F0004122
:100738004FF0000070BD50EA410606BF104619464A
:1007480052EA430619D094EA0C0F02D150EA013656
:1007580013D195EA0C0F05D152EA03361CBF104697
:1007680019460AD181EA030101F0004141F0FE4136
:1007780041F470014FF0000070BD41F0FE4141F4BA
:10078800780170BD70B54FF0FF0C4CF4E06C1CEABA
:1007980011541DBF1CEA135594EA0C0F95EA0C0F6F
:1007A80000F0A7F8A4EB050481EA030E52EA03352A
:1007B8004FEA013100F088804FEA03334FF080554B
:1007C80045EA131343EA12634FEA022245EA111578
:1007D80045EA10654FEA00260EF000419D4208BF29
:1007E800964244F1FD0404F5407402D25B084FEAD6
:1007F8003202B61A65EB03055B084FEA32024FF482
:1008080080104FF4002CB6EB020E75EB030E22BFDE
:10081800B61A754640EA0C005B084FEA3202B6EB9E
:10082800020E75EB030E22BFB61A754640EA5C004D
:100838005B084FEA3202B6EB020E75EB030E22BFDD
:10084800B61A754640EA9C005B084FEA3202B6EBDE
:10085800020E75EB030E22BFB61A754640EADC009D
:1008680055EA060E18D04FEA051545EA16754FEAFF
:1008780006164FEAC30343EA52734FEAC2025FEA1D
:100888001C1CC0D111F4801F0BD141EA00014FF0AC
:1008980000004FF0004CB6E711F4801F04BF01437D
:1008A8000020B4F1FD0C88BFBCF5E06F3FF6AFAE99
:1008B800B5EB030C04BFB6EB020C5FEA500C50F129
:1008C800000041EB045170BD0EF0004E4EEA1131AC
:1008D80014EB5C04C2BFD4EB0C0541EA045170BDB3
:1008E80041F480114FF0000E013C90E645EA060EF7
:1008F8008DE60CEA135594EA0C0F08BF95EA0C0F25
:100908003FF43BAF94EA0C0F0AD150EA01347FF46C
:1009180034AF95EA0C0F7FF425AF104619462CE743
:1009280095EA0C0F06D152EA03353FF4FDAE1046A6
:10093800194622E750EA410618BF52EA43067FF4F7
:10094800C5AE50EA41047FF40DAF52EA43057FF487
:10095800EBAE12E74FF0FF3C06E000BF4FF0010C92
:1009680002E000BF4FF0010C4DF804CD4FEA410CF6
:100978007FEA6C5C4FEA430C18BF7FEA6C5C1BD0C3
:1009880001B050EA410C0CBF52EA430C91EA030F44
:1009980002BF90EA020F0020704710F1000F91EAA1
:1009A800030F58BF994208BF90422CBFD8176FEA6F
:1009B800E37040F0010070474FEA410C7FEA6C5C3D
:1009C80002D150EA013C07D14FEA430C7FEA6C5C44
:1009D800D6D152EA033CD3D05DF8040B704700BF70
:1009E8008446104662468C461946634600E000BFBE
:1009F80001B5FFF7B7FF002848BF10F1000F01BD90
:100A08004DF808EDFFF7F4FF0CBF012000205DF85A
:100A180008FB00BF4DF808EDFFF7EAFF34BF0120DF
:100A280000205DF808FB00BF4DF808EDFFF7E0FF78
:100A380094BF012000205DF808FB00BF4DF808EDC9
:100A4800FFF7CEFF94BF012000205DF808FB00BF30
:100A58004DF808EDFFF7C4FF34BF012000205DF812
:100A680008FB00BF4FEA410C7FEA6C5C02D150EAF8
:100A7800013C0AD14FEA430C7FEA6C5C02D152EA8E
:100A8800033C02D14FF0000070474FF0010070475F
:100A98004FEA4102B2F1E04324BFB3F5001CDCF198
:100AA800FE5C0DD901F0004C4FEAC0024CEA5070D0
:100AB800B2F1004F40EB830008BF20F001007047FF
:100AC80011F0804F21D113F13872BCBF01F0004002
:100AD800704741F480114FEA5252C2F11802C2F134
:100AE800200C10FA0CF320FA02F018BF40F00100B5
:100AF8004FEAC1234FEAD32303FA0CFC40EA0C0067
:100B080023FA02F34FEA4303CCE77FEA625307D1A3
:100B180050EA01331EBF4FF0FE4040F440007047DA
:100B280001F0004040F0FE4040F40000704700BF74
:100B380053B94AB9002908BF00281CBF4FF0FF313C
:100B48004FF0FF3000F07AB9ADF1080C6DE904CE32
:100B580000F006F8DDF804E0DDE9022304B0704790
:100B68002DE9F0478C460D460446089E002B51D1CE
:100B78008A4217466DD9B2FA82FEBEF1000F0BD039
:100B8800CEF1200C01FA0EF520FA0CFC02FA0EF751
:100B98004CEA050C00FA0EF44FEA174A250CBCFB88
:100BA800FAF81FFA87F90AFB18CC45EA0C4508FB46
:100BB80009F3AB420AD9ED1908F1FF3280F023811D
:100BC800AB4240F22081A8F102083D44ED1AA4B2DC
:100BD800B5FBFAF00AFB105544EA054400FB09F995
:100BE800A14509D9E41900F1FF3380F00A81A14534
:100BF80040F2078102383C44A4EB090440EA08406B
:100C08000021002E61D024FA0EF4002334607360B2
:100C1800BDE8F0878B4207D9002E54D0002186E822
:100C280021000846BDE8F087B3FA83F1002940F0B7
:100C38008E80AB4202D3824200F2FA80841A65EBBE
:100C480003050120AC46002E3FD086E81010BDE811
:100C5800F08712B90127B7FBF2F7B7FA87FEBEF1A2
:100C6800000F34D1EB1B3A0C1FFA87FC0121B3FBB0
:100C7800F2F8250C02FB183345EA03450CFB08F390
:100C8800AB4207D9ED1908F1FF3002D2AB4200F2AE
:100C9800D1808046ED1AA3B2B5FBF2F002FB1055E5
:100CA80043EA05440CFB00FCA44507D9E41900F10C
:100CB800FF3302D2A44500F2B8801846A4EB0C0416
:100CC80040EA08409DE731463046BDE8F087CEF15E
:100CD800200405FA0EF307FA0EF720FA04F83A0C86
:100CE80025FA04F448EA0308B4FBF2F14FEA184580
:100CF80002FB11441FFA87FC45EA044501FB0CF38B
:100D0800AB4200FA0EF409D9ED1901F1FF3080F079
:100D18008A80AB4240F2878002393D44EB1A1FFAC1
:100D280088F5B3FBF2F002FB103345EA034500FBFC
:100D38000CF3AB4207D9ED1900F1FF386FD2AB4283
:100D48006DD902383D44EB1A40EA01418FE7C1F101
:100D5800200722FA07F88B4005FA01F448EA030352
:100D680020FA07FE4FEA134CFD404EEA040EB5FB8D
:100D7800FCF94FEA1E440CFB19551FFA83F844EAA4
:100D8800054509FB08F4AC4202FA01F200FA01FA3F
:100D980008D9ED1809F1FF3043D2AC4241D9A9F185
:100DA80002091D442D1B1FFA8EFEB5FBFCF00CFB3F
:100DB80010554EEA054400FB08F8A04507D9E41889
:100DC80000F1FF3529D2A04527D902381C4440EA52
:100DD8000940A4EB0804A0FB02894C45C6464D46D1
:100DE80015D312D056B1BAEB0E0364EB050404FA1E
:100DF80007F7CB401F43CC40376074600021BDE843
:100E0800F0871846F8E69046E0E6C245EAD2B8EB25
:100E1800020E69EB03050138E4E72846D7E74046A8
:100E280091E78146BEE7014678E702383C4445E74A
:100E3800084608E7A8F102083D442BE7704700BFC1
:100E480038B50E4A0E4B054618784FF47A73B3FB43
:100E5800F0F31068B0FBF3F000F07CFA044658B9E0
:100E68000F2D09D8024629464FF0FF3000F032FA1C
:100E7800044B20461D6038BD012038BD18000020F5
:100E8800000000200400002008B50B4B1A6842F44B
:100E980000721A601A6842F480621A601A6842F492
:100EA80080721A60032000F003FA0020FFF7C8FFE1
:100EB80004F030FB002008BD003C0240034A044B0C
:100EC80011681B780B441360704700BFC0000020F6
:100ED80000000020014B1868704700BFC0000020C8
:100EE80038B50446FFF7F6FF631C1CBF054B1B789B
:100EF800054618BFE418FFF7EDFF401B8442FAD8F7
:100F080038BD00BF0000002010B50446002800F0DE
:100F18009980036C23B9436480F83C3003F0FEFFEA
:100F2800236CDB0600F18C80236C23F4885323F0B8
:100F3800020343F002032364434B5A6822F440320D
:100F48005A605A6861680A435A60236821695A6876
:100F580022F480725A605A6842EA01225A605A683A
:100F6800A16822F040725A605A680A435A609A6827
:100F7800E16822F400629A609A680A439A603349E9
:100F8800A26A8A4250D0996821F070619960996884
:100F98000A439A609A68E16A22F040529A609A6815
:100FA8000A439A609A68A16922F002029A609A68D4
:100FB80042EA41029A60226A002A3DD05A68616A70
:100FC80042F400625A605A6822F460425A605A68D1
:100FD800013942EA41325A60DA6AE16922F4700260
:100FE800DA62DA6A013942EA0152DA629A68216BF6
:100FF80022F400729A609A6842EA41229A609A68DA
:10100800616922F480629A609A68002042EA81222B
:101018009A606064236C23F0030343F001032364A4
:10102800002384F83C3010BD9A6822F070629A6000
:101038009A6822F04052B4E75A6822F40062CAE77C
:101048000120EDE7012010BD002301400100000F41
:1010580070477047704738B5036819685A688D0734
:1010680004462BD5900629D5226CD1065EBF226C8A
:1010780042F4007222649A6812F0405F17D1A269A4
:10108800AAB9DA6A12F4700F02D09A6852050ED41F
:101098005A6822F020025A60236C23F48073236478
:1010A800236CDB045EBF236C43F0010323642046FA
:1010B800FFF7CEFF23686FF012021A6023681968E1
:1010C8005A684D0732D5100630D5226CD1065EBF5E
:1010D800226C42F4005222649A6812F4401F1ED116
:1010E8009A6B12F4401F02D09A68520517D45A68B6
:1010F800550514D49A6812F0405F10D1A26972B9EC
:101108005A6822F080025A60236C23F480532364C7
:10111800236CD8055EBF236C43F00103236420468B
:1011280000F0C4F823686FF00C021A60236819688D
:101138005A68C9070FD555060DD51B68D8070AD5B3
:10114800236C43F4803323642046FFF782FF23682F
:101158006FF001021A60236819685A6889060DD56C
:1011680052010BD5626C6FF0200542F002026264F6
:1011780020461D60FFF76EFF23681D6038BD000024
:10118800F7B50023019390F83C30012B00F08380E1
:101198000D6804688A680123092D80F83C30AEB2D6
:1011A8002AD906EB4603E7681E3B4FF0070E0EFAF6
:1011B80003FE27EA0E07E760E76802FA03F33B43FA
:1011C800E3604A68062A4FEA820325D81344676B0E
:1011D800591F1F238B4027EA03036363626B06FAD8
:1011E80001F1114361632D4B9C4234D0002380F8F8
:1011F8003C30184603B0F0BD276905EB45034FF0B6
:10120800070E0EFA03FE27EA0E072761276902FA7E
:1012180003F33B432361D4E70C2A0ED81344216B14
:10122800A3F123021F23934021EA03032363236BC3
:1012380006FA02F21A432263D5E71344E16A413BF6
:101248001F229A4021EA0202E262E26A06FA03F1E8
:101258001143E162C7E7122D04D1114A536843F4E0
:1012680080035360A5F11003012BBFD80C4A5368C3
:10127800102D43F400035360B8D10A4B0A4A1B6887
:10128800B3FBF2F20A2353430193019B002BADD029
:10129800019B013BF8E70220ACE700BF00200140BA
:1012A800002301401800002040420F007047000052
:1012B800074AD36823F4E0631B041B0C43F0BF63A5
:1012C800000243F4003300F4E0600343D360704746
:1012D80000ED00E0174B30B5DC68C4F30224C4F11C
:1012E8000703251D042B28BF0423062D4FF00105F5
:1012F80005FA03F303F1FF338CBF033C00241940C4
:10130800A14005FA04F4013C2240002842EA010207
:101318004FEA0212AFBF00F1604000F00F00064B29
:10132800D2B2A5BF00F56140D2B21A5480F80023AA
:1013380030BD00BF00ED00E014ED00E042090123DC
:1013480000F01F0003FA00F0014B43F82200704739
:1013580000E100E00138B0F1807F0AD2064B074A6D
:101368005860F02182F823100020072298601A6044
:1013780070470120704700BF10E000E000ED00E07A
:10138800044B1A6804280CBF42F0040222F004023D
:101398001A60704710E000E0704708B5FFF7FCFFDF
:1013A80008BD00000368DAB223F47F7323F0030357
:1013B8001821103AB2FBF1F20449032A88BF04331A
:1013C800895C8365C165806D704700BF50680008FF
:1013D80070B50446FFF77EFD0546002C71D000234A
:1013E80084F834302268022384F83530136823F0F7
:1013F8000103136021680B68D8073CD40B68324D91
:101408006268A0691D40A3681343E2681343226918
:10141800134362691343E26903431343226A134384
:10142800626A042A43EA050301BF266BE56A35436D
:101438002B430B604B69042A23F0070343EA02039A
:101448000BD1A26AE56A13433DB1F8B9012A2DD040
:1014580001D3022A01D1EA012BD44B612046FFF7C0
:10146800A1FFE26D3F239340836000200123606564
:1014780084F8353070BDFFF72DFD401B0528B9D91C
:1014880020236365032084F8350070BDB0F5005F44
:1014980013D1032AE1D801A050F822F0BB140008A8
:1014A8005F140008BB140008B5140008B5F1C07F2C
:1014B800D3D1402363650120E5E7022AF9D9032A3D
:1014C800C8E7012070BD00BF3F8010F090F83530AC
:1014D800022B03D08023436501207047026805234F
:1014E80080F83530136823F001031360002070473B
:1014F800F7B5002301935A4B856D1F68C36D2E689D
:1015080008229A40164204460CD001680868400731
:1015180008D5086820F004000860AA60626D42F0EF
:101528000102626501229A40164208D02168496981
:10153800090641BFAA60626D42F002026265042298
:101548009A40164208D021680968880741BFAA60F6
:10155800626D42F00402626510229A40164210D071
:101568002368196809070CD5AA601A68500335D58D
:101578001B68190301D4236C00E0A36C0BB120464F
:101588009847E16D20228A40164238D023681868AF
:10159800C60634D5AA6094F83520052A1A6825D1DC
:1015A80022F016021A605A6922F080025A61226CEF
:1015B8000AB9A26C1AB11A6822F008021A603F230D
:1015C8008B40AB60002384F83430012384F8353035
:1015D800236D0BB12046984703B0F0BD1A68D205B9
:1015E8005EBF1A6822F008021A60C4E7500328D5C3
:1015F8001B68190332D4636C0BB120469847636D9E
:10160800002BE9D0636DDA0719D50523226884F821
:101618003530136823F0010313604FF41653B7FBFA
:10162800F3F7019B01339F42019302D31368DB0751
:10163800F7D4002384F83430012384F83530E36C80
:10164800C7E71A6812F4807208D1196821F01001EE
:101658001960012384F8342084F83530E36BCBE734
:10166800180000202DE9F04F85B00B68DFF8AC8139
:10167800684ADFF8AC91019300234FF0010E019CFA
:101688000EFA03FE0EEA0406B64540F0AE804C683A
:1016980024F01007022F16D14FEAD30A00EB8A0A6A
:1016A80003F0070BDAF820504FEA8B0B4FF00F0CC2
:1016B8000CFA0BFC25EA0C0C0D6905FA0BF545EA4A
:1016C8000C05CAF820504FEA430A0325D0F800B0A9
:1016D80005FA0AF5ED4304F0030C0BEA050B0CFAC6
:1016E8000AFC013F4CEA0B0C012FC0F800C011D8CE
:1016F800876807EA050BCF6807FA0AFC4CEA0B076C
:101708008760476827EA0E0EC4F300179F4047EA30
:101718000E074760C7683D408F6807FA0AF73D43E0
:10172800C560E50061D54FF0000BCDF80CB0D8F8D6
:101738004470394D47F48047C8F84470D8F844706D
:1017480007F480470397039F23F0030707F18047B7
:1017580007F59C3703F0030CD7F808A04FEA8C0C68
:101768004FF00F0E0EFA0CFEA8422AEA0E0E43D0D6
:1017780005F58065A84241D005F58065A8423FD0AF
:1017880005F58065A8423DD005F58065A8423BD0A7
:1017980048453BD005F50065A84239D005F5806578
:1017A800A84214BF0825072505FA0CF545EA0E05D9
:1017B800BD601568F74314F4803F0CBF3D403543C6
:1017C8001560556814F4003F0CBF3D403543556023
:1017D800956814F4801F0CBF3D4035439560D5686B
:1017E800A40254BF3D403543D5600133102B7FF42C
:1017F80044AF05B0BDE8F08F5D46D5E70125D3E7D6
:101808000225D1E70325CFE70425CDE70525CBE75A
:101818000625C9E7003C01400000024000380240AC
:10182800001402400AB1816170470904FBE743696B
:101838005940416170470268536913F480630DD0C1
:101848006FF480635361042303642022002303633D
:1018580080F83C3080F83D200120704718467047DA
:101868002DE9F843044617469946C1F307488EB256
:101878002568B8F1010F0CBF6B69AB6936EA030341
:1018880014BF0120002008B9BDE8F8836B695A0528
:1018980012D52B6843F400732B606FF480636B617F
:1018A8000423236420220023236384F83C3084F833
:1018B8003D200120BDE8F8837B1CD9D04FB9002317
:1018C8002022236384F83C3084F83D200320BDE8BF
:1018D800F883FFF7FFFAA0EB09008742C8D2EEE7CA
:1018E8002DE9F843089E044690461F46C1F3074970
:1018F8008DB22368B9F1010F0CBF5B699B6935EAAA
:1019080003030CBF01230023434502D00020BDE898
:10191800F8837B1CEDD05FB900232022236384F871
:101928003C3084F83D20032084F83E30BDE8F8833D
:10193800FFF7D0FA801B8742DBD2EDE770B504468B
:101948000D46164623685B691B0601D5002070BD4D
:101958002046FFF770FFA8B96A1CF3D065B9236C5D
:1019680043F02003236420220023236384F83C30BF
:1019780084F83D20032070BDFFF7ACFA801B854238
:10198800E0D2ECE7012070BD2DE9FF411546026861
:101998000B9E9846136843F4807313600F460096B5
:1019A8000A9B00224FF001110446FFF799FF68B91E
:1019B80023680A9A1C4907F0FE071F612046334630
:1019C800FFF74EFF30B1236C042B18D0032004B06E
:1019D800BDE8F081236803905A6903929B690393D9
:1019E80032460A99039B2046FFF7A8FF48B1236CAB
:1019F800042BEBD12268136843F4007313600120B1
:101A0800E5E7B8F1010F236802D1EDB21D61DEE709
:101A18002A0A1A610A9932462046FFF78FFF0028E2
:101A2800E5D12368F1E700BF020001002DE9FF417D
:101A3800984603680B9D16461A6842F480621A603D
:101A48001A6842F480721A600F4600950A9B0022B9
:101A58004FF001110446FFF743FF80B923682F496F
:101A6800FFB207F0FE021A6120462B460A9AFFF7DA
:101A7800F7FE40B1236C042B01D1012000E00320C4
:101A880004B0BDE8F081236803905A6903929B690A
:101A980003932A460A99039B2046FFF74FFF40B15C
:101AA800236C042BEBD12268136843F40073136092
:101AB800E3E7B8F1010F236824D1F6B21E612A4684
:101AC8000A992046FFF73AFF02460028E8D1216824
:101AD8000B6843F480730B60204600950A9B4FF017
:101AE8000111FFF7FDFE0028C9D123680A9A0B49A6
:101AF80047F001071F6120462B46FFF7B1FE00287B
:101B0800B8D1BDE7320A1A610A992A462046FFF77A
:101B180015FF0028C4D12368CFE700BF02000100E9
:101B280070B504460D4616462068436913F0400315
:101B380001D0002070BD4269D2060BD56FF01002AB
:101B480042612022236484F83C302363012084F816
:101B58003D2070BD5DB9236C43F02003236420232E
:101B680084F83D30002384F83C30032070BDFFF733
:101B7800B1F9801B8542D7D2EDE770B504460D4612
:101B8800164623685B695B0701D5002070BD2046B7
:101B9800FFF751FEA8B96A1CF3D065B9236C43F06E
:101BA8002003236420220023236384F83C3084F834
:101BB8003D20032070BDFFF78DF9801B8542E0D2E0
:101BC800ECE7012070BD000070B50446002862D023
:101BD80090F83D3003F0FF021BB980F83C2003F079
:101BE800EFFA22682D4E2E4D242384F83D301368D9
:101BF80023F00103136001F013F963682268B0FB56
:101C0800F5F5B34284BF4FF496716943556091BFAF
:101C1800691C4FF47A75B1FBF5F10131B3421162D9
:101C280021D85B00B0FBF3F0C0F30B03032B98BF84
:101C38000420216AE369D0610B431360E1682369DA
:101C48000B439360A16963690B43D360136843F046
:101C58000103136000202023206484F83D302063B2
:101C680084F83E0070BDA16849B903EB4303B0FB9B
:101C7800F3F0C0F30B0363B140F40040D9E7192136
:101C88004B43B0FBF3F0C0F30B0313B140F44040F7
:101C9800CFE70120CDE7012070BD00BFA08601007D
:101CA80040420F002DE9F34704469A46884691467C
:101CB8000C9EFFF70FF994F83D30202B054603D012
:101CC800022002B0BDE8F0870090192301223E49A6
:101CD8002046FFF705FE0028F2D194F83C30012B8E
:101CE800EED0012384F83C3023681A68D2075EBF1F
:101CF8001A6842F001021A601A6822F400621A6037
:101D0800212384F83D30402384F83E300A9B6362E7
:101D18000027BDF82C30276463852C4BE362638D64
:101D280023850195009653464A4641462046FFF7CB
:101D38002BFE00282AD0236C84F83C70042B07D192
:101D48000120BEE7FFF7FAFD20B1236C042B34D045
:101D58000320B6E7616A2768228D4B1C63620B7803
:101D68003B61638D013B9BB263857B69501E80B2EA
:101D78005B0720850AD548B18B1C63624B783B61B1
:101D8800638D013B023A9BB222856385238D2A46E7
:101D980031462046002BD5D1FFF7EFFE0028D4D1DD
:101DA8002268136843F400731360202384F83D30DD
:101DB80084F83C0084F83E0083E72268136843F403
:101DC80000731360BCE700BF020010000000FFFFB3
:101DD8002DE9F047044686B09A460D469146109F75
:101DE800FFF778F894F83D30202B064604D00225FA
:101DF800284606B0BDE8F0870090192301227949EA
:101E08002046FFF76DFD0028F1D194F83C30012BF6
:101E1800EDD0012384F83C3023681A68D2075EBFEE
:101E28001A6842F001021A601A6822F400621A6005
:101E3800222384F83D30402384F83E300E9B6362B1
:101E48004FF00008BDF83C30C4F840806385664B0D
:101E5800E362638D238529460196009753464A46D7
:101E68002046FFF7E3FD054630B1236C84F83C803B
:101E7800042B3AD10125BBE7228D236892B9029041
:101E88005A6902929A690292029A1A6842F4007296
:101E98001A60202384F83D30002384F83E3084F80B
:101EA8003C30A5E7012A22D11A6822F480621A6020
:101EB80003905A6903929A690392039A1A6842F442
:101EC80000721A60DFF82481238D002BE1D0032BE8
:101ED8006BD8012B23D1324639462046FFF720FE26
:101EE800002839D0236C202BC4D1032580E7022A8F
:101EF8000ED11A6822F480621A601A6842F40062ED
:101F08001A6004905A6904929B690493049BD9E768
:101F180005905A6905929B690593059BD2E7022BA8
:101F280000963B464FF000024146204622D1FFF77B
:101F3800D7FC0028D9D123681A6842F400721A60C5
:101F4800626A1B69511C61621370238D013B2385F2
:101F5800638D013B9BB26385636A5A1C6262226887
:101F680012691A70238D013B2385638D013B9BB257
:101F78006385A9E7FFF7B4FC02460028B5D12368BA
:101F8800196821F480611960616A1B69481C6062E4
:101F98000B70238D0096013B2385638D013B9BB21B
:101FA800638541463B462046C1E7324639462046CE
:101FB800FFF7B6FD002895D1636A5A1C6262226851
:101FC80012691A70238D2268013B2385638D013BBA
:101FD8009BB2638553695B077FF576AF636A591CCB
:101FE8006162BDE7020010000000FFFF040001006D
:101FF8007047704770477047704770477047704721
:102008007047704790F83D30293B012B10B50368A5
:10201800044639D800220263282280F83D201A6835
:1020280022F400621A605A6812F4006254D05A68A6
:10203800606B22F400625A6090F83530012B394BFE
:1020480031D00365FFF742FA50B12268606B13681C
:1020580023F001031360202384F83D30036D984773
:1020680094F83D30282B0ED1236C5B070BD52E4BF3
:10207800E362202200232363204684F83D2084F86D
:102088003E30FFF7BAFF10BD90F83D20602A05D01A
:102098005A6812055CBF202280F83D200022226386
:1020A80084F83E20BBE7A06B0365FFF70FFA002812
:1020B800D6D022685369580604D5636A1269591C38
:1020C80061621A702268A06B136823F00103136021
:1020D800202384F83D30C1E794F83D10602914D1DD
:1020E800202184F83D1022645A69510604D5626A99
:1020F8001B69511C616213702268136823F0010385
:1021080013602046FFF77DFFAAE75A69520604D5F7
:10211800626A1B69511C616213702046FFF770FFE9
:102128009EE700BF3D2900080000FFFF0368F0B5E7
:102138009D6959695A6890F83E40E4B2102C8DB0F8
:1021480002D0402C40F0558211F0011F66D097054F
:1021580064D590F83E40402C43D1046D002C3BD10F
:10216800446C04F0FE041C61984E994C2E400C40BF
:10217800002E00F09F81974D0D40002D00F06681E4
:10218800550540F16381002C40F0608190F83D20B6
:10219800058D90F83E10C46AD2B2C9B2002D40F045
:1021A8000581212A40F00481042C00F06C81082C60
:1021B80000F0698114F5803F00F065815A6822F4C7
:1021C800E0625A601123036380F83E50202380F8B0
:1021D8003D30FFF70DFFF6E0446C44F00104E4B233
:1021E800C1E70469B4F5804F05D190F83D40212C32
:1021F800446CF2D1B5E7046D34B9446CE41104F0D1
:10220800060444F0F004AEE7046D012CACD1446C34
:10221800E41104F0060444F0F104A4E76E4C0C4009
:102228001CB1960501D5446CD9E76C4C0C40002CC8
:102238009AD0940598D590F83E40C66AD0F830E018
:1022480090F83D70222FE4B240F0A880076D47B99E
:10225800402C06D101975C6901949C690194019C0A
:1022680082E7046D8CB90769B7F5404F0DD1029428
:102278005C6902949C690294029C1C6844F4807412
:102288001C60046D013404656EE7448DA4B254B932
:1022980003945C6903949C690394039C1C6844F44C
:1022A80000741C6019E0448DA4B2012C42D116F5CB
:1022B800803F1BD11C6824F480641C605C6814F4A3
:1022C80000640CD01C6824F480641C60002404940E
:1022D8005C6904949C690494049C0024D3E70594E5
:1022E8005C6905949C690594059CD7E7042E15D074
:1022F800082E13D0BEF1120F10D0C46A022C1C682D
:1023080014BF24F4806444F480641C6000240694A0
:102318005C6906949C690694069CDEE71C6824F4B4
:1023280080641C60002407945C6907949C69079486
:10233800079CB3E7448DA4B2022C1CD1C46A022CBA
:102348001C681DBF24F480641C601C6844F480640D
:1023580018BF44F400641C605C68270542BF5C68D1
:1023680044F480545C60002408945C6908949C6977
:102378000894089CB1E71C6844F480641C605C689D
:10238800260542BF5C6844F480545C6000240994CC
:102398005C6909949C690994099C9EE700240A9445
:1023A8005C690A949C690A940A9CDDE6212A03D098
:1023B800402908D1222A06D1428D92B282B95A68A0
:1023C80022F480625A600DB0F0BD00BF0400100016
:1023D8000400010080000100080001000200010063
:1023E80090F83E20402A27D1026D7AB9C26C012AA2
:1023F800826C05D1D2B21A61036D02330365E2E73C
:10240800C2F307221A61036D0133F7E7026D012A4F
:1024180002D1826CD2B2F5E7026D022AD3D190F8CC
:102428003D20222A04D11A6842F480721A60CAE751
:1024380090F83D20212AC6D1426A511C4162127887
:102448001A61438D013B9BB24385BCE7002CBAD08F
:102458009405B8D5C16A90F83D20212AB3D1428DA0
:1024680092B2002AE8D104290DD008290BD011F521
:10247800803F08D0596821F4E06159601123036353
:1024880080F83E20A2E65A6822F4E0625A601A6890
:1024980042F400721A6000232022036380F83D2072
:1024A80090F83E2080F83E30402A7FF492AEFFF745
:1024B800A5FD88E7904D0D40002D41D051053FD531
:1024C800002C3DD190F83D20222A7FF47CAF428D2C
:1024D80092B2032A13D9426A1B69511C41621370D4
:1024E800438D013B9BB24385438D9BB2032B7FF405
:1024F8006AAF0268536823F48063536063E7012A74
:102508003FF661AF1A6822F480621A605A6822F4B2
:10251800E0625A60426A1B69511C41621370438D24
:10252800013B9BB24385202380F83D30046390F83B
:102538003E3080F83E40402B58D1FFF760FD42E71F
:10254800002C3FF440AF97057FF53DAFC16A428D3F
:1025580092B2042A426A08D1596821F4806159600C
:10256800511C1B69416213706BE7448DA4B2032CA4
:1025780008D1596821F480615960196821F4806193
:102588001960EDE7448DA4B2022CE9D10139012983
:1025980019689DBF21F480611960196841F40071C0
:1025A80098BF41F4807119601B69511C4162137016
:1025B800438D013B9BB24385436A5A1C42620268C1
:1025C80012691A70438D0268013B9BB243855368B8
:1025D80023F440735360202380F83D3000230363C5
:1025E80090F83E2080F83E30402AA5E7FFF701FD2D
:1025F800E9E6424C0C4074B196050CD599699B6983
:1026080081F004011D06C1F3800154BF8289028B49
:10261800FFF7F2FCD7E63A4C0C40002C74D0940536
:1026280072D590F83D20596821F4E0615960002185
:102638000B9159690B91196841F0010119600B99C7
:10264800196821F48061196059680905D2B20CD55E
:1026580090F83D10222903D090F83D102A2929D15D
:10266800816B0968496889B24185418D89B2E1B1B8
:1026780059694F0708D5416A1B694C1C44620B70A5
:10268800438D013B9BB2438501684B695E0608D5C3
:10269800436A09695C1C44621970438D013B9BB213
:1026A8004385036C43F004030364036C23B1FFF711
:1026B800A9FC88E6416BD4E7A2F1280102290AD8CF
:1026C800104AC2622022036380F83D2080F83E3021
:1026D800FFF793FC77E6036B222B02D0222A7FF4C4
:1026E80072AE00232022036380F83D2080F83E303C
:1026F800FFF781FC67E600BF40000100020001000F
:10270800100001000000FFFF394E3A4C2E400C40EB
:10271800002E36D0384D0D403DB3550525D524BB88
:1027280090F83D10428D92B2C9B2002A3FF44BAEE8
:10273800426A541C446212781A61428D013A92B27C
:102748004285428D92B2002A7FF43DAE29297FF45A
:102758003AAE5A6822F480625A6021230363282320
:1027680080F83D30FFF746FC2DE6002C3FF42BAEF9
:1027780094057FF528AE428D92B2002A7FF45CAEB4
:1027880021E61E4D0D4035B3510524D51CBB90F8EC
:102798003D20418D89B2D2B200293FF414AE416A7E
:1027A8001B694C1C44620B70438D013B9BB24385F3
:1027B800438D9BB2002B7FF406AE2A2A7FF403AE2A
:1027C8000268536823F48063536022230363282339
:1027D80080F83D308CE7002C3FF4F5AD92057FF58D
:1027E800F2AD428D92B2002A3FF4EDAD426AB7E6EF
:1027F80004001000040001008000010040000100F6
:10280800F8B50368494A5E695D681642044608D00F
:10281800E80506D5226C42F0010222646FF480724A
:102828005A6116F4813F08D0E90506D5226C42F0BA
:10283800020222646FF400725A6116F4823F36D0A5
:10284800EA0534D594F83E70618D94F83D20206BEC
:10285800202F89B2D2B258D1002956D102F0F701FF
:10286800212903D0282A50D121284ED194F83D207F
:10287800E16A0429D2B201D008292CD1282A2AD108
:102888002B4AE2625A6822F4E0625A606FF480626E
:102898005A611A6822F480621A6000232022236396
:1028A800204684F83D2084F83E30FFF7A6FB16F456
:1028B800843F09D0EB0507D5236C43F00803236454
:1028C80023686FF400625A61236C73B32046BDE835
:1028D800F840FFF797BB212A23D11549E16222630B
:1028E800202284F83D20002284F83E205A6822F4F1
:1028F800E0625A606FF480625A611A6822F480625A
:102908001A602046FFF776FBD1E7226C42F00402FA
:10291800226494F83E20102A02BF1A6842F400721A
:102928001A606FF480625A61C1E7F8BD00010100C6
:102938000000FFFF806B08B50368416B1A6822F43A
:1029480080621A60002242850A65816B0A6590F8E8
:102958003D1060294FF0200180F83D1080F83E209E
:1029680007D102641A6822F001021A60FFF749FBD6
:1029780008BD1A6822F001021A60FFF741FB08BD82
:102988002DE9F341044618B9012002B0BDE8F081F1
:102998000368DD0710D42368980758D423681A07FA
:1029A80000F19A8023685B0700F1B880A269002AC9
:1029B80040F019810020E8E7A64B9A6802F00C0263
:1029C800042A07D09A6802F00C02082A0AD15B6828
:1029D800590207D59F4B1B689A03DCD56368002B07
:1029E800D9D1D1E763689B4DB3F5803F11D12B68EE
:1029F80043F480332B60FEF76DFA964D06462B683C
:102A08009B03C8D4FEF766FA801B6428F7D9032015
:102A1800BBE7B3F5A02F04D12B6843F480232B60C8
:102A2800E5E72A6822F480322A602A6822F48022A4
:102A38002A60002BDFD1FEF74DFA06462B689F036C
:102A4800A9D5FEF747FA801B6428F7D9DFE7814B41
:102A58009A6812F00C0F07D09A6802F00C02082A44
:102A680011D15B685E020ED47A4B1A68950702D5BD
:102A7800E268012A88D11A68216922F0F80242EA3C
:102A8800C1021A608AE7E268734BB2B101221A6088
:102A9800FEF720FA6F4D06462B68980707D52B6876
:102AA800226923F0F80343EAC2032B6076E7FEF7B6
:102AB80011FA801B0228EFD9A9E71A60FEF70AFA73
:102AC800644D06462B6899077FF568AFFEF702FA52
:102AD800801B0228F6D99AE76269604B7AB1012215
:102AE8001A60FEF7F7F95B4D06466B6F9F073FF5D7
:102AF80059AFFEF7EFF9801B0228F6D987E71A606D
:102B0800FEF7E8F9534D06466B6F98077FF54AAF15
:102B1800FEF7E0F9801B0228F6D978E74D4B1A6CCE
:102B280012F0805228D101921A6C42F080521A6435
:102B38001B6C03F080530193019B0126484D2B68C1
:102B4800D9051BD5A368434D012B27D12B6F43F023
:102B580001032B67FEF7BEF93E4D074641F2883860
:102B68002B6F9B0739D5002E3FF420AF394A136CE1
:102B780023F08053136419E70026DFE72B6843F43A
:102B880080732B60FEF7A6F907462B68DA05D9D4BF
:102B9800FEF7A0F9C01B0228F7D938E7052B04D1A6
:102BA8002B6F43F004032B67D0E72A6F22F0010252
:102BB8002A672A6F22F004022A67002BCAD1FEF77F
:102BC80089F941F2883807462B6F9807CBD5FEF76D
:102BD80081F9C01B4045F7D919E7FEF77BF9C01BFF
:102BE8004045BDD913E71B4DAB6803F00C03082B18
:102BF8003FF4CAAE1B4E0023022A336034D1FEF7DD
:102C080069F907462B6899011ED4226AE3691343C0
:102C1800626A43EA8213E26A43EA0263A26A0D4CDB
:102C28005208013A43EA02436B6001233360FEF71E
:102C380051F9054623689A013FF5BCAEFEF74AF9FB
:102C4800401B0228F6D9E2E6FEF744F9C01B022829
:102C5800D8D9DCE60038024000004742800E4742DF
:102C68000070004060004742FEF734F904462B68C4
:102C78009B017FF59FAEFEF72DF9001B0228F6D9C0
:102C8800C5E600BF134908B58B6803F00C03042B95
:102C980003D0082B03D0104808BD104808BD4A6867
:102CA8004B68496813F4800314BF0C480A48C1F301
:102CB800881118BF002302F03F02A1FB0001FDF7B5
:102CC80037FF044B5B68C3F3014301335B00B0FB80
:102CD800F3F008BD003802400024F40000127A0026
:102CE8002DE9F0410D46044610B90120BDE8F081F8
:102CF800444B1A6802F00F028A4228D321688F07D2
:102D08002DD4C80740D43F4B1A6802F00F029542F1
:102D180066D3226851076CD4130707D53A4A21694C
:102D2800936823F4604343EAC1039360FFF7AAFF63
:102D3800354B364A9B68C3F30313D35CD840344BF6
:102D480018600020FEF77CF80020BDE8F081CAB2C8
:102D58001A701B6803F00F039942C6D1CEE72A4BBD
:102D680011F0040F1EBF9A6842F4E0529A600E07F1
:102D780042BF9A6842F460429A609A68A06822F05A
:102D8800F00202439A60BCE762681F4B012A1DD11A
:102D98001B6813F4003FA8D01B4EB36823F003034D
:102DA8001343B360FEF796F841F288380746B368D4
:102DB800626803F00C03B3EB820FA4D0FEF78AF825
:102DC800C01B4045F3D90320BDE8F081911E0129BD
:102DD8001B6802D813F0007FDDE713F0020FDAE773
:102DE800EAB21A701B6803F00F039D427FF47DAFAF
:102DF8008FE70549E0688B6823F4E05303438B6051
:102E08008AE700BF003C02400038024072680008B0
:102E180018000020014B1868704700BF18000020F8
:102E2800044B054A9B68C3F38223D35C034A1068AA
:102E3800D840704700380240826800081800002017
:102E4800044B054A9B68C3F34233D35C034A1068BA
:102E5800D8407047003802408268000818000020F7
:102E6800036A23F001030362036A426870B5846948
:102E78000D6824F0730425438C6823F00203234370
:102E88000C4CA04209D004F58064A04205D04260F1
:102E98004A6885614263036270BDCC688E6923F01D
:102EA800080323434C6922F44072344323F004039B
:102EB8002243ECE700000140036A23F480730362B5
:102EC800036A426870B5C4690D6824F07304254329
:102ED8008C6823F4007343EA04230E4CA04209D003
:102EE80004F58064A04205D042604A68C561C263A7
:102EF800036270BDCC688E6923F4006343EA04233F
:102F08004C6922F44052344323F4806342EA0412A9
:102F1800EAE700BF00000140036A23F4805303621C
:102F280030B5046A4368C2690D6822F4E64242EA91
:102F380005228D6824F4005444EA0534094DA8425A
:102F480009D005F58065A84205D043604B68C26189
:102F58000364046230BD4D6923F4804343EA85135A
:102F6800F3E700BF000001400368DA6842F001029D
:102F7800DA601A6842F001021A6000207047704750
:102F880090F83830012B70B54FF002031CD080F850
:102F980039300368012280F838209A6822F47F4289
:102FA80022F077029A600A68402A79D019D8102A44
:102FB80000F093800AD8002A00F08980012380F865
:102FC8003930002380F83830184670BD202A00F0C8
:102FD8008A80302AF2D19A6822F0700242F03702D1
:102FE80036E0702A36D01BD8502A42D0602AE5D164
:102FF8001C6A4D68CE6824F010041C6299691A6A2C
:1030080021F4704122F0A00242EA051241EA063199
:1030180099611A629A6822F0700242F0670217E01A
:10302800B2F5805F11D0B2F5005FC7D18A684D68EC
:103038009C68C9682A4324F47F4442EA0122224357
:103048009A609A6842F4804202E09A6822F0070285
:103058009A60B3E78A684D689C68C9682A4324F473
:103068007F4442EA012222439A609A6842F077023A
:10307800EEE74C68CE68196A1D6A25F001051D62E5
:103088009A6921F00A0122F0F00242EA061221436D
:103098009A6119629A6822F0700242F05702D7E7E3
:1030A8004C68CE68196A1D6A25F001051D629A6987
:1030B80021F00A0122F0F00242EA061221439A6145
:1030C80019629A6822F0700242F04702C0E79A68D3
:1030D80022F0700242F00702BAE79A6822F0700202
:1030E80042F01702B4E79A6822F0700242F0270211
:1030F800AEE7704770477047704703681A699107D1
:1031080010B504460ED5DA6892070BD56FF00202A7
:103118001A619B6901229B07027677D0FFF7EAFFC5
:103128000023237623681A69500710D5DA685107F7
:103138000DD56FF004021A619B69022213F4407FD7
:103148002276204668D0FFF7D5FF00232376236830
:103158001A6912070FD5DA6810070CD56FF0080244
:103168001A61DB6904229907227620465AD0FFF7B4
:10317800C1FF0023237623681A69D20610D5DA68BE
:10318800D0060DD56FF010021A61DB69082213F41E
:10319800407F227620464BD0FFF7ACFF00232376F2
:1031A80023681A69D10708D5DA68D20705D56FF000
:1031B80001021A61204602F0EBF823681A6910062A
:1031C80008D5DA68110605D56FF080021A61204625
:1031D80000F0A9F923681A69520608D5DA6850067A
:1031E80005D56FF040021A612046FFF785FF236876
:1031F8001A69910622D5DA6892061FD56FF0200267
:1032080020461A61BDE8104000F08CB9FFF771FF45
:103218002046FFF770FF83E7FFF76BFF2046FFF7B5
:103228006AFF92E7FFF765FF2046FFF764FFA0E714
:10323800FFF75FFF2046FFF75EFFAFE710BD000016
:103248002E4A0368904212D0B0F1804F0FD0A2F5F9
:103258007C4290420BD002F58062904207D002F582
:103268008062904203D002F5784290421DD14A68AC
:1032780023F070031343214A904204D1CA6823F40F
:103288004073134328E0B0F1804FF7D01C4A9042B6
:10329800F4D002F580629042F0D002F5806290424C
:1032A800ECD002F578429042E8D0164A9042E5D038
:1032B80002F580629042E1D002F580629042DDD052
:1032C800A2F598329042D9D002F580629042D5D0CA
:1032D80002F580629042D1D003608B68C3620B68AC
:1032E8008362064B984206D003F58063984202D069
:1032F8000123436170470B690363F9E7000001404C
:10330800000400400040014010B50446A0B190F808
:10331800393003F0FF021BB980F8382002F0E6F9D3
:10332800022384F839302068211DFFF789FF012323
:1033380084F83930002010BD012010BD10B50446B6
:10334800A0B190F8393003F0FF021BB980F838209B
:10335800FFF715FE022384F839302068211DFFF796
:103368006FFF012384F83930002010BD012010BD03
:10337800036A23F010030362036A426870B5846924
:103388000D6824F4E64444EA05258C6823F02003FC
:1033980043EA04130D4CA04209D004F58064A0420E
:1033A80005D042604A6885618263036270BDCC685B
:1033B8008E6923F0800343EA04134C6922F44062C7
:1033C800344323F0400342EA8402EAE70000014064
:1033D80038B590F83830012B04464FF0020025D05C
:1033E800012384F8383084F839000C2A18D8DFE82B
:1033F80002F0071717171E1717172F171717400070
:103408002068FFF72DFD236809699A6942F00802D0
:103418009A619A6922F004029A619A690A439A6148
:103428000123002084F8393084F8380038BD20683A
:10343800FFF79EFF236809699A6942F400629A615E
:103448009A6922F480629A619A6942EA0122E6E75F
:103458002068FFF731FD23680969DA6942F008023C
:10346800DA61DA6922F00402DA61DA690A43DA61B8
:10347800D6E72068FFF750FD23680969DA6942F446
:103488000062DA61DA6922F48062DA61DA6942EAB2
:103498000122ECE790F83830012B10B54FF0020309
:1034A80018D080F8393003680C685A68496822F0E7
:1034B80070025A605A6822435A609A6822F0800261
:1034C8009A609A680A439A60012380F83930002389
:1034D80080F83830184610BD90F83830012B1FD0CE
:1034E800CB688A6823F4407313434A6823F48063E3
:1034F80013430A6823F4006313430A6923F48053CF
:1035080013434A6923F4005313438A6923F440435D
:10351800134302685364002380F838301846704714
:1035280002207047704770470368DA6822F4907287
:10353800DA605A6922F001025A61012380F83D30AD
:10354800704700002DE9F8430546002800F08C80FC
:1035580090F83D3003F0FF021BB980F83C2002F0E0
:10356800CDFA2E68E969022385F83D30F36823F027
:103578000C03F360AB6932690B43296A43F40063B7
:103588000B43E96822F47C520B43134333612969E6
:10359800AB68F2680B43696922F4164243F40043AE
:1035A80022F00C020B431343F360736923F4407356
:1035B80073612F4B9E4203D003F580639E423BD13B
:1035C800FFF73EFC6F68192404FB00F37F004FF0FF
:1035D8006408B3FBF7F3B3FBF8F31F01FFF730FC04
:1035E8006B6860435B00B0FBF3F9FFF729FC6B687D
:1035F80060435B00B0FBF3F3B3FBF8F308FB1393F2
:103608001B013233B3FBF8F303F00F033B43B36002
:103618002B681A6922F480421A615A6922F02A0238
:103628005A61DA6842F40052DA6000200123286403
:1036380085F83D30BDE8F883FFF7F2FB6F68192481
:1036480004FB00F37F004FF06408B3FBF7F3B3FB10
:10365800F8F31F01FFF7E4FB6B6860435B00B0FB06
:10366800F3F9FFF7DDFBC2E70120BDE8F88300BFEF
:10367800001001407047704790F83D30222B10B57C
:1036880046D1836801690268B3F5805FC36A2AD1AD
:1036980021BB5168C1F3080123F8021BC362438EA2
:1036A800013B9BB2438613B140F2FF135360448E33
:1036B800A4B28CB90368DA6822F02002DA60DA680A
:1036C80022F48072DA605A6922F001025A610123F9
:1036D80080F83D30FFF7CFFF002010BD5168C9B218
:1036E80023F8011BDAE769B9591C5268C1621A70DC
:1036F800438E013B9BB24386002BD8D00368FF2240
:103708005A60D4E75268591CC16202F07F02EEE7A2
:10371800022010BD704790F83D30322B10B565D1AE
:10372800438D9BB2E3B102681368190618D5836804
:10373800B3F5805F436A44D11988C1F30801516029
:10374800016900293BD102334362438D013B9BB29F
:103758004385438D9BB21BB9D36823F08003D360A4
:10376800438E9BB2A3B1026813689B0610D5836889
:103778000169B3F5805FC36A2CD1526831BBC2F3CB
:10378800080223F8022BC362438E013B9BB2438697
:10379800448EA4B28CB90368DA6822F02002DA6099
:1037A800DA6822F48072DA605A6922F001025A61FA
:1037B800012380F83D30FFF7ADFF002010BD013335
:1037C800C2E7591C41621B785360BEE7D2B223F8A6
:1037D800012BD8E721B9591C5268C1621A70D3E786
:1037E8005268591CC16202F07F02F7E7022010BD3F
:1037F8007047000003681A68D96870B51607044650
:103808005D6910D196066AD58D0668D590F83D3069
:10381800222B03D1BDE87040FFF72EBF2046BDE83C
:103828007040FFF778BF15F0010502D111F4907FC1
:1038380055D0D30705D5CE0542BF236C43F001030D
:103848002364500704D51DB1236C43F0020323649D
:10385800930704D51DB1236C43F0040323641607B2
:1038680004D51DB1236C43F008032364236C002B9B
:1038780075D0950608D5880606D594F83D30222BD4
:10388800204621D1FFF7F8FE23685D69226C1107F5
:10389800204602D415F040051DD0FFF745FE2368E9
:1038A8005A69520613D55A69A06B22F040025A6130
:1038B80068B12B4B0365FDF709FE00284FD0A06BBC
:1038C800BDE87040036D1847FFF725FFDCE7204689
:1038D800FFF78EFF70BDFFF78BFF256470BD1606DE
:1038E8002BD50D0629D594F83D20122A96D194F8A7
:1038F8003D20122A33D1A268B2F5805F626A17D1DF
:103908001188C1F308015960216979B902326262EC
:10391800628D013A92B262850ABBDA6822F08002AF
:10392800DA60DA6842F04002DA6070BD0132EEE730
:10393800511C616212785A60EAE750060FD54A06B0
:103948000DD5DA6822F04002DA605A6922F00102E5
:103958005A61012384F83D302046FFF78BFE70BD85
:103968006D39000808B5806B002343864385FFF74F
:103978003FFF08BD10EE102A0C4BF6EE007AA3EBC1
:10398800620360EE277A00EE103AF7EE086A27EE37
:10399800807AB0EE666AA0EE476A26EE000A67EE05
:1039A800807AE0EE676A26EE800A7047DF59375F53
:1039B8002DE9F04F2DED108B10EE100A8BB0F0EEC4
:1039C800618AB0EE428AB0EE629A8DED041ACDEDAE
:1039D800020AFCF759FDDDED020ADFF864A3DFF8FF
:1039E80064B3CDE9000110EE900AFCF74DFD9DEDA2
:1039F800041ACDE9020111EE100AFCF745FDDAE9D7
:103A08000045CA4BDBE90067CDE90401D3E9008929
:103A18002046DDE9002305F10041FCF789FD324627
:103A280004460D463B46DDE90201FCF781FD0246EE
:103A38000B4620462946FCF7C7FB424604460D467E
:103A48004B46DDE90401FCF773FD02460B462046B0
:103A58002946FCF7B9FB0022B54BB64CFCF768FDCC
:103A6800FDF716F8B149D4E90023DBE9008991EDA7
:103A7800007B0CEE100ADDE900018DED067BFCF7FA
:103A880057FD424606460F464B46DDE90401FCF762
:103A98004FFD02460B4630463946FCF797FBDDE9F9
:103AA800062306460F46DDE90201FCF741FD024602
:103AB8000B4630463946FCF787FB00229C4BFCF747
:103AC80037FDFCF7E5FF9949D4E90023DAE90089D5
:103AD80091ED007B0BEE900ADDE902018DED067B8E
:103AE800FCF726FD424606460F464B46DDE9040133
:103AF800FCF71EFD02460B4630463946FCF764FBD0
:103B0800DDE9062306460F46DDE90001FCF710FD56
:103B180002460B4630463946FCF758FB0022844BD8
:103B2800FCF706FDFCF7B4FFD4E900230BEE100AFE
:103B3800DDE90401FCF7FCFCDAE9008906460F46DA
:103B480042464B46DDE90201FCF7F2FC02460B4611
:103B580030463946FCF73AFBDBE900450646224683
:103B68002B460F46DDE90001FCF7E2FC02460B4656
:103B780030463946FCF728FB00226D4B6B4DFCF7AD
:103B8800D7FCFCF785FFF5EE408AF1EE10FA0AEE55
:103B9800900AD0465C460AD1B5EE408AF1EE10FA9A
:103BA80005D1B5EE409AF1EE10FA00F0F28128EE58
:103BB800080A604EA8EEA80AB1EE00EAA9EE090AC2
:103BC800FFF7D8FED6E900231046194668EE808A2A
:103BD80028EE008A29EE009AFCF7F8FAFCF758FF5D
:103BE800D8E900230FEE100A19461046FCF7EEFA42
:103BF800FCF74EFFD4E90023009019461046FCF765
:103C0800E5FAFCF745FFD5E900230290194610466E
:103C1800FCF7DCFAFCF73CFF0022474B0490D6E99E
:103C28000001FCF785FCFCF733FF00220DEE900A3B
:103C3800414BD8E90001FCF77BFCFCF729FF002287
:103C48000DEE100A3C4BD4E90001FCF771FCFCF7BF
:103C58001FFF00220CEE900A384BD8E90001FCF750
:103C680067FCFCF715FF00220FEE900A334BD4E9EE
:103C78000001FCF75DFCFCF70BFFD6E900AB0690F2
:103C8800D6E90067D8E90001D8E90023FCF750FC21
:103C9800FCF7FEFE0AEE100AD4E90001D4E900237D
:103CA800FCF746FCFCF7F4FE09EE900AD5E90001A2
:103CB800D5E90023FCF73CFCFCF7EAFEDDED027ACF
:103CC8009DED007A68EEA77A3246EDEEA97A3B467A
:103CD80059460EEE900AEDEE8A7A5046E8EE477A9B
:103CE800F0EE67DAFCF724FCFCF7D2FE07EE900A48
:103CF80067EE8E7A17EE900AFCF7C6FBDDED047AC4
:103D080067EEE86A0646EDEE2E6A0F46D8E900AB84
:103D180016EE900AFCF7B8FB5246804689465B4689
:103D280030463946FCF704FC0EE000BFB80000201E
:103D38000000E03F1000002000001040000020407C
:103D4800A8000020B000002002460B464046494625
:103D5800FCF73CFA68EE0F7A804617EE900A89461F
:103D6800FCF792FB02460B4640464946FCF72CFA04
:103D780080461DEE100A8946FCF786FB02460B4674
:103D880040464946FCF720FA6FEE8A7A804617EEDD
:103D9800900A8946FCF778FB02460B46404649469E
:103DA800FCF714FA6FEEA97A804617EE900A894656
:103DB800FCF76AFB02460B4640464946FCF706FA02
:103DC80069EE0D7A804617EE900A8946FCF75CFB8F
:103DD80002460B4640464946FCF7F8F9FCF758FE00
:103DE800D4E900230DEE100A39463046FCF7A0FB53
:103DF80068EE8F7A064617EE900A0F46FCF744FBEA
:103E080002460B4630463946FCF7E0F96CEEAE7ACE
:103E1800064617EE900A0F46FCF736FB02460B469D
:103E280030463946FCF7D2F9DDED047A68EE277A98
:103E3800064617EE900A0F46FCF726FB02460B468D
:103E480030463946FCF7C0F906461CEE900A0F4684
:103E5800FCF71AFB02460B4630463946FCF7B4F924
:103E6800DDED067A67EE8A7A064617EE900A0F4667
:103E7800FCF70AFB02460B4630463946FCF7A6F922
:103E8800DDED067A67EEA97A064617EE900A0F4628
:103E9800FCF7FAFA02460B4630463946FCF796F923
:103EA80069EE2C7A064617EE900A0F46FCF7ECFAF4
:103EB80002460B4630463946FCF788F9FCF7E8FD20
:103EC800D5E900896AEE0E7A09EE100A17EE900A13
:103ED800FCF7DAFA42464B46FCF72AFBDDED007A9E
:103EE80068EEA77A044617EE900AD5E900670D46F2
:103EF800FCF7CAFA02460B4620462946FCF764F945
:103F080069EE8E7A044617EE900A0D46FCF7BCFA65
:103F180032463B46FCF70CFB02460B462046294638
:103F2800FCF754F9DDED027A68EE277A044617EEBD
:103F3800900A0D46FCF7A8FA0B4602462946204689
:103F4800FCF742F9FCF7A4FD2DEE0D0A05EE900AE8
:103F5800ADEEAD0AA9EE090AA5EEA50AFFF70AFD1E
:103F6800654B60EE6D7A93ED007A20EE4DDAA7EEA0
:103F780087CAD3ED007A20EE499AEDEE27BAD3ED41
:103F8800007A20EE650AA9EE27BAD3ED007AE0EEB2
:103F980027AA5A4E5A4F9FED5B8AD6E900456CEE28
:103FA800087A17EE900AFCF76FFA22462B46FCF7C0
:103FB8000DF9C6E90001544D544CD5E900896BEE62
:103FC800887A17EE900AFCF75FFA42464B46FCF7F0
:103FD800FDF8C5E900016BEE087AD4E9008917EE0F
:103FE800900AFCF751FA42464B46FCF7EFF8C4E951
:103FF8000001D7E900896AEE887A17EE900AFCF783
:1040080043FA42464B46FCF7E1F8C7E90001D6E916
:104018000001D6E9002395ED007BD5E900AB8DEDD5
:10402800007B94ED007B8DED027B94ED007B8DEDA4
:10403800047B97ED007B8DED067B97ED007B8DED86
:10404800087BFCF775FA5246804689465B46DDE9EF
:104058000001FCF76DFA02460B4640464946FCF75C
:10406800B5F8DDE9042380468946DDE90201FCF75D
:104078005FFA02460B4640464946FCF7A7F8DDE9D9
:10408800082380468946DDE90601FCF751FA024615
:104098000B4640464946FCF799F8FCF7F9FC00EE58
:1040A800100AFFF767FC10EE100AFCF7EDF9D6E9E5
:1040B800002380468946FCF73BFAC6E900014046E2
:1040C800D5E900234946FCF733FAC5E90001404623
:1040D800D4E900234946FCF72BFAC4E90001D7E9E3
:1040E800002340464946FCF723FAC7E900010BB014
:1040F800BDEC108BBDE8F08F0800002010000020F8
:10410800B80000206F12033BA8000020B000002078
:10411800DFED236A90ED0E7ADFED227AD0ED091AF1
:1041280090ED0A2A27EE267A10B587EE270A04466C
:1041380090ED0F7A27EE267A2DED108BC7EE270A21
:104148008CB090ED107AD0ED19AA90ED0BFA90EDA5
:104158001AAA90ED1BCAD0ED1F9A90ED209A90ED07
:10416800218AD0ED228A27EE267AF5EE40AAF1EED2
:1041780010FA87EE271A17D1B5EE40AAF1EE10FA19
:1041880012D1B5EE40CAF1EE10FA0DD1F0EE4F2A79
:104198000CB0BDEC108BBDE81040FFF709BC00BFA8
:1041A800DB0F49400000344368EE60DA21EE08DA9C
:1041B80069EE41CA20EE89BAE9EE40DAA0EE29DAC2
:1041C800E0EEA9CAA1EE29BAE1EE68DAA0EEE8DAD3
:1041D800E0EE28CAA0EE48BAF5EE401AF6EE007AEC
:1041E800F1EE10FA6DEEA7DA2DEE27DA6CEEA7CA1B
:1041F8002BEE27BA0AD1B5EE402AF1EE10FA05D116
:10420800B5EE40FAF1EE10FA00F0718122EE020AE2
:104218008DED0B2AA1EEA10ACDED0A1AAFEE0F0A19
:10422800FFF7A8FB8DED090A2AEE0A0AAAEEAA0AE8
:10423800ACEE0C0AFFF79EFB39EEA9EA2AEE00AABB
:104248006AEE802A6AEE0E7A29EEA93A67EEE85AF3
:104258002CEE00CAE2EE835A6CEE0E4A69EE09FAB9
:10426800E8EE245A79EE09EAE2EEAF5A2AEE2E0A6F
:1042780022EE8E1AE8EE005A2CEE2E0A68EE08BAE4
:10428800E8EE805A2AEE030A62EEAE3AA8EE810AF8
:10429800F1EE620AA9EE640AE0EEAB5AF0EE404A8B
:1042A800E8EE234A28EEA86A78EE08AAE0EE865AD5
:1042B800F1EE4A0AE0EEAF4A2CEE2A0AEAEE2B4A61
:1042C80069EE896AE8EE804A29EE285AE0EE864AC5
:1042D800CDED086A64EEA44A8DED075AE5EEA54ACD
:1042E800CDED067A14EE900ACDED052A8DED043A4F
:1042F8008DED031ACDED023A8DED006AFCF7C4F896
:1043080041EC100B01F0DEFC51EC100BFCF7C0FB8C
:10431800DDED067A9DED031A9DED043ADDED023AD6
:104328009DED075ADDED086A9DED097A9DED006A5D
:10433800DDED0A1A9DED0B2ADDED052A69EE277AD7
:10434800F1EE4C4AE1EE487AB0EE450AECEE037A1B
:1043580035EE055AE8EEA37A6AEE2A3AE4EEAF7A29
:10436800A8EE4E5AE8EEA37AB6EE001AE4EEAB7A5F
:1043780076EEA64AECEE067AE8EEAA4AA1EEC75A0D
:1043880071EE6B1A31EE6F1AE2EE474AF1EE690AE6
:10439800B0EE402A31EE6B1AA9EE880AA0EE882A00
:1043A80005EE900A21EE271A22EE272AA5EE801A9A
:1043B80031EEC66AE8EE286A69EE081AA5EE862A82
:1043C80031EE4C0AE0EEA81A2EEEA4CA66EEA76AF1
:1043D800AAEEC5CA32EE626A29EE272A28EE273AE3
:1043E800E5EEA16AF1EE652AB0EE424AA8EEA24ACD
:1043F800A3EE46CA76EECA6AB0EE001AA4EE26CA42
:10440800B7EE004AAFEEC14AF1EE00FAABEEC14A90
:104418006EEE24BAAFEE474A38EEA87A2FEEC91AE4
:10442800E7EE05BA28EEA7FAE1EE04BA68EE251A17
:10443800E6EE0FBAA1EE80CA27EE24AAE9EEA71A83
:1044480035EEA51A77EEA73AAEEE45AAB1EE411AB7
:10445800E6EEA1BA28EE017A63EEC91A6AEEA4AABA
:1044680068EE2FFAE8EEA51AA0EEA77AA4EE6FAAD6
:10447800EEEE85AAA8EE812AE0EE21BAA6EE07AAFA
:1044880069EE251AE6EE02AAA9EEA23A3FEE21FA53
:1044980063EEC83AA6EE8FAAE9EEA53AE6EE83AA3D
:1044A800A0EE23AAE0EE21AA2BEEAB0AACEE0C0A92
:1044B800AAEE0A0AAAEEAA0AFFF75CFA574B20EE00
:1044C8004CCAD3ED007A60EE6BBAECEE27DAD3ED86
:1044D800007A20EE4AAAABEEA7DAD3ED007A20EEF6
:1044E8006A0AEAEE27CAD3ED007AA0EE27BADFED12
:1044F8004C7AADEE279AEDEEA79A29EE090AACEEB2
:10450800A78AA9EEA90AEBEE278AA8EE080AA8EE60
:10451800A80AFFF72FFA29EE009A69EE809A29EE89
:1045280009AA28EE008AF0EE4A7AE9EEA97AF1EEB5
:1045380048BAEBEE887A68EE808A84ED218AE8EE44
:10454800E87AC4ED1F9A84ED209AC4ED228A17EE0A
:10455800900AFBF799FF69EEA87ACDE90001E9EE28
:10456800087A77EEA77A17EE900AFBF78DFF9DED94
:10457800001B41EC100B01F0A3FB51EC100BFCF7F6
:1045880087FA68EE697A0AEE900AE9EE287A77EEF9
:10459800A77A17EE900AFBF777FF41EC100B01F0B2
:1045A80037FB99EEA9AA51EC100BABEE88AAFCF7E1
:1045B8006FFAA8EEA8AA28EE288A07EE900AA9EEB4
:1045C800898A1AEE100AB1EE67BAFBF75DFF78EE3A
:1045D800087ACDE9000117EE900AFBF755FF9DED2B
:1045E800001B41EC100B01F06BFB51EC100BFCF7BE
:1045F8004FFADFED0C7A07EE100A2BEE27BA27EEFA
:10460800277A6AEEA7AA84ED237A84ED24BAC4ED4A
:1046180025AA0CB0BDEC108B10BD00BF080000200F
:104628006F12033BE02E65421FB54FF47A74029473
:104638009DF818408DE818000123FDF733FB04B0FE
:1046480010BD1FB504AB802203F8012D0122009292
:10465800D0216B22FFF7E8FF0A20FCF741FC05B0E8
:104668005DF804FB1FB54FF47A7402949DF8184066
:104678008DE818000123FDF7ABFB04B010BD1FB592
:1046880006230C460093432202ABD021FFF7EAFF32
:104698009DF808309DF80910D4ED016A9DF80B20AB
:1046A80094ED117A9DF80C0041EA032109B207EE56
:1046B800901A9DF80A302186F8EEE77A42EA03223A
:1046C80097EEA67A12B29DF80D30628607EE902A10
:1046D80084ED0E7AF8EEE77A94ED127A43EA002335
:1046E80096EEA77A1BB2A38607EE903A84ED0F7A6E
:1046F800F8EEE77A94ED137A96EEA77A84ED107ABD
:1047080004B010BD1FB506230C4600933B2202AB34
:10471800D021FFF7A7FF9DF808309DF80910D4EDC8
:10472800026A9DF80B2094ED067A9DF80C0041EA88
:10473800032109B207EE901A9DF80A302182F8EE9B
:10474800E77A42EA032297EEA67A12B29DF80D3074
:10475800628207EE902A84ED097AF8EEE77A94ED02
:10476800077A43EA002396EEA77A1BB2A38207EEE4
:10477800903A84ED0A7AF8EEE77A94ED087A96EEA4
:10478800A77A84ED0B7A04B010BD30B587B0012349
:10479800009302220DF10F030C4618210546FFF77E
:1047A80061FF9DF80F30DA0723D507230093032212
:1047B80004AB18212846FFF755FF9DF816301B0754
:1047C80017D49DF811209DF8103043EA0223A4F86D
:1047D80050309DF813209DF8123043EA0223A4F8C4
:1047E80052309DF815209DF8143043EA0223A4F8AE
:1047F8005430B4F95030D4ED036A94ED166AD4ED10
:104808001C7A07EE103AB8EEC77AB4F9523027EEA0
:10481800267AD7EE067A07EE103AB8EEC77AC4EDD4
:10482800197A27EE267AD4ED1D7A94ED176AB4F931
:104838005430D7EE067A94ED1E7AC4ED1A7A07EE54
:10484800903AF8EEE77A67EEA67AD4ED186A97EE12
:10485800A67A84ED1B7A07B030BD38B50C460546FC
:10486800FFF70DFF21462846FFF74CFF2846214653
:10487800FFF78BFF2046BDE83840FFF749BC000032
:104888002DE9F04F8BB00AAE012705468A46FFF79F
:10489800D8FE06F80D7D6B2233460097D0212846B6
:1048A8000024FFF7C1FE334600976C22D02128462A
:1048B8008DF81B40FFF7B8FE334600973822D02109
:1048C80028468DF81B40FFF7AFFE3346009723229A
:1048D800D02128468DF81B40FFF7A6FE33460097E7
:1048E8006B22D02128468DF81B40FFF79DFE3346EA
:1048F80000972422D02128468DF81B40FFF794FE0C
:10490800334600976A22D02128464FF00C0B8DF8C9
:104918001B40FFF789FE33466A22D02100972846BC
:104928008DF81BB0FFF780FE0A20FCF7D9FA334652
:1049380000971A22D02128468DF81B70FFF774FEC5
:10494800334600971922D02128468DF81B40FFF7DF
:104958006BFE334600971B22D02128468DF81B405A
:10496800FFF762FE334600971C22D02128468DF8B7
:104978001B40FFF759FE40238DF81B300097334644
:104988006A22D0212846FFF74FFE78232322D02120
:104998008DF81B30009733462846FFF745FE282040
:1049A800FCF79EFA334600972322D02128468DF83B
:1049B8001B400DF11C09FFF737FE022300937222FA
:1049C8004B46D0212846FFF74DFE9DF81C309DF838
:1049D8001D6002942746A04605940494039446EA71
:1049E8000326B6FBFBF6A3B29E427DD8029B93FB3F
:1049F800F6F1039B93FBF6F207EE902A98FBF6F884
:104A08009FED5A7A049B93FBF6F3F8EEE77A059844
:104A180097FBF6F7C7EE876A90FBF6F60029CCBF3E
:104A2800A1F5804401F58044042192FBF1F0404255
:104A38004FEA202E8DF81D0093FBF1F096FBF1F163
:104A48004042494207EE903AF8EEE77ACAED116A19
:104A5800C7EE876A8DF81CE08DF81F004FEA202EFC
:104A680008128DF820008DF821104B462846772231
:104A7800D0218DF81EE007EE906AF8EEE77ACAEDCD
:104A8800126AC7EE876A02260096CAED136AFFF714
:104A9800E9FD4B46284600967A22D021FFF7E2FD31
:104AA80000964B467D22D0212846FFF7DBFD07EE16
:104AB800908A9FED2F7AF8EEE77A67EE877ACAED4B
:104AC800067A07EE907AF8EEE77A67EE877ACAED0B
:104AD800077A07EE904AF8EEE77A67EE877ACAED2A
:104AE800087A0BB0BDE8F08F4B467422CDF800B0C1
:104AF800D0212846FFF7B6FD9DF81C209DF81D30F3
:104B080043EA022308FA83F89DF81E209DF81F3017
:104B180043EA022307FA83F79DF820209DF8213005
:104B280043EA0223029A02FA83F302939DF82220B1
:104B38009DF8233043EA0223039A02FA83F303938E
:104B48009DF824209DF8253043EA0223049A02FAAE
:104B580083F304939DF826209DF8273043EA022327
:104B6800059A02FA83F3059301343CE700000343F6
:104B7800000080382DE9FF4104AD4FF0000805F82A
:104B8800058D01270C462B460A2218210097064658
:104B9800FFF74AFD0A20FCF7A3F90F238DF80B3025
:104BA8000A222B46182130460097FFF73DFD0A20C0
:104BB800FCF796F903230093304603AB1022182123
:104BC800FFF750FD9DF80C30DFED256A0097803B1C
:104BD80007EE903A9DF80D308DF80B80B8EEE77A25
:104BE800F7EE007AB0EE676AA7EE266A803B0A22E3
:104BF80007EE103A9DF80E3084ED166AB8EEC77AC3
:104C0800B0EE676A803BA7EE266A1821304607EEA9
:104C1800103AB8EEC77A84ED176AE7EE267A2B4683
:104C2800C4ED187AFFF700FD0A20FCF759F9A378BC
:104C380000971B0143F006038DF80B300A222B4620
:104C480018213046FFF7F0FC0A20FCF749F9054B1C
:104C58002367054B6367054BA36704B0BDE8F08184
:104C68000000803B0000EB430000F0420000FA42E5
:104C7800F0B585B004AD002305F8013D01260C46CA
:104C88002B466B22D02100960746FFF7CDFC642007
:104C9800FCF726F92B466B22D021384600968DF872
:104CA8000F60FFF7C1FC03238DF80F301A222B4643
:104CB800D02138460096FFF7B7FC04238DF80F3053
:104CC80019222B46D02138460096FFF7ADFC2B461B
:104CD8001B22D02138460096FFF7C4FC9DF80F3000
:104CE8006278009623F01A0343EAC2038DF80F3066
:104CF8001B222B46D0213846FFF796FC2B461C2258
:104D0800D02138460096FFF7ADFC9DF80F30227889
:104D1800009623F0180343EAC2038DF80F301C22D3
:104D28002B46D0213846FFF77FFC2B461D22D02189
:104D380038460096FFF796FC9DF80F30009623F052
:104D48000F0343F003038DF80F301D222B46D021AB
:104D58003846FFF769FC22238DF80F3037222B469F
:104D6800D02138460096FFF75FFC2B460096382284
:104D7800D02138468DF80F60FFF756FC2378032BB7
:104D880006D8DFE803F0020C0F124FF06253A3605D
:104D98006378032B0ED8DFE803F00B1315174FF0D9
:104DA8006453F4E74FF06653F1E74FF06853EEE7CA
:104DB800094B6360A3784BB1012B0AD005B0F0BD55
:104DC800064BF6E7064BF4E7064BF2E7064BE360C3
:104DD800F4E7064BFBE700BF0000FA3B00007A3C13
:104DE8000000FA3C00007A3DFFEBBF40FFEBBF3FFD
:104DF80030B585B04B709DF820308B704FF07E53E6
:104E0800CB670023C1F88030C1F88430C1F88830FE
:104E180001230A700C46009375220DF10F03D0216F
:104E28000546FFF71FFC9DF80F30712B12D1214664
:104E38002846FFF706FC21462846FFF721FD1420E7
:104E4800FCF74EF821462846FFF712FF2146284670
:104E5800FFF790FE05B030BD1FB51348134B002473
:104E680080E81800124B8362012384600461846126
:104E78000462C462C460C36104634361FCF744F81C
:104E880018B149210B4800F043FB01236946064845
:104E9800009401930294FCF773F918B15321054863
:104EA80000F036FB04B010BD0C01002000200140CA
:104EB8000100000F586800081FB51448144B154A24
:104EC800036082620023012243608360036183617F
:104ED8000362C362C360C26103634261FCF714F8F2
:104EE80018B16C210C4800F013FB022101220023A9
:104EF8008DE80E0005486946FCF742F918B176219D
:104F0800054800F005FB05B05DF804FBC40000206F
:104F1800002101400100000F5868000810B503681F
:104F2800194A934288B01ED1184B002401945A6C38
:104F380042F480725A645B6C03F480730193019BA2
:104F48001123039303A90323114804930594FCF741
:104F580089FB122022462146FCF7BCF91220FCF7F7
:104F6800EDF908B010BD0B4A9342FAD1074B002463
:104F780002945A6C42F400725A645B6C03F4007336
:104F88000293029B0423DCE7002001400038024022
:104F9800000002400021014013B5174B0024019482
:104FA8001A6B42F400121A631B6B03F400132246B7
:104FB800214601930B20019BFCF78CF90B20FCF791
:104FC800BDF9224621460D20FCF784F90D20FCF797
:104FD800B5F9224621461120FCF77CF91120FCF78F
:104FE800ADF9224621462F20FCF774F92F20FCF753
:104FF800A5F902B010BD00BF003802402DE9F0430A
:105008008DB00024454B01941A6B454EDFF818917A
:10501800DFF81881434F42F010021A631A6B02F04E
:1050280010020192019A02941A6B42F004021A6368
:105038001A6B02F004020292029A03941A6B42F06D
:1050480080021A631A6B02F080020392039A049496
:105058001A6B42F001021A631A6B02F00102049201
:10506800049A05941A6B42F002021A631A6B02F052
:1050780002020592059A06941A6B42F008021A6316
:105088001B6B03F008030693224630462A21069B31
:10509800FCF7C8FB224648464FF40051FCF7C2FB18
:1050A800224640464FF4A061FCF7BCFB2246384636
:1050B8003F21FCF7B7FB552307A930460125079385
:1050C80008940994FCF7CEFA2A2307A930460793D7
:1050D800089509940A94FCF7C5FA4FF4005307A9F8
:1050E80048460793089509940A94FCF7BBFA4FF4CD
:1050F800A06307A940460793089509940A94FCF70A
:10510800B1FA3F2307A938460793089509940A94EA
:10511800FCF7A8FA0DB0BDE8F08300BF00380240E4
:1051280000100240000C024000080240000002404B
:1051380008B50D480D4BDFF83CE04FF4804280E89D
:10514800084000238360C360026143618361C361D7
:105158000362FCF739FD28B148210548BDE808403D
:1051680000F0D6B908BD00BFB401002000540040CB
:1051780065680008801A060008B50D480D4BDFF871
:105188003CE04FF4804280E8084000238360C3601D
:10519800026143618361C3610362FCF715FD28B1B5
:1051A8005B210548BDE8084000F0B2B908BD00BF62
:1051B800080200200058004065680008801A0600B0
:1051C80030B50368654A934289B0054662D1C02369
:1051D800039312230493012305930323069303A93E
:1051E80004235F480793FCF73DFA00235D4A0193C7
:1051F800116C5D4C5D4841F400111164126CA360A0
:1052080002F400120192019AE3604FF0007284E800
:1052180005004FF48062204622616361A361E36167
:1052280023626362FCF7D4F818B18621504800F075
:105238006FF9AC634F49A5634F4C4FF000724023A0
:1052480084E80E004FF480620023226120464FF468
:105258008072E3606361A361E26123626362FCF7C9
:10526800B7F818B19821424800F052F900221146C7
:105278006C631F20A563FCF72DF81F20FCF75EF870
:10528800002220201146FCF725F82020FCF756F8CC
:1052980009B030BD394A9342FAD14FF440630393C1
:1052A80012230493012305930323069303A90423DC
:1052B8002B480793FCF7D6F900232A4A0293116C6E
:1052C8002F4C41F480011164126C2E49A36002F442
:1052D80080020292029AE3604FF0606284E806005E
:1052E80020464FF4806222616361A361E361236217
:1052F8006362FCF76DF818B1C8211D4800F008F981
:10530800AC63214BA563214C4FF0606C4FF0400E0D
:1053180084E808504FF4806200232046E36022614D
:105328006361A361E36123626362FCF751F818B11A
:10533800DA210F4800F0ECF8002211466C632120B6
:10534800A563FBF7C7FF2120FBF7F8FF0022222007
:105358001146FBF7BFFF222098E700BF005400402A
:1053680000040240003802401C0300201060024084
:1053780065680008A0600240540100200058004001
:105388005C02002040600240B8600240BC0200207D
:10539800054B02681B689A4205D1044B044A1968F8
:1053A800116000221A607047680400202804002059
:1053B8002404002030B595B0264B002101911A6CC9
:1053C80042F080521A641B6C03F080530193019BD6
:1053D800214B02911A6842F480421A601B6803F458
:1053E80080430293029B012308934FF4803309936F
:1053F8004FF48003022504240F9308A8A8230E95D0
:105408001094119312951394FDF7BAFA00B1FEE7C0
:105418000F23039305904FF4A053052103A8049587
:1054280006930793FDF75CFC054600B1FEE7FDF720
:10543800F1FC4FF47A73B0FBF3F0FBF78BFF2046D7
:10544800FBF79EFF2A4629464FF0FF30FBF742FF45
:1054580015B030BD003802400070004083B5FBF73E
:1054680013FDFFF7A7FFFFF7C9FDFFF795FDFFF74E
:10547800F3FCFFF75DFEFFF77FFE00F0DBF900F0BD
:1054880055FA00F0B7FA00F019FB00F013F9FFF72E
:1054980013FD4FF47A70FBF723FD012200920023DD
:1054A80016491748174C184D144F154EFFF7A0FC16
:1054B800002316482360FDF757FD4FF48051284616
:1054C800FCF7B5F94FF400512846FCF7B0F94FF452
:1054D80080412846FCF7ABF94FF400412846FCF719
:1054E800A6F939463046FFF7B8F9D4ED007AB7EE99
:1054F800007A77EE877AC4ED007ADEE7840300202D
:10550800B401002028040020000C02406804002098
:10551800FEE7000013B5224B002400945A6C42F4B5
:1055280080425A645A6C02F480420092009A0194B4
:105538001A6C42F080521A641B6C03F0805301937A
:105548000320019BFBF7B4FE224621466FF00B00B7
:10555800FBF7C0FE224621466FF00A00FBF7BAFEB1
:10556800224621466FF00900FBF7B4FE2246214689
:105578006FF00400FBF7AEFE224621466FF00300F1
:10558800FBF7A8FE224621466FF00100FBF7A2FEBA
:10559800224621464FF0FF30FBF79CFE02B010BDBB
:1055A800003802407047FEE7FEE7FEE7FEE7704777
:1055B8007047704708B5FBF781FCBDE80840FBF76A
:1055C800ECBE00000148FBF793BF00BF1C0300209E
:1055D8000148FBF78DBF00BF5C0200200148FBF7C4
:1055E80087BF00BF5401002008B50448FBF733FD0E
:1055F8000348BDE80840FBF72EBD00BF0C010020A2
:10560800C400002008B50448FDF777FD0348BDE84D
:105618000840FDF772BD00BFE004002068040020C8
:105628000148FCF783BD00BFB40100200148FDF725
:10563800E7B800BFB40100200148FCF777BD00BF00
:10564800080200200148FDF7DBB800BF080200206F
:105658000148FEF7CFB800BF1C0500200148FBF742
:1056680047BF00BFBC0200200F49D1F8883043F47F
:105678007003C1F888300D4B1A68002042F001020F
:105688001A6098601A6822F0847222F480321A60D4
:10569800074A5A601A6822F480221A60D8604FF0CC
:1056A80000638B60704700BF00ED00E000380240E7
:1056B800103000240A480B4908B5A72380E80A00DF
:1056C80040F2E73200238360C2600361FDF71CFEED
:1056D80028B1FB210448BDE80840FFF719BF08BD01
:1056E80068040020004401408A6800081FB5036868
:1056F800244A934213D1244B00220092596C41F062
:10570800010159645B6C03F001030093009B11468F
:105718001920FBF7DFFD1920FBF710FE0EE01B4AEE
:1057280093420ED100230193174B1A6C42F00202E8
:105738001A641B6C03F002030193019B05B05DF82A
:1057480004FB134A93420CD1002302930E4B1A6CAC
:1057580042F004021A641B6C03F004030293029BD8
:10576800ECE70C4A9342E9D1074B00220392596CAB
:1057780041F4003159645B6C03F400330393039BD9
:10578800C5E700BF000001400038024000040040A7
:10579800000800400044014070B503681E4A934267
:1057A80086B010D14FF4285301931223029300239B
:1057B80003930323049319480123059301A9FBF7D5
:1057C80051FF06B070BD164A934215D10224C0237A
:1057D8000026032501A91348019302940396049512
:1057E8000594FBF73FFF0123019302940396049568
:1057F800059401A90C48E2E70C4A9342E1D14FF421
:10580800E0430022019303920223032202930492AD
:10581800059301A90648D2E70000014000100240A4
:10582800000400400000024000040240000800405C
:10583800000C024000B53A483A49062395B080E882
:105848000A0040F28F1200238360C2600361436143
:10585800FDF75AFD18B144213348FFF759FE14A942
:105868004FF4805341F8483D2D48FDF789FB18B1A6
:105878004A212D48FFF74CFE2948FDF75FFD18B176
:105888004F212948FFF744FE002369462448009326
:105898000193FDF7FFFD18B156212348FFF738FEA5
:1058A8000022602306A91E480693079208920992CF
:1058B8000A920B920C92FDF78BFD18B162211A48DF
:1058C800FFF726FE042206A91548FDF781FD18B149
:1058D80067211548FFF71CFE082206A91048FDF7A6
:1058E80077FD18B16C211048FFF712FE00234FF422
:1058F80000520DA90A480D930E930F93109311931C
:1059080012921393FDF7E8FD18B178210648FFF7C6
:10591800FFFD0348FFF740FF15B05DF804FB00BF2B
:10592800E0040020000001408A68000800B52E4805
:105938002E4906238FB080E80A0040F28F12002318
:105948008360C2600361FDF7DFFC18B18C21284831
:10595800FFF7DEFD0EA94FF4805341F82C3D224895
:10596800FDF70EFB18B192212148FFF7D1FD1E4823
:10597800FDF7E4FC18B197211D48FFF7C9FD002386
:1059880001A9194801930293FDF784FD18B19E21DE
:105998001748FFF7BDFD0022602307A912480793A7
:1059A800089209920B92FDF713FD18B1A721104830
:1059B800FFF7AEFD042207A90B48FDF709FD18B152
:1059C800AC210B48FFF7A4FD082207A90648FDF7FC
:1059D800FFFC18B1B1210648FFF79AFD0248FFF70E
:1059E800DBFE0FB05DF804FBA404002000040040B7
:1059F8008A68000800B52E482E4906238FB080E833
:105A08000A0040F28F1200238360C2600361FDF731
:105A18007BFC18B1C5212848FFF77AFD0EA94FF481
:105A2800805341F82C3D2248FDF7AAFA18B1CB2142
:105A38002148FFF76DFD1E48FDF780FC18B1D02105
:105A48001D48FFF765FD002301A91948019302933A
:105A5800FDF720FD18B1D7211748FFF759FD00229F
:105A6800602307A912480793089209920B92FDF741
:105A7800AFFC18B1E0211048FFF74AFD042207A93E
:105A88000B48FDF7A5FC18B1E5210B48FFF740FDD1
:105A9800082207A90648FDF79BFC18B1EA21064829
:105AA800FFF736FD0248FFF777FE0FB05DF804FBFD
:105AB8002C040020000800408A68000808B50C483B
:105AC8000C4B4FF4E13E80E808400C220023836031
